:060000000A128A11E42F30
:1000080008000030831203133505BD0000303605A3
:10001800BE0080303705BF007F303805C00040087B
:100028003F043E043D04031D1A281B2823280030E2
:10003800B8000030B7000030B6000030B50000301E
:100048003905BD0000303A05BE0080303B05BF00D1
:100058007F303C05C00040083F043E043D04031DBA
:10006800362837283F280030BC000030BB0000305D
:10007800BA000030B900B81F42284328672800306A
:10008800BD000030BE000030BF008030C000350821
:10009800BD023608031C360F52285328BE02370803
:1000A800031C370F58285928BF023808031C380F7B
:1000B8005E285F28C0024008B8003F08B7003E0825
:1000C800B6003D08B500BC1F6A286B288F28003091
:1000D800BD000030BE000030BF008030C0003908CD
:1000E800BD023A08031C3A0F7A287B28BE023B0857
:1000F800031C3B0F80288128BF023C08031C3C0FCF
:1001080086288728C0024008BC003F08BB003E087C
:10011800BA003D08B9008030B8068030BC063C08FB
:100128003802031DA1283B083702031DA1283A08FD
:100138003602031DA128390835020318A428A5286A
:10014800A7280310A828031408003F3083160313B8
:10015800CB008030CA000030C9000030C800AF01B1
:10016800B0014708F3004608F2004508F1004408CA
:10017800F0000030F7000030F6000030F5000030E5
:10018800F4000A168A1599240A128A110318CD2830
:10019800CE28DF2ADF28831603133608CB0035085C
:1001A800CA003408C9003308C8000130AF07031873
:1001B800B00A0030B007413083120313A300203087
:1001C800A2000030A1000030A000831603134B08E2
:1001D80083120313A700831603134A088312031319
:1001E800A60083160313490883120313A500831678
:1001F8000313480883120313A4000A128A15BE24A5
:100208000A128A1183120313230883160313B600F4
:1002180083120313220883160313B50083120313F2
:10022800210883160313B4008312031320088316CE
:100238000313B300440883120313D800831603136F
:10024800450883120313D900831603134608831243
:100258000313DA0083160313470883120313DB0022
:1002680083160313330883120313D8028316031368
:100278003408031C340F4129442983120313D9027B
:10028800831603133508031C350F4B294E29831297
:100298000313DA02831603133608031C360F552995
:1002A800582983120313DB028316031383120313E3
:1002B8005B08F3005A08F2005908F1005808F000EA
:1002C8000A168A1524230A128A11F31B7B2973083C
:1002D800031D7C297208031D7C297108031D7C29D4
:1002E80002307002031D7829031C7B297C29CF2842
:1002F80083160313360883120313B80083160313F7
:10030800350883120313B7008316031334088312C6
:100318000313B60083160313330883120313B500BF
:1003280083160313470883120313BC0083160313B1
:10033800460883120313BB00831603134508831270
:100348000313BA0083160313440883120313B90076
:100358000A128A1105200A128A11031CB429B52928
:10036800CF2883160313440883120313D800831677
:100378000313450883120313D90083160313460891
:1003880083120313DA008316031347088312031337
:10039800DB0083160313480883120313D80283165D
:1003A80003134908031C490FDA29DD2983120313B3
:1003B800D902831603134A08031C4A0FE429E729C4
:1003C80083120313DA02831603134B08031C4B0F23
:1003D800EE29F12983120313DB0283160313831218
:1003E80003135B08F3005A08F2005908F100580893
:1003F800F0000A168A1524230A128A11F31B152AFB
:100408007308031D142A7208031D142A7108031D9A
:10041800142A02307002031D112A0318142A152AFF
:10042800A62A831603134B08C7004A08C6004908C2
:10043800C5004808C400DF2A4130F3002030F2002C
:100448000030F1000030F000831603134B08F7006A
:100458004A08F6004908F5004808F4000A128A1507
:100468009E200A128A11730883160313CB007208A0
:10047800CA007108C9007008C800FF30AF07031828
:10048800B00AFF30B007440883120313D80083165C
:100498000313450883120313D90083160313460870
:1004A80083120313DA008316031347088312031316
:1004B800DB0083160313480883120313D80283163C
:1004C80003134908031C490F6A2A6D2A8312031370
:1004D800D902831603134A08031C4A0F742A772A81
:1004E80083120313DA02831603134B08031C4B0F02
:1004F8007E2A812A83120313DB02831603138312D5
:1005080003135B08F3005A08F2005908F100580871
:10051800F0000A168A1524230A128A11F31BA52A49
:100528007308031DA42A7208031DA42A7108031D59
:10053800A42A02307002031DA12A0318A42AA52A9E
:10054800A62A152A83160313470883120313B80033
:1005580083160313460883120313B7008316031385
:10056800450883120313B600831603134408831245
:100578000313B500831603134B0883120313BC003F
:10058800831603134A0883120313BB00831603134D
:10059800490883120313BA00831603134808831209
:1005A8000313B9000A128A1105200A128A11031CC2
:1005B800DE2ADF2A202A831203135708831603131F
:1005C800A9002908AA00EE1BEA2AEB2AF02A6E08DD
:1005D800A3006D08A200F42A0630A2000030A30090
:1005E8002308AE002208AD000130AD070318AE0A9B
:1005F8000030AE0766302A06031D032B042B1E2B82
:10060800B01F072B082B122B3F30CB008030CA00BD
:100618000030C9000030C800AF01B00167302906BA
:100628000319172B182B1E2B2F08AD070318AE0A1A
:100638003008AE07B701B8014708BC004608BB0040
:100648004508BA004408B9004B08B6004A08B50086
:100658004908B4004808B300192C831603134B0843
:10066800F3004A08F2004908F1004808F0003C0885
:10067800F7003B08F6003A08F5003908F4000A12BA
:100688008A159E200A128A11730883120313B00078
:100698007208AF007108AE007008AD000A168A1122
:1006A8001C210A128A1183120313300883160313BC
:1006B800C000831203132F0883160313BF0083128D
:1006C80003132E0883160313BE00831203132D0889
:1006D80083160313BD004008F3003F08F2003E08EC
:1006E800F1003D08F0000A168A153A250A128A1107
:1006F800710883160313AC007008AB004B08831213
:100708000313A700831603134A0883120313A600D2
:1007180083160313490883120313A50083160313D2
:10072800480883120313A400831603134008831296
:100738000313A300831603133F0883120313A200B5
:10074800831603133E0883120313A10083160313B1
:100758003D0883120313A0000A128A15BE240A1248
:100768008A11831203132308CC002208CB00210826
:10077800CA002008C900831603133C088312031318
:10078800D000831603133B0883120313CF0083168C
:1007980003133A0883120313CE0083160313390890
:1007A80083120313CD000A168A15C6230A128A116A
:1007B800831203134C0883160313BC00831203131C
:1007C8004B0883160313BB00831203134A088316CE
:1007D8000313BA0083120313490883160313B900DD
:1007E8004130F3002030F2000030F1000030F0001A
:1007F8004B08F7004A08F6004908F5004808F400D5
:100808000A128A159E200A128A1173088316031386
:10081800CB007208CA007108C9007008C80001300E
:10082800B7070318B80A0030B8073808803A8312A7
:100838000313D800831603132E08803A8312031378
:100848005802031D2B2C831603132D083702031C93
:100858002E2C2F2C312B403083120313A300A030F1
:10086800A2000030A1000030A000831603134B083B
:1008780083120313A700831603134A088312031372
:10088800A60083160313490883120313A5008316D1
:100898000313480883120313A4000A128A15BE24FE
:1008A8000A128A1183120313230883160313C00044
:1008B80083120313220883160313BF008312031342
:1008C800210883160313BE0083120313200883161E
:1008D8000313BD003C0883120313B80083160313E7
:1008E8003B0883120313B700831603133A088312D5
:1008F8000313B60083160313390883120313B500D4
:1009080083160313400883120313BC0083160313D2
:100918003F0883120313BB00831603133E08831298
:100928000313BA00831603133D0883120313B90097
:100938000A128A1105200A128A110318A42CA52C60
:10094800B02C003083160313C0000030BF00003005
:10095800BE000030BD00D92C831603133C08F300F9
:100968003B08F2003A08F1003908F0004008F700A7
:100978003F08F6003E08F5003D08F4000A168A15FF
:1009880099240A128A11031CCA2CCB2CD92C831641
:1009980003132B18D02CD12CD92C0030C0000030D8
:1009A800BF000030BE000030BD00831603134008AE
:1009B80083120313B800831603133F08831203132B
:1009C800B700831603133E0883120313B600831679
:1009D80003133D0883120313B50083160313470856
:1009E80083120313BC0083160313460883120313F0
:1009F800BB0083160313450883120313BA0083163A
:100A08000313440883120313B9000A128A156E22CD
:100A18000A128A1183120313380883160313BC00C1
:100A280083120313370883160313BB0083120313BF
:100A3800360883160313BA00831203133508831686
:100A48000313B9003C0883120313B8008316031379
:100A58003B0883120313B700831603133A08831263
:100A68000313B60083160313390883120313B50062
:100A78004130A3002030A2000030A1000030A000C7
:100A880083160313360883120313A7008316031370
:100A9800350883120313A600831603133408831240
:100AA8000313A50083160313330883120313A4004A
:100AB8000A128A15BE240A128A1183120313230804
:100AC800BC002208BB002108BA002008B9000A129D
:100AD8008A1105200A128A11031C732D742DC72D43
:100AE800013083160313AF070318B00A0030B007AC
:100AF800413083120313A3002030A2000030A1006C
:100B08000030A00083160313360883120313A700CE
:100B180083160313350883120313A60083160313E1
:100B2800340883120313A5008316031333088312B2
:100B38000313A4000A128A15BE240A128A1183120A
:100B48000313230883160313B60083120313220822
:100B580083160313B50083120313210883160313A6
:100B6800B40083120313200883160313B3006630FE
:100B78002A06031DC02DC12DC72D0130AD0703184E
:100B8800AE0A0030AE07831603133608CB003508CB
:100B9800CA003408C9003308C8003008A1002F086B
:100BA800A000A801A401A501B701B8013B2F831635
:100BB80003134B08F3004A08F2004908F1004808FB
:100BC800F0003C08F7003B08F6003A08F500390841
:100BD800F4000A128A159E200A128A1173088312D9
:100BE8000313B0007208AF007108AE007008AD00C2
:100BF8000A168A111C210A128A118312031330085B
:100C080083160313C000831203132F0883160313DC
:100C1800BF00831203132E0883160313BE0083122A
:100C280003132D0883160313BD004008F3003F0883
:100C3800F2003E08F1003D08F0000A168A153A2530
:100C48000A128A117108803AFF0080307F02031D62
:100C58002F2E0A3070020318322E332E492E831697
:100C680003134008F3003F08F2003E08F1003D0876
:100C7800F0000A168A153A250A128A117108831695
:100C88000313AC007008AB004F2E09308316031312
:100C9800AB000030AC002808031D532E542E852EBF
:100CA800A11F572E582E852E4208103E84002E3044
:100CB800831780000130C2070318C30A0030C30736
:100CC800FF30B1070318B20AFF30B2070130A8009D
:100CD800852E4208103E8400303083178000013092
:100CE800C2070318C30A0030C307FF30B10703184F
:100CF800B20AFF30B207FF30A4070318A50AFF3075
:100D0800A50724082504031D8A2E8B2E6D2E420864
:100D1800103E84002B08303E831780000130C20744
:100D28000318C30A0030C307FF30B1070318B20A1B
:100D3800FF30B2074B0883120313A700831603136F
:100D48004A0883120313A600831603134908831263
:100D58000313A50083160313480883120313A40082
:100D680083160313400883120313A3008316031387
:100D78003F0883120313A200831603133E0883124D
:100D88000313A100831603133D0883120313A00065
:100D98000A128A15BE240A128A1183120313230821
:100DA800CC002208CB002108CA002008C9008316FD
:100DB80003133C0883120313D000831603133B0864
:100DC80083120313CF00831603133A088312031305
:100DD800CE0083160313390883120313CD000A16B5
:100DE8008A15C6230A128A11831203134C08831624
:100DF8000313BC00831203134B0883160313BB00B1
:100E0800831203134A0883160313BA0083120313C9
:100E1800490883160313B9004130F3002030F2006B
:100E28000030F1000030F0004B08F7004A08F600E7
:100E38004908F5004808F4000A128A159E200A128B
:100E48008A11730883160313CB007208CA0071084D
:100E5800C9007008C800FF30A0070318A10AFF30B6
:100E6800A1070130B7070318B80A0030B8073808D7
:100E7800803A83120313D800831603132E08803A8E
:100E8800831203135802031D4D2F831603132D08D5
:100E980037020318502F512F602F8316031343086E
:100EA800803AFF0080307F02031D5C2F4B304202E6
:100EB800031C5F2F602FDB2D4F3083160313B70001
:100EC8000030B8003708103E8400831780011030C6
:100ED80083120313D80083160313420883120313E3
:100EE800D802831603133708831203135807F00038
:100EF8001030F100831603134308F3004208F20090
:100F08000A168A1584230A128A11831603134208C3
:100F18003702C2004308031C430A3802C3004108D1
:100F2800031D972F992F01309A2F00308312031336
:100F3800D800D901580883160313B7008312031386
:100F4800590883160313B80041080319AC2FAD2FB5
:100F5800B92FFF30C2070318C30AFF30C30742087E
:100F6800103E84004108831780003708B102380812
:100F7800031CB203B202831203135108A8005208DB
:100F8800A900831603134208103E83120313AA0014
:100F980083160313320883120313AC00831603135A
:100FA800310883120313AB000A168A15E7240A12C4
:100FB8008A11831203132908D2002808D1000800D7
:100FC80083160313EB01EC01ED01EE01EF0183172A
:100FD80090308400B4300A168A1504230A128A1144
:100FE8001030840060300A168A1504230A128A1108
:080FF80083010A168A119C2CEA
:101008008030831603134E02003003194D02031C6F
:101018000E280F2816284B3083160317A20000301D
:10102800A3009D28D030D6004C08D9000130DA0042
:1010380000304E02023003194D02031C24282528D3
:1010480030284D08FF3EE2004E080318013EFF3EDF
:10105800E300DB01DC0138280130E2000030E30066
:101068000130DB000030DC00D93083120313E800C4
:101078000030E900831603134F0883120313EA00B4
:10108800D630EB000A168A1103200A128A15831239
:101098000313690883160313D8008312031368081F
:1010A80083160313D7004D084E0403195C285D28E6
:1010B8009D28D81B602861289D284D08FF3E831273
:1010C8000313ED00831603134E080318013EFF3E79
:1010D80083120313EE00831603135808803A831211
:1010E8000313EF006E08803A6F02031D7F286D0816
:1010F800831603135702031C822883288E2883161D
:1011080003134D08FF3ED4004E080318013EFF3E6E
:10111800D5009428831603135808D5005708D4001F
:1011280054084C0783120313ED006D0884008317DD
:1011380080010800770883120313A4008030A405F7
:101148007708F8007807AB00F61FAB28AC28AD2865
:101158002B142B080319B128B228C2282B0A031D07
:10116800B628B728BF280030F7000030F600003056
:10117800F5000030F400F617F701CA280030F70030
:101188000030F6000030F5000030F40073088039B4
:10119800A4067308F8007807AC00F21FD428D528F5
:1011A800D6282C142C080319DA28DB28EB282C0A5B
:1011B800031DDF28E028E8280030F3000030F200A3
:1011C8000030F1000030F000F217F301F32800308E
:1011D800F3000030F2000030F1000030F000730836
:1011E800720471047004031DFA28FB2812290030C8
:1011F800F7000030F6000030F5000030F4008030D1
:10120800F6047F30F7042408F7047708F30076081B
:10121800F2007508F1007408F0006D2A2B08031D10
:101228001629172920290030F3000030F200003079
:10123800F1000030F0006D2A2B08F800F901790858
:10124800FB002C087802FA00031CFB037A087F3E97
:10125800A5007B080318013E003EA6007708A300FE
:101268007608A2007508A1007408A0000030F700F5
:101278000030F6000030F5000030F4000030AA001D
:101288000030A9000030A8000030A700AC019A295E
:101298002C0803195029512971290130F80003102D
:1012A800A00DA10DA20DA30DF80B53290130F800D4
:1012B8000310F40DF50DF60DF70DF80B5C29AA1FB8
:1012C80066296729682974140130F8000310A70DEE
:1012D800A80DA90DAA0DF80B6A2973082302031D8E
:1012E8007F2972082202031D7F2971082102031D2C
:1012F8007F2970082002031C8229832998292A172C
:101308007008A0027108031C710F8B298C29A10297
:101318007208031C720F91299229A2027308031CF8
:10132800730F97299829A3020130AC071A302C02B1
:10133800031C9F29A0294C292308220421042004E6
:101348000319A729A829C7292714C7290130F80094
:101358000310F40DF50DF60DF70DF80BAC29AA1FC7
:10136800B629B729B82974140130F8000310A70D5D
:10137800A80DA90DAA0DF80BBA29FF30A507031867
:10138800A60AFF30A607F61FCA29CB29AA29AC014D
:10139800AA1FCF29D029EC29FF302705F800FF30F4
:1013A8002805F900FF302905FA007F302A05FB00DF
:1013B8007B087A04790478040319E329E429E729E6
:1013C8000130AC00EC29741CEA29EB29EC29E4294A
:1013D8002C080319F029F129222A0130F4070030DA
:1013E80003180130F507003003180130F607003004
:1013F80003180130F707771C022A032A222A7408E7
:10140800F8007508F9007608FA007708FB00013043
:10141800FC007B0DFB0CFA0CF90CF80CFC0B0D2AEC
:101428007B08F7007A08F6007908F5007808F400D8
:101438000130A5070318A60A0030A6072608803A37
:10144800FF0080307F02031D2B2AFF302502031C7A
:101458002E2A2F2A3D2AFF3083120313A5000030BD
:10146800A6000030F7000030F6000030F50000302C
:10147800F400831203132608803AFF0080307F02AD
:10148800031D482A0130250203184B2A4C2A592AE1
:1014980083120313A501A6010030F7000030F600FF
:1014A8000030F5000030F400A4018312031325086E
:1014B800AB002B1C602A612A632AF617652A7F3045
:1014C800F6052B08F8000310780CF7002408F70439
:1014D80009290800831203133808C5008030C505A0
:1014E8003808BD003D07C700B71F7B2A7C2A7D2A24
:1014F800471447080319812A822A922A470A031D9A
:10150800862A872A8F2A0030B8000030B7000030BA
:10151800B6000030B500B717B8019A2A0030B800F5
:101528000030B7000030B6000030B5003C08C600F7
:101538008030C605460845060319A32AA42AA52A09
:1015480045173C08BD003D07C600BB1FAC2AAD2AA5
:10155800AE2A461446080319B22AB32AC32A460AF1
:10156800031DB72AB82AC02A0030BC000030BB00CF
:101578000030BA000030B900BB17BC01CB2A0030DC
:10158800BC000030BB000030BA000030B90047088A
:1015980046020318D02AD12AF52A451FD42AD52A6B
:1015A800D72A8030C5064708C8004608C70048083B
:1015B800C6003508C8003908B5004808B90036081B
:1015C800C8003A08B6004808BA003708C8003B08FF
:1015D800B7004808BB003808C8003C08B8004808ED
:1015E800BC00C8014608BD00BE013E08C00047084F
:1015F8003D02BF00031CC0034008803AFF00803052
:101608007F02031D092B1A303F02031C0C2B0D2BE4
:10161800422B831203133808370436043504031D9C
:10162800162B182B0130192B0030C8000030B800D9
:101638000030B7000030B6000030B5004608C700DB
:101648004A2B481C282B292B302B4808BD00031097
:101658003D0C0138C800322B0310C80C351C352B43
:10166800362B372BC8170130BD00380DB80CB70C16
:10167800B60CB50CBD0B392B0130C7078312031309
:1016880046084702031C492B4A2B252B451B4D2B8B
:101698004E2B952B4708031D522B532B5C2B0030E8
:1016A800B8000030B7000030B6000030B500BD2CDF
:1016B8003908B5073A0803110318013E0319652BC9
:1016C800B6073B0803110318013E03196C2BB70733
:1016D8003C0803110318013E0319732BB807381C83
:1016E800762B772B492C481C7A2B7B2B822B48088E
:1016F800BD0003103D0C0138C800842B0310C80C32
:10170800351C872B882B892BC8170130BD00380D55
:10171800B80CB70CB60CB50CBD0B8B2B0130C7073A
:10172800492C3808803AFF003C08803A7F02031DA4
:10173800A72B3B083702031DA72B3A083602031DC7
:10174800A72B390835020318AA2BAB2B022CFF3024
:10175800BD00FF30BE00FF30BF00FF30C0003908B9
:10176800C1003A08C2003B08C3003C08C400350861
:10177800C1023608031C360FC22BC32BC20237081E
:10178800031C370FC82BC92BC3023808031C380F9A
:10179800CE2BCF2BC4024108BD0742080318420FC5
:1017A800D62BD72BBE0743080318430FDC2BDD2BA2
:1017B800BF0744080318440AC0074008B8003F0898
:1017C800B7003E08B6003D08B5008030C50648039E
:1017D800FF3AC8004808031DF22BF32B102C0130E8
:1017E800B507003003180130B60700300318013080
:1017F800B707003003180130B807102C3908B502B4
:101808003A08031C3A0FB6023B08031C3B0FB70209
:101818003C08031C3C0FB80238083704360435046A
:10182800031D172C182C452C4808031D1C2C1D2C97
:10183800452C0030B8000030B7000030B60000304A
:10184800B500BD2C0130BD000310B50DB60DB70DA8
:10185800B80DBD0B282CC81F322C332C342C351452
:10186800481C372C382C3C2C0314480DC8003E2C3F
:101878000310C80D47080319422C432C452C01308E
:10188800C702B71F482C492C262CC601C81F4D2C4F
:101898004E2C5C2C48087F390319532C542C572C98
:1018A8000130C6005C2C351C5A2C5B2C5C2C542C4B
:1018B80046080319602C612C932C0130B5070030C1
:1018C80003180130B607003003180130B70700309D
:1018D80003180130B807381C722C732C932C350868
:1018E800BD003608BE003708BF003808C000013008
:1018F800C100400DC00CBF0CBE0CBD0CC10B7D2C33
:101908004008B8003F08B7003E08B6003D08B500DB
:10191800470A0319902C912C932C0130C707470ACA
:101928000319972C982C9D2C4708031D9C2C9D2C43
:10193800AB2C0030B8000030B7000030B6000030E3
:10194800B5004708031DA92CAA2CAB2CC501471CC0
:10195800AE2CAF2CB12CB717B32C7F30B705470886
:10196800BD0003103D0CB800C51FBB2CBC2CBD2C02
:10197800B8170800831203132308A8008030A805AD
:101988002308F9007907AE00A21FCB2CCC2CCD2C54
:101998002E142E080319D12CD22CE12C2E0A031D4B
:1019A800D62CD72CDF2C0030A3000030A20000304A
:1019B800A1000030A000A217E92C0030A3000030DD
:1019C800A2000030A1000030A00027088039A80636
:1019D8002708F9007907AD00A61FF32CF42CF52C85
:1019E8002D142D080319F92CFA2C092D2D0A031D85
:1019F800FE2CFF2C072D0030A7000030A600003079
:101A0800A5000030A400A617112D0030A700003053
:101A1800A6000030A5000030A4002D080319152DDC
:101A2800162D1B2D2E08031D1A2D1B2D242D0030BD
:101A3800A3000030A2000030A1000030A000FF2F5A
:101A48002008F00026080A168A150E240A128A159C
:101A5800710883120313B4007008B3003308F90047
:101A6800FA01FB01FC017C08AC007B08AB007A089A
:101A7800AA007908A9003408F900FA01FB01FC0161
:101A88007C08B2007B08B1007A08B0007908AF0082
:101A98002108F00025080A168A150E240A128A154C
:101AA800710883120313B4007008B3003308F900F7
:101AB800FA01FB01FC017908A9077A080311031848
:101AC800013E0319682DAA077B0803110318013E7C
:101AD80003196F2DAB077C0803110318013E031986
:101AE800762DAC073408F900FA01FB01FC017908EE
:101AF800AF077A0803110318013E0319842DB007B4
:101B08007B0803110318013E03198B2DB1077C08CC
:101B180003110318013E0319922DB2072208F000A1
:101B280024080A168A150E240A128A1571088312C7
:101B38000313B4007008B3003308F900FA01FB017D
:101B4800FC017908A9077A0803110318013E031953
:101B5800AE2DAA077B0803110318013E0319B52D02
:101B6800AB077C0803110318013E0319BC2DAC0711
:101B78003408F900FA01FB01FC017908AF077A087B
:101B880003110318013E0319CA2DB0077B0803117E
:101B98000318013E0319D12DB1077C08031103185E
:101BA800013E0319D82DB2070830F9000310A90D1A
:101BB800AA0DAB0DAC0DF90BDA2D2108F0002408A5
:101BC8000A168A150E240A128A157108831203133D
:101BD800B4007008B3003308F9003408FA00FB01B8
:101BE800FC017908A9077A0803110318013E0319B3
:101BF800FE2DAA077B0803110318013E0319052EC1
:101C0800AB077C0803110318013E03190C2EAC071F
:101C18002008F00025080A168A150E240A128A15CB
:101C2800710883120313B4007008B3003308F90075
:101C38003408FA00FB01FC017908A9077A080311A6
:101C48000318013E0319292EAA077B08031103185C
:101C5800013E0319302EAB077C0803110318013E1F
:101C68000319372EAC070830F9000310A90DAA0D87
:101C7800AB0DAC0DF90B392E2008F00024080A161C
:101C88008A150E240A128A15710883120313B400E8
:101C98007008B3003308F9003408FA00FB01FC01AE
:101CA8007908A9077A0803110318013E03195D2E64
:101CB800AA077B0803110318013E0319642EAB071A
:101CC8007C0803110318013E03196B2EAC07210889
:101CD800F00026080A168A150E240A128A157108B9
:101CE80083120313B4007008B3003308F9003408F2
:101CF800FA00FB01FC017908AF077A080311031801
:101D0800013E0319882EB0077B0803110318013E12
:101D180003198F2EB1077C0803110318013E03191C
:101D2800962EB2072208F00025080A168A150E24F6
:101D38000A128A15710883120313B4007008B300DD
:101D48003308F9003408FA00FB01FC017908AF07F1
:101D58007A0803110318013E0319B32EB0077B0854
:101D680003110318013E0319BA2EB1077C080311A9
:101D78000318013E0319C12EB2072208F0002608F5
:101D88000A168A150E240A128A157108831203137B
:101D9800B4007008B3003308F9003408FA00FB01F6
:101DA800FC0108300310F90DFA0DFB0DFC0DFF3E88
:101DB800031DD62E7908AF077A0803110318013ED0
:101DC8000319E72EB0077B0803110318013E031916
:101DD800EE2EB1077C0803110318013E0319F52EF6
:101DE800B2072908F9002A08FA002B08FB002C087A
:101DF800FC0018300310FC0CFB0CFA0CF90CFF3E2D
:101E0800031DFE2E7908AF077A0803110318013E57
:101E180003190F2FB0077B0803110318013E03199C
:101E2800162FB1077C0803110318013E03191D2F53
:101E3800B2070830F9000310A90DAA0DAB0DAC0DBF
:101E4800F90B1F2F2E082D07F900FA01FA0D790852
:101E5800823EB3007A080318013EFF3EB400512FBA
:101E68000130F9000310AF0DB00DB10DB20DF90B33
:101E7800362FAC1F402F412F422F2F140130F9006D
:101E88000310A90DAA0DAB0DAC0DF90B442FFF30B3
:101E9800B3070318B40AFF30B407B11F542F552FE6
:101EA800342FAD01AC1F592F5A2F762FFF3029053B
:101EB800F900FF302A05FA00FF302B05FB007F30C0
:101EC8002C05FC007C087B047A04790403196D2F27
:101ED8006E2F712F0130AD00762F2F1C742F752FA8
:101EE800762F6E2F2D0803197A2F7B2FAC2F0130F8
:101EF800AF07003003180130B00700300318013075
:101F0800B107003003180130B207321C8C2F8D2F17
:101F1800AC2F2F08F9003008FA003108FB0032080E
:101F2800FC000130FD007C0DFC0CFB0CFA0CF90CDC
:101F3800FD0B972F7C08B2007B08B1007A08B0002F
:101F48007908AF000130B3070318B40A0030B407AA
:101F58003408803AFF0080307F02031DB52FFF3020
:101F68003302031CB82FB92FC42F7F3083120313F9
:101F7800B2008030B1000030B0000030AF00F52F63
:101F8800831203133408803AFF0080307F02031D58
:101F9800CF2F013033020318D22FD32FDF2F003079
:101FA80083120313B2000030B1000030B0000030DB
:101FB800AF00A801F52F831203133308AE00FF30DA
:101FC800AF05FF30B0057F30B1050030B2052E1CDB
:101FD800EE2FEF2FF02FB1172E08F9000310790C10
:101FE800B2002808B2043208A3003108A200300861
:081FF800A1002F08A000080061
:10200600831203136A08EC0083160317A001A101CB
:1020160027286808DC006908DD006C30DE006B08E4
:10202600DF000A168A1142200A168A118312031348
:102036005C0883160317A0070318A10A831203136B
:102046005D0883160317A107831203136C08840027
:102056000A168A150A200A168A11003A031D342820
:1020660035280C2883160317210883120313E90069
:1020760083160317200883120313E800080083124F
:1020860003135E0884008313000884000A168A1569
:102096000A200A168A11253A031D52285328F828C1
:1020A6005E0884000130800783160313EB01EC0100
:1020B6000030EF00FF30ED00FF30EE008312031317
:1020C6005E0884000008E700670884000A168A157F
:1020D6000A200A168A11E60078280130E7078328C5
:1020E6006C30E6008328E601832866084C3A03191B
:1020F60070282A3A031973280A3A03197028762891
:10210600670884000A168A150A200A168A11663A92
:10211600031D8E288F28F128B8285F088400000840
:10212600FF00043080077F0884000008E200840A6C
:102136000008E300840A0008E400840A0008E500B9
:10214600C0285F0884000008FF00043080077F086D
:1021560084000008E200840A0008E300840A0008FC
:10216600E400840A0008E500C02866084C3A031912
:10217600A428203A03199028C0285E08840067081E
:10218600013E8000E6285C08D1005D08D2006508A3
:10219600D6006408D5006308D4006208D300670837
:1021A60084000A168A150A200A168A11D7000A160A
:1021B6008A112B220A168A11831203135208DD0094
:1021C6005108DC001B29670884000A168A150A20B4
:1021D6000A168A11663A0319C628F1285E08840091
:1021E60001308007DC01DD011B295E088400000840
:1021F60084000A168A150A200A168A11E000E101EF
:102206006008F0006108F1005C08F2005D08F30068
:102216000A168A15B2260A168A11831203135E0855
:1022260084000130831380070130DC000030DD00BC
:102236000800831603171B0883120313C0008316B6
:1022460003171A0883120313BF008316031719080E
:1022560083120313BE008316031718088312031391
:10226600BD003008C0002F08BF002E08BE002D0894
:10227600BD003D08B1003E08B2003F08B30040086B
:10228600B40017300310B40CB30CB20CB10CFF3E03
:10229600031D4529FF303105B50000303205B60073
:1022A6003508813EBB0036080318013EFF3EBC00E0
:1022B6003C08803AFF0080307F02031D64291730F6
:1022C6003B02031C6729682969292A2A83120313FA
:1022D600BC1B6E296F29DF293B0AFF00FF30B100C6
:1022E600FF30B2007F30B3000030B4007F29340DD8
:1022F600B40CB30CB20CB10CFF0B7A293408BA003B
:102306003308B9003208B8003108B70037083D0570
:10231600B10038083E05B20039083F05B3003A0857
:102326004005B4003408330432043104031D9C29EB
:102336009D299E2968293D08B1003E08B2003F0844
:10234600B3004008B4001F300310B40CB30CB20C39
:10235600B10CFF3E031DA7293408330432043104AF
:102366000319B629B729CE293708BD07380803113E
:102376000318013E0319C029BE07390803110318C3
:10238600013E0319C729BF073A0803110318013E86
:102396000319CE29C0073709B1003809B200390937
:1023A600B3003A09B4003108BD053208BE0533084A
:1023B600BF053408C005222A3D08B1003E08B20018
:1023C6003F08B3004008B4001F300310B40CB30C30
:1023D600B20CB10CFF3E031DE82934083304320465
:1023E6003104031DF729F829012A0030C000003006
:1023F600BF000030BE000030BD00222A3D08B100FB
:102406003E08B2003F08B3004008B4000130031094
:10241600B10DB20DB30DB40DFF3E031D0A2A3408EB
:102426003304320431040319192A1A2A222ABF3026
:10243600C0008030BF000030BE000030BD00400844
:10244600B0003F08AF003E08AE003D08AD000800F2
:1024560083160313C101831203135608831603134D
:10246600C70083120313550883160313C60083128D
:102476000313540883160313C5008312031353086A
:1024860083160313C400470883120313B800831688
:102496000313460883120313B70083160313450874
:1024A60083120313B600831603134408831203131F
:1024B600B5000030BC000030BB000030BA00003070
:1024C600B9000A128A1105200A168A1103186C2A05
:1024D6006D2A882A013083160313C1004708F300CA
:1024E6004608F2004508F1004408F0000A168A156D
:1024F6000C230A168A11730883160313C700720881
:10250600C6007108C5007008C40083160313C20113
:10251600C3016C08B2006B08B10041080319942A84
:10252600952AA52A4108031D992A9A2A9F2A2B3003
:10253600A6000030A700A32A2D30A6000030A70071
:102546002608C1004708F3004608F2004508F100D6
:102556004408F0000A168A1525260A168A11700301
:102566007104031DB72AB82A052B831603134108E5
:102576000319BE2ABF2ACF2A4108831203179000E7
:10258600FF3083160313B1070318B20AFF30B207F0
:102596000130C2000030C3004208103EF000013096
:1025A600F1008030F2000A168A15A5230A168A1150
:1025B600FD3083160313B1070318B20AFF30B207C2
:1025C600831203135108A8005208A9001030AA006C
:1025D60083160313320883120313AC008316031306
:1025E600310883120313AB000A168A15E7240A166C
:1025F6008A11831203132908D2002808D1000A126F
:102606008A11E32F831603134708F3004608F200E6
:102616004508F1004408F0000A168A1525260A1610
:102626008A1170087104031D192B1C2B0A128A11BA
:10263600A9288316031341080319222B232B332BB6
:102646004108831203179000FF3083160313B10766
:102656000318B20AFF30B2070130C2000030C300CF
:102666004208103EF0000530F1008030F2000A16F4
:102676008A15A5230A168A11DB2A262C6408043E2D
:1026860084008317000883120313B500840A000828
:10269600B600840A0008B700840A0008B80083164A
:1026A600031364088400000883120313B900840A24
:1026B6000008BA00840A0008BB00840A0008BC00AF
:1026C6000A128A156E220A168A11831603136408E3
:1026D600840083120313350883178000840A3608A2
:1026E6008000840A37088000840A38088000362C67
:1026F6006408043E84008317000883120313C9008C
:10270600840A0008CA00840A0008CB00840A00086C
:10271600CC00831603136408840000088312031395
:10272600CD00840A0008CE00840A0008CF00840A7F
:102736000008D0000A168A15C6230A168A118316BF
:102746000313640884008312031349088317800067
:10275600840A4A088000840A4B088000840A4C08D0
:102766008000362C6408043E840083170008831218
:102776000313A000840A0008A100840A0008A2002E
:10278600840A0008A3008316031364088400000863
:1027960083120313A400840A0008A500840A000813
:1027A600A600840A0008A7000A128A15BE240A1683
:1027B6008A11831603136408840083120313200806
:1027C60083178000840A21088000840A220880007A
:1027D600840A23088000362C6408043E840083178C
:1027E6000008F000840A0008F100840A0008F200DC
:1027F600840A0008F300640884000008F400840AD0
:102806000008F500840A0008F600840A0008F700AC
:102816000A128A159E200A168A1183160313640863
:102826008400700883178000840A71088000840A77
:1028360072088000840A73088000362C0D30E4008C
:102846008030E5009B2C8316031365082B3A031989
:10285600412B063A03197B2B023A0319EF2B573A01
:102866000319B52B212C831603136408043E840038
:1028760000308000840A00308000840A0030800026
:10288600840A00308000A430CC001030CD00003027
:10289600CE000930CF00640884000008D000840A06
:1028A6000008D100840A0008D200840A0008D30078
:1028B6000A128A1504200A168A11A430F000013083
:1028C600F1000A168A15EA230A168A117008FF3ED5
:1028D60083160313E60071080318013EFF3EE70066
:1028E6006608A43E8400303083170006031D7C2C46
:1028F6007D2C822C6608A43E84008001902C6608FC
:10290600A43E84002E300006031D8A2C8B2C972CA7
:102916006608A43E84008001972C0130E602003050
:10292600031CE703E702732CA430E4000130E50042
:10293600080083160313081488140815881508124E
:1029460088120813881383120313081288120813B7
:102956008813831603138601071107108710831641
:102966000317C401C501033083160313EA008A3036
:10297600E9005530E800E80BBE2CE90BBE2CEA0B4B
:10298600BE2C30300A168A1517230A168A11013012
:1029960083160317C4070318C50A0030C50700309D
:1029A6004502033003194402031CDA2CDB2CB62C37
:1029B600033083160313EA008A30E9005530E80035
:1029C600E80BE32CE90BE32CEA0BE32C38300A1670
:1029D6008A1517230A168A1108300A168A1517232C
:1029E6000A168A1101300A168A1517230A168A1141
:1029F60006300A168A1517230A168A110F300A1688
:102A06008A1517230A168A110130F3000030F400E4
:102A16000A168A1567230A168A112B30831603179E
:102A2600C800CB3084000830FF0083178001840A79
:102A3600FF0B182DC901CA010A168A1148260A1663
:102A46008A1183160317D3002E2E530884000A1604
:102A56008A150A200A168A11C800742D0130C90782
:102A66000318CA0A0030CA07812DCB308316031318
:102A7600E40083160317480883160313E5000A16B5
:102A86008A1140230A168A118316031364088316D3
:102A96000317C60083160313650883160317C700BA
:102AA600B430F0004608F1004708F2000A168A150D
:102AB600A5230A168A1101300A168A1517230A1643
:102AC6008A11013083160317C9000030CA00B430DA
:102AD600F4000130F5000A168A1560240A168A11D8
:102AE600812D4A08003A0319792D5E2D4908003ACE
:102AF6000319312D013A0319382D5E2D831603175C
:102B06005308F4000030031D8030F5000A168A15BC
:102B160060240A168A111F2DCB3083160313E40096
:102B260083160317480883160313E5000A168A114D
:102B360040230A168A1183160313640883160317A3
:102B4600C60083160313650883160317C700B4303F
:102B5600F0004608F1004708F2000A168A15A52378
:102B66000A168A110230F3000030F4000A168A159C
:102B760067230A168A11B430F4000130F5000A16EC
:102B86008A1560240A168A110130F3000030F40019
:102B96000A168A1567230A168A1102308316031746
:102BA600C9000030CA001F2D530884000A168A1572
:102BB6000A200A168A11433A0319E22DE32DEA2D5B
:102BC600023049064A04031DE92DEA2D042EC901E7
:102BD600CA0101300A168A1517230A168A112B30E4
:102BE60083160317C800CB30F0000030F100F20066
:102BF6000230F3000030F4000A168A154E230A1636
:102C06008A1183160317530884000A168A150A20A8
:102C16000A168A11433A0319112E122E1F2D49083E
:102C260083160313E80001300310E80DFF3E031D71
:102C3600172E0310680DCB3E83120313C9008316AB
:102C46000317530883120313CA000A168A15AE2502
:102C56000A168A111F2D530884000A168A150A209F
:102C66000A168A112B3A0319282D063A0319282D1C
:102C7600023A0319282D123A03198F2D453A0319E2
:102C8600282DD72D0A128A1100280D30F70008309A
:102C9600F6009D30F5000530F400F40B502EF50BD0
:102CA600502EF60B502E572E831203130816081CAF
:102CB6005D2E5E2E702E4130F500EE30F400F40BE2
:102CC600622EF50B622E000083120313081C6C2E75
:102CD6006D2EBB2E2030F700BB2E881C732E742E53
:102CE600862E4130F500EE30F400F40B782EF50B0D
:102CF600782E000083120313881C822E832EBB2E8F
:102D06001A30F700BB2E081D892E8A2E9C2E4130C4
:102D1600F500EE30F400F40B8E2EF50B8E2E00002F
:102D260083120313081D982E992EBB2E1430F7001C
:102D3600BB2E881D9F2EA02EB22E4130F500EE3000
:102D4600F400F40BA42EF50BA42E0000831203133B
:102D5600881DAE2EAF2EBB2E2830F700BB2E41307D
:102D6600F500EE30F400F40BB62EF50BB62E00008F
:102D76008312031308128816081CC22EC32ED52EE2
:102D86004130F500EE30F400F40BC72EF50BC72EDC
:102D9600000083120313081CD12ED22E202F2230BE
:102DA600F700202F881CD82ED92EEB2E4130F500A7
:102DB600EE30F400F40BDD2EF50BDD2E0000831251
:102DC6000313881CE72EE82E202F1C30F700202F37
:102DD600081DEE2EEF2E012F4130F500EE30F400E7
:102DE600F40BF32EF50BF32E000083120313081DCC
:102DF600FD2EFE2E202F1630F700202F881D042FC3
:102E0600052F172F4130F500EE30F400F40B092F93
:102E1600F50B092F000083120313881D132F142F9F
:102E2600202F1230F700202F4130F500EE30F4004D
:102E3600F40B1B2FF50B1B2F0000831203138812B4
:102E46000817081C272F282F3A2F4130F500EE309F
:102E5600F400F40B2C2FF50B2C2F00008312031318
:102E6600081C362F372F852F2430F700852F881C16
:102E76003D2F3E2F502F4130F500EE30F400F40B7D
:102E8600422FF50B422F000083120313881C4C2F90
:102E96004D2F852F1E30F700852F081D532F542FD9
:102EA600662F4130F500EE30F400F40B582FF50B89
:102EB600582F000083120313081D622F632F852FDE
:102EC6001830F700852F881D692F6A2F7C2F413017
:102ED600F500EE30F400F40B6E2FF50B6E2F0000AC
:102EE60083120313881D782F792F852F2630F7003C
:102EF600852F4130F500EE30F400F40B802FF50BF2
:102F0600802F00008312031308138817081C8C2FC8
:102F16008D2F9F2F4130F500EE30F400F40B912FEA
:102F2600F50B912F000083120313081C9B2F9C2F77
:102F3600EA2F1030F700EA2F881CA22FA32FB52FF7
:102F46004130F500EE30F400F40BA72FF50BA72F58
:102F5600000083120313881CB12FB22FEA2F2A30E8
:102F6600F700EA2F081DB82FB92FCB2F4130F500F7
:102F7600EE30F400F40BBD2FF50BBD2F00008312CD
:102F86000313081DC72FC82FEA2F0E30F700EA2FAC
:102F9600881DCE2FCF2FE12F4130F500EE30F40003
:102FA600F40BD32FF50BD32F000083120313881DC8
:102FB600DD2FDE2FEA2F0C30F700EA2F4130F50027
:102FC600EE30F400F40BE52FF50BE52F000083122D
:102FD600031388137708F0000030031D8030F100DA
:102FE6000A168A15EA230A168A117008710403194B
:102FF600FD2FFE2F572E77080800FF1B0A28831384
:103006007F1883170008840A0319FF0A080018307E
:103016008A000408840A8207003469346E346634F0
:1030260000346E3461346E34003425346634003432
:103036002B3400342D3400342F3400343034003433
:103046003134003432340034333400343434003410
:1030560035340034363400343734003438340034F0
:10306600393400343D340034433400347834003489
:1036080064008001840A0406031900340406052BAB
:1036180073087204710470040319132B142B162BEE
:103628008030F3060800F200831203130710871096
:10363800720886000A168A1539230A168A150800A0
:10364800F31B272B282B292B382B7009F000710925
:10365800F1007209F2007309F300F00A0319F10A84
:103668000319F20A0319F30A080083120313071552
:103678001030F000F00B3E2B0000831203130711EB
:103688004130F100EE30F000F00B482BF10B482BE5
:10369800000008007008F500582B750884007108B0
:1036A800831780000130F5070130F3020030031C56
:1036B800F403F402730A031D652B740A031D652BBA
:1036C800662B512B0800762B80300A168A15172393
:1036D8000A168A15832BC0300A168A1517230A166C
:1036E8008A15832B7408003A03197B2B832B7308E4
:1036F800013A0319682B033A03196F2B832B08002F
:103708007108F6007008F500962B76088400831778
:103718000008F4000130F60775088400740880007A
:103728000130F5070130F2020030031CF303F30205
:10373800720A031DA32B730A031DA32BA42B892B29
:1037480008007008F5007208F4007108F300F10A27
:103758000319F20A740883120313FF007308840024
:103768000A168A1500200A168A15FF007508F50A38
:1037780084007F08831780000008031DC42BC52B15
:10378800A72B0800803083120313CC065008B8001A
:103798004F08B7004E08B6004D08B5004C08BC00ED
:1037A8004B08BB004A08BA004908B9000A128A1532
:1037B8006E220A168A15831203133808CC003708BC
:1037C800CB003608CA003508C90008007008F200A6
:1037D8007108F300F52B0130F0070318F10A0030E7
:1037E800F107710883120313FF00700884000A169A
:1037F8008A1500200A168A15003A031D042C052C88
:10380800EF2B72087002F0007308031C730A710230
:10381800F1000800F800F401F5017008F200F30166
:103828007208F6007308F700781C1B2C1C2C222C3D
:103838007608F4070318F50A7708F507013003102E
:10384800F60DF70DFF3E031D232C0310F80C780826
:10385800031D2F2C302C182C7508F1007408F0006B
:10386800080083120313A601A701522C2508A30000
:10387800A4012308F0002408F1002108F20022081E
:10388800F3000A168A15B2260A168A150130831221
:103898000313A6070318A70A0030A707260820075E
:1038A800A3002308840083170008A5002508031D2A
:1038B8005E2C5F2C3A2C0800831203130714871020
:1038C8007408F0007508F1000A168A15EA230A162A
:1038D8008A157108F7007008F600F801F9018E2CB6
:1038E80078087407840075080318750A831203138F
:1038F800FF000A168A1500200A168A1586000A167D
:103908008A1539230A168A150130F8070318F90AA7
:103918000030F90777087902031D942C760878029D
:10392800031C972C982C742C080000307005F800A4
:1039380000307105F90080307205FA007F30730598
:10394800FB007B087A0479047804031DAC2CAD2CA9
:10395800B52C0030F3000030F2000030F1000030E8
:10396800F00000307405F80000307505F90080306B
:103978007605FA007F307705FB007B087A04790426
:103988007804031DC82CC92CD12C0030F700003056
:10399800F6000030F5000030F40077087306031DC8
:1039A800DF2C76087206031DDF2C75087106031DCF
:1039B800DF2C740870060319E22CE32CE52C0310A5
:1039C800E62C0314080083120313AC1FEC2CED2C17
:1039D800EF2CAB01AC01AD01AE01092D2030F00098
:1039E8000030F100831203132808F2002908F300BD
:1039F8000A168A15B2260A168A150130831203138D
:103A0800AD070318AE0A0030AE072E08803AFD0055
:103A18002C08803A7D02031D132D2B082D02031C50
:103A2800162D172DF22C831203132A08A00028083C
:103A3800A1002908A2000A168A1535240A168A1533
:103A4800831203132A08F0000130F1000A168A15C0
:103A5800EA230A168A15831203132B087007A80095
:103A68002C0803182C0A7107A90008000310720D0E
:103A7800730DF9007908031D422D432D4C2D00309C
:103A8800F3000030F2000030F1000030F000AD2DFE
:103A98007008F4007108F5007208F6007308F70062
:103AA8001F300310F70CF60CF50CF40CFF3E031D49
:103AB800552D7408F800F217FF30F005FF30F105B6
:103AC800FF30F2050030F3059630F902F91F6D2D2D
:103AD8006E2D862D7908803A973E0318742D752D22
:103AE800762D432D01300310F30CF20CF10CF00C81
:103AF800FF3E031D772D0130F907031D842D852D09
:103B0800762D9D2D20307902031C8B2D8C2D982D20
:103B1800432D0130F4000310F00DF10DF20DF30DFB
:103B2800F40B8F2D0130F9027908031D9C2D9D2D72
:103B38008D2D78080319A12DA22DAD2DF009F109BD
:103B4800F209F309F00A0319F10A0319F20A031931
:103B5800F30A0800831203134A08F4000030031D17
:103B68008030F5000A168A1560240A168A15831211
:103B780003134A0884000A168A150A200A168A15A9
:103B8800D03EF000FF3003180030F100F201F301DD
:103B980000300A168A154C270A168A1573088312EC
:103BA8000313B8007208B7007108B6007008B500B2
:103BB8004130A3002030A2000030A1000030A00056
:103BC8004908840083170008A400840A0008A50097
:103BD800840A0008A600840A0008A7000A128A15A9
:103BE800BE240A168A15831203132308BC00220870
:103BF800BB002108BA002008B9000A128A156E22F3
:103C08000A168A1583120313490884003508831796
:103C18008000840A36088000840A37088000840AF5
:103C280038088000083083120313CD009D30CC0083
:103C38000530CB00CB0B1E2ECC0B1E2ECD0B1E2E13
:103C48000800831603171F0883120313A5008316A1
:103C580003171E0883120313A400831603171D08F5
:103C680083120313A300831603171C08831203137C
:103C7800A2007308A5007208A4007108A3007008C8
:103C8800A2002208F4002308F5002408F6002508FD
:103C9800F70017300310F70CF60CF50CF40CFF3E88
:103CA800031D4E2EFF307405A00000307505A100DD
:103CB80020082104031D612E622E852E2208F4009F
:103CC8002308F5002408F6002508F7000130031042
:103CD800F40DF50DF60DF70DFF3E031D6B2E77085D
:103CE800760475047404031D7A2E7B2E802E023010
:103CF800F0000030F100B12E0330F0000030F10088
:103D0800B12E200A2104031D8A2E8B2EAD2E2208E7
:103D1800F4002308F5002408F6002508F700093008
:103D28000310F40DF50DF60DF70DFF3E031D942E4F
:103D380077087604750474040319A32EA52E0130A0
:103D4800A62E0030F800F9017808F0007908F10093
:103D5800B12E0430F0000030F1000800720873043E
:103D68000319B72EB82EBE2E72087304031DBD2E7C
:103D7800BE2EC52E70080A128A1104200A168A154A
:103D88004B2F7208093EF40073080318013E003EE9
:103D9800F500740884008317751C83130008F60067
:103DA800840A0008F700760877040319DC2EDD2E54
:103DB8000F2F7208093EF40073080318013E003EF5
:103DC800F500740884008317751C83130008F60037
:103DD800840A0008F7007208023EF8007308031806
:103DE800013E003EF900780884008317791C83138C
:103DF8000008FA00840A0008FB007B08803AFC00EF
:103E08007708803A7C02031D0B2F76087A02031884
:103E18000E2F0F2F4B2F720884008317731C8313E8
:103E28000008F400840A0008F5007208023EF60053
:103E380073080318013E003EF700760884008317D4
:103E4800771C831300087407F9007508F800031835
:103E5800F80A801F302FF8037808FA0079088400E0
:103E680083177A1C8313700880007208023EF400DE
:103E780073080318013E003EF50074088400831798
:103E8800751C831301308007840A0318800A080010
:103E9800F80078080319512F522F662FF31F552F5A
:103EA800562F662F7009FA007109FB007209FC0091
:103EB8007309FD00FA0A0319FB0A0319FC0A03191E
:103EC800FD0A6E2F7308FD007208FC007108FB00E4
:103ED8007008FA007308720471047004031D752FCA
:103EE800762F7F2F0030F3000030F2000030F10011
:103EF8000030F000FF2F9630F9008D2F0130F907C0
:103F080001300310FD0CFC0CFB0CFA0CFF3E031DEA
:103F1800852FFE307D05031D922F932F822FAD2F05
:103F28000130F9070130FA07003003180130FB07A8
:103F3800003003180130FC07003003180130FD077A
:103F480001300310FD0CFC0CFB0CFA0CFF3E031DAA
:103F5800A52FFF307D05031DB22FB32F942FBF2F40
:103F68000130F9020130F4000310FA0DFB0DFC0DCD
:103F7800FD0DF40BB82FFC1BC22FC32FC92F023025
:103F880079020318C82FC92FB42F7918CC2FCD2F39
:103F9800D52FFF30FA05FF30FB057F30FC05FF30D9
:103FA800FD050310F90C7908F400F501F601F70195
:103FB80018300310F40DF50DF60DF70DFF3E031D37
:103FC800DD2F7408FA047508FB047608FC047708EA
:103FD800FD0478080319F12FF22FF72FF31FF52F9F
:103FE800F62FF72FFD177D08F3007C08F2007B08F9
:083FF800F1007A08F000080056
:00000001FF
