:060000000A128A11FC2F18
:100EEA00F2008312031307108710720886000A1291
:100EFA008A1182270A128A1108008312031307151E
:100F0A001030F000F00B872F000083120313071133
:100F1A004130F100EE30F000F00B912FF10B912FE0
:100F2A00000008008316031308148814081588158E
:100F3A0008128812081388138601071107108710F0
:100F4A00F601F7010330F5008A30F4005530F3005A
:100F5A00F30BAD2FF40BAD2FF50BAD2FB42F3030B3
:100F6A000A128A1175270A128A110130F607031824
:100F7A00F70A0030F7077708803AFF0080307F02CF
:100F8A00031DC92F03307602031CCC2FCD2FA72FA8
:100F9A000330F5008A30F4005530F300F30BD32FF9
:100FAA00F40BD32FF50BD32FDA2F38300A128A110C
:100FBA0075270A128A1108300A128A1175270A122D
:100FCA008A1101300A128A1175270A128A1106300B
:100FDA000A128A1175270A128A110F300A128A1107
:100FEA0075270A128A11F82F0A128A11002883011A
:060FFA000A128A11972F74
:00000001FF
