:100000000A128A11FC2F00308A000408840A820731
:0E0010000034313400343434003437340034DA
:100C9000F2008312031307108710720886000A12ED
:100CA0008A1155260A128A110800831203130715A8
:100CB0001030F000F00B5A2E0000831203130711BE
:100CC0004130F100EE30F000F00B642EF10B642E99
:100CD000000008007008F2006F2E0130F007700865
:100CE00084000A128A1103200A128A11003A031D95
:100CF0007A2E7B2E6D2E72087002F000F101F01B2F
:100D0000F1030800912E80300A128A1148260A1237
:100D10008A119E2EC0300A128A1148260A128A11A0
:100D20009E2E7408003A0319962E9E2E7308013ADF
:100D30000319832E033A03198A2E9E2E080083126C
:100D40000313071487107308F0000A128A116A2629
:100D50000A128A117108F5007008F400F601F70113
:100D6000C72E7608730784000A128A1103200A121C
:100D70008A118312031386000A128A1155260A1259
:100D80008A110130F6070318F70A0030F7077508D3
:100D90007702031DCD2E74087602031CD02ED12EAF
:100DA000B12E08008316031308148814081588153B
:100DB000081288120813881383120313081288126A
:100DC0000813881383160313860107110710871071
:100DD000FC01FD010330FA008A30F9005530F800BB
:100DE000F80BF02EF90BF02EFA0BF02EF72E303018
:100DF0000A128A1148260A128A110130FC070318C8
:100E0000FD0A0030FD077D08803AFF0080307F0238
:100E1000031D0C2F03307C02031C0F2F102FEA2E12
:100E20000330FA008A30F9005530F800F80B162F1D
:100E3000F90B162FFA0B162F1D2F38300A128A11B4
:100E400048260A128A1108300A128A1148260A1204
:100E50008A1101300A128A1148260A128A110630B4
:100E60000A128A1148260A128A110F300A128A11B0
:100E700048260A128A110130F3000030F4000A12E9
:100E80008A1182260A128A11FB01F32F831203139F
:100E90000816081C4C2F4D2F6A2F4130F900EE30F8
:100EA000F800F80B512FF90B512F00008312031398
:100EB000081C5B2F5C2FCB2F0530F3000A128A1120
:100EC0009F260A128A11831203130818682F692FAC
:100ED000632FCB2F881C6D2F6E2F8B2F4130F90085
:100EE000EE30F800F80B722FF90B722F000083120E
:100EF0000313881C7C2F7D2FCB2F0330F3000A12A5
:100F00008A119F260A128A11831203138818892FC7
:100F10008A2F842FCB2F081D8E2F8F2FAC2F41307F
:100F2000F900EE30F800F80B932FF90B932F000027
:100F300083120313081D9D2F9E2FCB2F0130F3002A
:100F40000A128A119F260A128A11831203130819A2
:100F5000AA2FAB2FA52FCB2F881DAF2FB02FCB2FB4
:100F60004130F900EE30F800F80BB42FF90BB42F34
:100F7000000083120313881DBE2FBF2FCB2F01301B
:100F80000A128A1148260A128A1183120313881939
:100F9000CA2FCB2FC52F081288160430F9003D3018
:100FA000F800F80BD12FF90BD12FD62F8312031392
:100FB000881208170430F9003D30F800F80BDE2FD6
:100FC000F90BDE2FE32F8312031308138817043065
:100FD000F9003D30F800F80BEB2FF90BEB2FF02F59
:100FE0008312031388137B080319F72FF82F462F5A
:100FF0003B2F0A128A11002883010A128A11D22E6D
:00000001FF
