:100000000A128A11F32FFF1B0D2883137F18831701
:100010000008840A0319FF0A080000308A00040857
:10002000840A8207003430342B3400342D340034F9
:100030002F3400343034003431340034323400345E
:10004000333400343434003435340034363400343E
:100050003734003438340034393400343D3400341B
:0800600043340034783400340D
:1008320064008001840A04060319003404061A2C99
:10084200F2008312031307108710720886000A123F
:100852008A112E240A128A11080083120313071523
:100862001030F000F00B332C000083120313071139
:100872004130F100EE30F000F00B3D2CF10B3D2C3D
:10088200000008007008F5004D2C750884007108FE
:10089200831380000130F5070130F3020030031C9E
:1008A200F403F402730A031D5A2C740A031D5A2C12
:1008B2005B2C462C08006B2C80300A128A112124F2
:1008C2000A128A11782CC0300A128A1121240A12C3
:1008D2008A11782C7408003A0319702C782C73084A
:1008E200013A03195D2C033A0319642C782C080091
:1008F2007008F5007208F4007108F300F10A031998
:10090200F20A740883120313FF00730884000A12A8
:100912008A1103200A128A11FF007508F50A840061
:100922007F08831380000008031D982C992C7B2CD0
:1009320008007008F2007108F300A52C0130F007DE
:100942000318F10A0030F107710883120313FF0044
:10095200700884000A128A1103200A128A11003ACE
:10096200031DB42CB52C9F2C72087002F000730882
:10097200031C730A7102F10008007B08F4000030C6
:10098200031D8030F5000A128A11E5240A128A1129
:100992007A08F0007B08F1000030031D8030F2007D
:1009A2000A128A111E250A128A11083083120313B1
:1009B200A2009D30A1000530A000A00BDE2CA10BEF
:1009C200DE2CA20BDE2C08008312031307148710FF
:1009D2007408F0007508F1000A128A119A240A12AA
:1009E2008A117108F7007008F600F801F901132D59
:1009F20078087407840075080318750A83120313B4
:100A0200FF000A128A1103200A128A1186000A12B2
:100A12008A112E240A128A110130F8070318F90AE2
:100A22000030F90777087902031D192D760878023C
:100A3200031C1C2D1D2DF92C0800F401F501272D96
:100A42000130F4070318F50A0030F507740870073F
:100A5200F3007308840083130008031D312D322D27
:100A6200212D3F2D0130F4070318F50A0030F50758
:100A72000130F1070318F20A0030F20772088312FC
:100A82000313FF00710884000A128A1103200A125C
:100A92008A11FF0074087007F300730884007F084E
:100AA200831380000008031D572D582D332D080095
:100AB200831603130814881408158815081288125F
:100AC2000813881383120313081288120813881359
:100AD200831603138601071107108710831203136D
:100AE200D601D701033083120313A5008A30A40074
:100AF2005530A300A30B7B2DA40B7B2DA50B7B2DC7
:100B020030300A128A1121240A128A11013083120A
:100B12000313D6070318D70A0030D7075708803ABD
:100B2200FF0080307F02031D982D03305602031C04
:100B32009B2D9C2D732D033083120313A5008A3045
:100B4200A4005530A300A30BA42DA40BA42DA50B28
:100B5200A42D38300A128A1121240A128A1108306F
:100B62000A128A1121240A128A1101300A128A11E8
:100B720021240A128A1106300A128A1121240A1229
:100B82008A110F300A128A1121240A128A110130A5
:100B9200F3000030F4000A128A115C240A128A114E
:100BA200463084001030FF0083138001840AFF0B5B
:100BB200D52D0A128A115E260A128A118312031394
:100BC200D8004D2E3630F0000130F1008030F200B6
:100BD2000A128A1179240A128A113630F00046303C
:100BE200F1000030F2000A128A111E250A128A113F
:100BF2002630F0003630F1000030F2000A128A117D
:100C020079240A128A110230F3000030F4000A1229
:100C12008A115C240A128A112630F4000030F50091
:100C22000A128A11E5240A128A110130F3000030F7
:100C3200F4000A128A115C240A128A114630F0006A
:100C42000030F100F2001030F3000030F4000A121C
:100C52008A1143240A128A11DA2D01300A128A11EA
:100C620021240A128A114630F0000030F100F2000D
:100C72001030F3000030F4000A128A1143240A12E1
:100C82008A11DA2D4630FA005808FB000A128A113E
:100C9200BE240A128A11DA2D580884000A128A1117
:100CA2000D200A128A113D3A0319E32D7E3A0319E7
:100CB2002E2E432E0A128A1100280830F2009D308F
:100CC200F1000530F000F00B642EF10B642EF20BF4
:100CD200642E6B2E831203130816081C712E722EBB
:100CE200832E4130F100EE30F000F00B762EF10B46
:100CF200762E000083120313081C802E812ECB2E29
:100D02001630F22F881C862E872E982E4130F10045
:100D1200EE30F000F00B8B2EF10B8B2E00008312C5
:100D22000313881C952E962ECB2E1030F22F081D01
:100D32009B2E9C2EAD2E4130F100EE30F000F00BD8
:100D4200A02EF10BA02E000083120313081DAA2E61
:100D5200AB2ECB2E0A30F22F881DB02EB12EC22E12
:100D62004130F100EE30F000F00BB52EF10BB52E54
:100D7200000083120313881DBF2EC02ECB2E1E30FF
:100D8200F22F4130F100EE30F000F00BC62EF10BE5
:100D9200C62E00008312031308128816081CD22ED6
:100DA200D32EE42E4130F100EE30F000F00BD72EBE
:100DB200F10BD72E000083120313081CE12EE22E42
:100DC2002C2F1830F22F881CE72EE82EF92E4130F6
:100DD200F100EE30F000F00BEC2EF10BEC2E0000E7
:100DE20083120313881CF62EF72E2C2F1230F22FAB
:100DF200081DFC2EFD2E0E2F4130F100EE30F000CA
:100E0200F00B012FF10B012F000083120313081DB9
:100E12000B2F0C2F2C2F0C30F22F881D112F122F7D
:100E2200232F4130F100EE30F000F00B162FF10BC2
:100E3200162F000083120313881D202F212F2C2F21
:100E42000830F22F4130F100EE30F000F00B272F86
:100E5200F10B272F00008312031388120817081CB6
:100E6200332F342F452F4130F100EE30F000F00BDC
:100E7200382FF10B382F000083120313081C422F66
:100E8200432F8D2F1A30F22F881C482F492F5A2FAB
:100E92004130F100EE30F000F00B4D2FF10B4D2FF1
:100EA200000083120313881C572F582F8D2F1430E4
:100EB200F22F081D5D2F5E2F6F2F4130F100EE30B3
:100EC200F000F00B622FF10B622F0000831203136C
:100ED200081D6C2F6D2F8D2F0E30F22F881D722F53
:100EE200732F842F4130F100EE30F000F00B772F9A
:100EF200F10B772F000083120313881D812F822F9D
:100F02008D2F1C30F22F4130F100EE30F000F00B4B
:100F1200882FF10B882F0000831203130813881700
:100F2200081C942F952FA62F4130F100EE30F000CF
:100F3200F00B992FF10B992F000083120313081C59
:100F4200A32FA42FEE2F0630F22F881CA92FAA2F31
:100F5200BB2F4130F100EE30F000F00BAE2FF10B61
:100F6200AE2F000083120313881CB82FB92FEE2F67
:100F72002030F22F081DBE2FBF2FD02F4130F1009D
:100F8200EE30F000F00BC32FF10BC32F00008312E1
:100F92000313081DCD2FCE2FEE2F0430F22F881D04
:100FA200D32FD42FE52F4130F100EE30F000F00BBB
:100FB200D82FF10BD82F000083120313881DE22FC4
:100FC200E32FEE2F0230F22F4130F100EE30F0002D
:100FD200F00BE92FF10BE92F0000831203138813A2
:100FE2006B2E080083135930840069300A128A116B
:0E0FF20019240A128A1183010A128A11592D3C
:00000001FF
