:100000000A128A11E62FFF1B0D2883137F1883170E
:100010000008840A0319FF0A080000308A00040857
:10002000840A820700342B3400342D3400342F34FA
:10003000003430340034313400343234003433345A
:10004000003434340034353400343634003437343A
:0E00500000343834003439340034783400344D
:1006D80064008001840A04060319003404066D2BA3
:1006E800F2008312031307108710720886000A129B
:1006F8008A11B9230A128A11080030342B340034C5
:100708000034003400340034003400340034003441
:1007180000340034003400340034003400347008ED
:10072800F2007108F10A840083130008FF007208C0
:10073800F20A84007F0880000008031DA42BA52B63
:10074800952B08007E088A007F0882000A128A1109
:10075800A6230A128A118000840A04087D06031958
:100768000034FF0A0319FE0AAA2B83120313071584
:100778001030F000F00BBE2B00008312031307119A
:100788004130F100EE30F000F00BC82BF10BC82B14
:10079800000008007008F500D82B7508840071085F
:1007A800831380000130F5070130F3020030031C89
:1007B800F403F402730A031DE52B740A031DE52BE9
:1007C800E62BD12B0800F62B80300A128A117423ED
:1007D8000A128A11032CC0300A128A1174230A12D1
:1007E8008A11032C7408003A0319FB2B032C730895
:1007F800013A0319E82B033A0319EF2B032C0800DD
:100808007008F2007108F3000F2C0130F00703188C
:10081800F10A0030F107710883120313FF00700812
:1008280084000A128A1103200A128A11003A031D51
:100838001E2C1F2C092C72087002F0007308031C70
:10084800730A7102F10008007B08F4000030031DF0
:100858008030F5000A128A114F240A128A117A0888
:10086800F0007B08F1000030031D8030F2000A120E
:100878008A1188240A128A11083083120313A200ED
:100888009D30A1000530A000A00B482CA10B482CDE
:10089800A20B482C0800831203130714871074084E
:1008A800F0007508F1000A128A1104240A128A114C
:1008B8007108F7007008F600F801F9017D2C780836
:1008C8007407840075080318750A83120313FF0060
:1008D8000A128A1103200A128A1186000A128A1142
:1008E800B9230A128A110130F8070318F90A0030EF
:1008F800F90777087902031D832C76087802031C10
:10090800862C872C632C0800F401F501912C01300A
:10091800F4070318F50A0030F50774087007F300A8
:100928007308840083130008031D9B2C9C2C8B2CBC
:10093800A92C0130F4070318F50A0030F507013037
:10094800F1070318F20A0030F20772088312031342
:10095800FF00710884000A128A1103200A128A1102
:10096800FF0074087007F300730884007F0883137E
:1009780080000008031DC12CC22C9D2C0800831682
:100988000313081488140815881508128812081308
:100998008813831203130812881208138813831606
:1009A8000313860107110710871083120313D90157
:1009B800DA01033083120313A5008A30A4005530EE
:1009C800A300A30BE52CA40BE52CA50BE52C3030DC
:1009D8000A128A1174230A128A110130831203132E
:1009E800D9070318DA0A0030DA075A08803AFF00F4
:1009F80080307F02031D022D03305902031C052D90
:100A0800062DDD2C033083120313A5008A30A400C1
:100A18005530A300A30B0E2DA40B0E2DA50B0E2DE8
:100A280038300A128A1174230A128A1108300A12FD
:100A38008A1174230A128A1101300A128A11742346
:100A48000A128A1106300A128A1174230A128A11AC
:100A58000F300A128A1174230A128A110130F30026
:100A68000030F4000A128A11E7230A128A11493069
:100A780084001030FF0083138001840AFF0B3F2D90
:100A8800831203130816081C4A2D4B2D662D41307E
:100A980083120313A400ED30A300A30B512DA40B64
:100AA800512D562D83120313081C5B2D5C2DE72D49
:100AB8004930FA001530FB000A128A1128240A125C
:100AC8008A11E72D881C692D6A2D852D41308312E6
:100AD8000313A400ED30A300A30B702DA40B702DFD
:100AE800752D83120313881C7A2D7B2DE72D493031
:100AF800FA000F30FB000A128A1128240A128A1100
:100B0800E72D081D882D892DA42D4130831203134C
:100B1800A400ED30A300A30B8F2DA40B8F2D942DD3
:100B280083120313081D992D9A2DE72D4930FA00D9
:100B38000930FB000A128A1128240A128A11E72DAB
:100B4800881DA72DA82DDC2D413083120313A40086
:100B5800ED30A300A30BAE2DA40BAE2DB32D831245
:100B68000313881DB82DB92DE72D01300A128A11FB
:100B780074230A128A114930F0000030F100F200A3
:100B88001030F3000030F4000A128A11CE230A1242
:100B98008A11083083120313A5009D30A400053084
:100BA800A300A30BD52DA40BD52DA50BD52DE72D73
:100BB800413083120313A400ED30A300A30BE22DF0
:100BC800A40BE22DE72D8312031308128816081CC4
:100BD800EE2DEF2D0A2E413083120313A400ED30C1
:100BE800A300A30BF52DA40BF52DFA2D83120313E7
:100BF800081CFF2D002E722E4930FA001730FB001A
:100C08000A128A1128240A128A11722E881C0D2EA3
:100C18000E2E292E413083120313A400ED30A300B9
:100C2800A30B142EA40B142E192E83120313881C45
:100C38001E2E1F2E722E4930FA001130FB000A12A8
:100C48008A1128240A128A11722E081D2C2E2D2E84
:100C5800482E413083120313A400ED30A300A30BE8
:100C6800332EA40B332E382E83120313081D3D2E6A
:100C78003E2E722E4930FA000B30FB000A128A1100
:100C880028240A128A11722E881D4B2E4C2E672E8C
:100C9800413083120313A400ED30A300A30B522E9E
:100CA800A40B522E572E83120313881D5C2E5D2E23
:100CB800722E4930FA000730FB000A128A112824E4
:100CC8000A128A11722E413083120313A400ED30E8
:100CD800A300A30B6D2EA40B6D2E722E831203138B
:100CE80088120817081C792E7A2E952E4130831207
:100CF8000313A400ED30A300A30B802EA40B802EB9
:100D0800852E83120313081C8A2E8B2E542F4930EC
:100D1800FA001930FB000A128A1128240A128A11D3
:100D2800542F881C982E992EB42E41308312031309
:100D3800A400ED30A300A30B9F2EA40B9F2EA42E7E
:100D480083120313881CA92EAA2E542F4930FA00A7
:100D58001330FB000A128A1128240A128A11542F10
:100D6800081DB72EB82ED32E413083120313A400CA
:100D7800ED30A300A30BBE2EA40BBE2EC32E8312F0
:100D88000313081DC82EC92E542F4930FA000D3000
:100D9800FB000A128A1128240A128A11542F881D6E
:100DA800D62ED72E492F413083120313A400ED30DD
:100DB800A300A30BDD2EA40BDD2EE22E831203135A
:100DC800881DE72EE82E542F5B3084002730A300BF
:100DD8001230A40083130008A500040AA600230803
:100DE800840025088000040AA30026088400A40BB8
:100DF800EE2E2730F0004930F1000030F2000A12E0
:100E08008A1188240A128A113930F0002730F1003B
:100E18000A128A1193230A128A110230F300003051
:100E2800F4000A128A11E7230A128A113930F400F1
:100E38000030F5000A128A114F240A128A11013073
:100E4800F3000030F4000A128A11E7230A128A110B
:100E58004930F0000030F100F2001030F3000030AB
:100E6800F4000A128A11CE230A128A11083083125A
:100E78000313A5009D30A4000530A300A30B422F47
:100E8800A40B422FA50B422F542F4130831203137A
:100E9800A400ED30A300A30B4F2FA40B4F2F542F0A
:100EA8008312031308138817081C5B2F5C2F772FF6
:100EB800413083120313A400ED30A300A30B622F6B
:100EC800A40B622F672F83120313081C6C2F6D2F3E
:100ED800DF2F4930FA000530FB000A128A11282456
:100EE8000A128A11DF2F881C7A2F7B2F962F413008
:100EF80083120313A400ED30A300A30B812FA40BCE
:100F0800812F862F83120313881C8B2F8C2FDF2FA2
:100F18004930FA001B30FB000A128A1128240A12F1
:100F28008A11DF2F081D992F9A2FB52F4130831270
:100F38000313A400ED30A300A30BA02FA40BA02F34
:100F4800A52F83120313081DAA2FAB2FDF2F4930BB
:100F5800FA000330FB000A128A1128240A128A11A7
:100F6800DF2F881DB82FB92FD42F413083120313D8
:100F7800A400ED30A300A30BBF2FA40BBF2FC42FD9
:100F880083120313881DC92FCA2FDF2F4930FA0097
:100F98000130FB000A128A1128240A128A11DF2F55
:100FA800413083120313A400ED30A300A30BDA2F02
:100FB800A40BDA2FDF2F831203138813442D0A1290
:100FC8008A11002883136D30FD000330FE00813044
:100FD800FF005B3084000A128A11AA230A128A11C0
:100FE800A0308400B0300A128A116C230A128A11C8
:080FF80083010A128A11C32CC7
:00000001FF
