:060000000A128A11DF2F35
:10000A0008000030831203133505BD0000303605A1
:10001A00BE0080303705BF007F303805C000400879
:10002A003F043E043D04031D1B281C2824280030DD
:10003A00B8000030B7000030B6000030B50000301C
:10004A003905BD0000303A05BE0080303B05BF00CF
:10005A007F303C05C00040083F043E043D04031DB8
:10006A003728382840280030BC000030BB00003058
:10007A00BA000030B900B81F432844286828003065
:10008A00BD000030BE000030BF008030C00035081F
:10009A00BD023608031C360F53285428BE023708FF
:1000AA00031C370F59285A28BF023808031C380F77
:1000BA005F286028C0024008B8003F08B7003E0821
:1000CA00B6003D08B500BC1F6B286C28902800308C
:1000DA00BD000030BE000030BF008030C0003908CB
:1000EA00BD023A08031C3A0F7B287C28BE023B0853
:1000FA00031C3B0F81288228BF023C08031C3C0FCB
:10010A0087288828C0024008BC003F08BB003E0878
:10011A00BA003D08B9008030B8068030BC063C08F9
:10012A003802031DA2283B083702031DA2283A08F9
:10013A003602031DA228390835020318A528A62865
:10014A00A8280310A928031408003F3083160313B4
:10015A00CB008030CA000030C9000030C800AF01AF
:10016A00B0014708F3004608F2004508F1004408C8
:10017A00F0000030F7000030F6000030F5000030E3
:10018A00F4000A128A1521200A128A110318CE28AD
:10019A00CF28E02AE028831603133608CB00350857
:1001AA00CA003408C9003308C8000130AF07031871
:1001BA00B00A0030B007413083120313A300203085
:1001CA00A2000030A1000030A000831603134B08E0
:1001DA0083120313A700831603134A088312031317
:1001EA00A60083160313490883120313A500831676
:1001FA000313480883120313A4000A168A11BE24A3
:10020A000A128A1183120313230883160313B600F2
:10021A0083120313220883160313B50083120313F0
:10022A00210883160313B4008312031320088316CC
:10023A000313B300440883120313D800831603136D
:10024A00450883120313D900831603134608831241
:10025A000313DA0083160313470883120313DB0020
:10026A0083160313330883120313D8028316031366
:10027A003408031C340F4229452983120313D90277
:10028A00831603133508031C350F4C294F29831293
:10029A000313DA02831603133608031C360F562992
:1002AA00592983120313DB028316031383120313E0
:1002BA005B08F3005A08F2005908F1005808F000E8
:1002CA000A168A15B9210A128A11F31B7C297308A6
:1002DA00031D7D297208031D7D297108031D7D29CF
:1002EA0002307002031D7929031C7C297D29D0283C
:1002FA0083160313360883120313B80083160313F5
:10030A00350883120313B7008316031334088312C4
:10031A000313B60083160313330883120313B500BD
:10032A0083160313470883120313BC0083160313AF
:10033A00460883120313BB0083160313450883126E
:10034A000313BA0083160313440883120313B90074
:10035A000A128A1106200A128A11031CB529B62923
:10036A00D02883160313440883120313D800831674
:10037A000313450883120313D9008316031346088F
:10038A0083120313DA008316031347088312031335
:10039A00DB0083160313480883120313D80283165B
:1003AA0003134908031C490FDB29DE2983120313AF
:1003BA00D902831603134A08031C4A0FE529E829C0
:1003CA0083120313DA02831603134B08031C4B0F21
:1003DA00EF29F22983120313DB0283160313831214
:1003EA0003135B08F3005A08F2005908F100580891
:1003FA00F0000A168A15B9210A128A11F31B162A65
:10040A007308031D152A7208031D152A7108031D96
:10041A00152A02307002031D122A0318152A162AF9
:10042A00A72A831603134B08C7004A08C6004908BF
:10043A00C5004808C400E02A4130F3002030F20029
:10044A000030F1000030F000831603134B08F70068
:10045A004A08F6004908F5004808F4000A128A1505
:10046A006F200A128A11730883160313CB007208CD
:10047A00CA007108C9007008C800FF30AF07031826
:10048A00B00AFF30B007440883120313D80083165A
:10049A000313450883120313D9008316031346086E
:1004AA0083120313DA008316031347088312031314
:1004BA00DB0083160313480883120313D80283163A
:1004CA0003134908031C490F6B2A6E2A831203136C
:1004DA00D902831603134A08031C4A0F752A782A7D
:1004EA0083120313DA02831603134B08031C4B0F00
:1004FA007F2A822A83120313DB02831603138312D1
:10050A0003135B08F3005A08F2005908F10058086F
:10051A00F0000A168A15B9210A128A11F31BA62AB3
:10052A007308031DA52A7208031DA52A7108031D55
:10053A00A52A02307002031DA22A0318A52AA62A98
:10054A00A72A162A83160313470883120313B8002F
:10055A0083160313460883120313B7008316031383
:10056A00450883120313B600831603134408831243
:10057A000313B500831603134B0883120313BC003D
:10058A00831603134A0883120313BB00831603134B
:10059A00490883120313BA00831603134808831207
:1005AA000313B9000A128A1106200A128A11031CBF
:1005BA00DF2AE02A212A831203135708831603131A
:1005CA00A9002908AA00EC1BEB2AEC2AF12A6C08DC
:1005DA00A3006B08A200F52A0630A2000030A3008F
:1005EA002308AE002208AD000130AD070318AE0A99
:1005FA000030AE0766302A06031D042B052B1F2B7D
:10060A00B01F082B092B132B3F30CB008030CA00B8
:10061A000030C9000030C800AF01B00167302906B8
:10062A000319182B192B1F2B2F08AD070318AE0A15
:10063A003008AE07B701B8014708BC004608BB003E
:10064A004508BA004408B9004B08B6004A08B50084
:10065A004908B4004808B3001A2C831603134B0840
:10066A00F3004A08F2004908F1004808F0003C0883
:10067A00F7003B08F6003A08F5003908F4000A12B8
:10068A008A156F200A128A11730883120313B000A5
:10069A007208AF007108AE007008AD000A168A151C
:1006AA00F1260A128A1183120313300883160313E0
:1006BA00C000831203132F0883160313BF0083128B
:1006CA0003132E0883160313BE00831203132D0887
:1006DA0083160313BD004008F3003F08F2003E08EA
:1006EA00F1003D08F0000A168A157C230A128A11C5
:1006FA00710883160313AC007008AB004B08831211
:10070A000313A700831603134A0883120313A600D0
:10071A0083160313490883120313A50083160313D0
:10072A00480883120313A400831603134008831294
:10073A000313A300831603133F0883120313A200B3
:10074A00831603133E0883120313A10083160313AF
:10075A003D0883120313A0000A168A11BE240A1246
:10076A008A11831203132308CC002208CB00210824
:10077A00CA002008C900831603133C088312031316
:10078A00D000831603133B0883120313CF0083168A
:10079A0003133A0883120313CE008316031339088E
:1007AA0083120313CD000A168A1564220A128A11CB
:1007BA00831203134C0883160313BC00831203131A
:1007CA004B0883160313BB00831203134A088316CC
:1007DA000313BA0083120313490883160313B900DB
:1007EA004130F3002030F2000030F1000030F00018
:1007FA004B08F7004A08F6004908F5004808F400D3
:10080A000A128A156F200A128A11730883160313B3
:10081A00CB007208CA007108C9007008C80001300C
:10082A00B7070318B80A0030B8073808803A8312A5
:10083A000313D800831603132E08803A8312031376
:10084A005802031D2C2C831603132D083702031C90
:10085A002F2C302C322B403083120313A300A030EC
:10086A00A2000030A1000030A000831603134B0839
:10087A0083120313A700831603134A088312031370
:10088A00A60083160313490883120313A5008316CF
:10089A000313480883120313A4000A168A11BE24FC
:1008AA000A128A1183120313230883160313C00042
:1008BA0083120313220883160313BF008312031340
:1008CA00210883160313BE0083120313200883161C
:1008DA000313BD003C0883120313B80083160313E5
:1008EA003B0883120313B700831603133A088312D3
:1008FA000313B60083160313390883120313B500D2
:10090A0083160313400883120313BC0083160313D0
:10091A003F0883120313BB00831603133E08831296
:10092A000313BA00831603133D0883120313B90095
:10093A000A128A1106200A128A110318A52CA62C5B
:10094A00B12C003083160313C0000030BF00003002
:10095A00BE000030BD00DA2C831603133C08F300F6
:10096A003B08F2003A08F1003908F0004008F700A5
:10097A003F08F6003E08F5003D08F4000A128A1501
:10098A0021200A128A11031CCB2CCC2CDA2C8316B8
:10099A0003132B18D12CD22CDA2C0030C0000030D3
:1009AA00BF000030BE000030BD00831603134008AC
:1009BA0083120313B800831603133F088312031329
:1009CA00B700831603133E0883120313B600831677
:1009DA0003133D0883120313B50083160313470854
:1009EA0083120313BC0083160313460883120313EE
:1009FA00BB0083160313450883120313BA00831638
:100A0A000313440883120313B9000A168A1110202B
:100A1A000A128A1183120313380883160313BC00BF
:100A2A0083120313370883160313BB0083120313BD
:100A3A00360883160313BA00831203133508831684
:100A4A000313B9003C0883120313B8008316031377
:100A5A003B0883120313B700831603133A08831261
:100A6A000313B60083160313390883120313B50060
:100A7A004130A3002030A2000030A1000030A000C5
:100A8A0083160313360883120313A700831603136E
:100A9A00350883120313A60083160313340883123E
:100AAA000313A50083160313330883120313A40048
:100ABA000A168A11BE240A128A1183120313230802
:100ACA00BC002208BB002108BA002008B9000A129B
:100ADA008A1106200A128A11031C742D752DC82D3D
:100AEA00013083160313AF070318B00A0030B007AA
:100AFA00413083120313A3002030A2000030A1006A
:100B0A000030A00083160313360883120313A700CC
:100B1A0083160313350883120313A60083160313DF
:100B2A00340883120313A5008316031333088312B0
:100B3A000313A4000A168A11BE240A128A11831208
:100B4A000313230883160313B60083120313220820
:100B5A0083160313B50083120313210883160313A4
:100B6A00B40083120313200883160313B3006630FC
:100B7A002A06031DC12DC22DC82D0130AD07031849
:100B8A00AE0A0030AE07831603133608CB003508C9
:100B9A00CA003408C9003308C8003008A1002F0869
:100BAA00A000A801A401A501B701B8013C2F831632
:100BBA0003134B08F3004A08F2004908F1004808F9
:100BCA00F0003C08F7003B08F6003A08F50039083F
:100BDA00F4000A128A156F200A128A117308831206
:100BEA000313B0007208AF007108AE007008AD00C0
:100BFA000A168A15F1260A128A118312031330087B
:100C0A0083160313C000831203132F0883160313DA
:100C1A00BF00831203132E0883160313BE00831228
:100C2A0003132D0883160313BD004008F3003F0881
:100C3A00F2003E08F1003D08F0000A168A157C23EE
:100C4A000A128A117108803AFF0080307F02031D60
:100C5A00302E0A3070020318332E342E4A2E831691
:100C6A0003134008F3003F08F2003E08F1003D0874
:100C7A00F0000A168A157C230A128A117108831653
:100C8A000313AC007008AB00502E0930831603130F
:100C9A00AB000030AC002808031D542E552E862EBA
:100CAA00A11F582E592E862E4208103E84002E303F
:100CBA00831780000130C2070318C30A0030C30734
:100CCA00FF30B1070318B20AFF30B2070130A8009B
:100CDA00862E4208103E840030308317800001308F
:100CEA00C2070318C30A0030C307FF30B10703184D
:100CFA00B20AFF30B207FF30A4070318A50AFF3073
:100D0A00A50724082504031D8B2E8C2E6E2E42085F
:100D1A00103E84002B08303E831780000130C20742
:100D2A000318C30A0030C307FF30B1070318B20A19
:100D3A00FF30B2074B0883120313A700831603136D
:100D4A004A0883120313A600831603134908831261
:100D5A000313A50083160313480883120313A40080
:100D6A0083160313400883120313A3008316031385
:100D7A003F0883120313A200831603133E0883124B
:100D8A000313A100831603133D0883120313A00063
:100D9A000A168A11BE240A128A118312031323081F
:100DAA00CC002208CB002108CA002008C9008316FB
:100DBA0003133C0883120313D000831603133B0862
:100DCA0083120313CF00831603133A088312031303
:100DDA00CE0083160313390883120313CD000A16B3
:100DEA008A1564220A128A11831203134C08831685
:100DFA000313BC00831203134B0883160313BB00AF
:100E0A00831203134A0883160313BA0083120313C7
:100E1A00490883160313B9004130F3002030F20069
:100E2A000030F1000030F0004B08F7004A08F600E5
:100E3A004908F5004808F4000A128A156F200A12B8
:100E4A008A11730883160313CB007208CA0071084B
:100E5A00C9007008C800FF30A0070318A10AFF30B4
:100E6A00A1070130B7070318B80A0030B8073808D5
:100E7A00803A83120313D800831603132E08803A8C
:100E8A00831203135802031D4E2F831603132D08D2
:100E9A0037020318512F522F612F83160313430869
:100EAA00803AFF0080307F02031D5D2F4B304202E3
:100EBA00031C602F612FDC2D4F3083160313B700FC
:100ECA000030B8003708103E8400831780011030C4
:100EDA0083120313D80083160313420883120313E1
:100EEA00D802831603133708831203135807F00036
:100EFA001030F100831603134308F3004208F2008E
:100F0A000A128A1500200A128A118316031342084C
:100F1A003702C2004308031C430A3802C3004108CF
:100F2A00031D982F9A2F01309B2F00308312031331
:100F3A00D800D901580883160313B7008312031384
:100F4A00590883160313B80041080319AD2FAE2FB1
:100F5A00BA2FFF30C2070318C30AFF30C30742087B
:100F6A00103E84004108831780003708B102380810
:100F7A00031CB203B202831203135108A8005208D9
:100F8A00A900831603134208103E83120313AA0012
:100F9A0083160313320883120313AC008316031358
:100FAA00310883120313AB000A168A153E230A126C
:100FBA008A11080083120313EE018313E1308400BF
:100FCA00ED300A168A1591210A128A118317B03058
:100FDA008400B8300A168A1591210A128A11103033
:100FEA00840060300A168A1591210A128A11830137
:100FFA000A168A11602A7108F6007008F50012288C
:10100A007608840083170008F4000130F607750893
:10101A008400740880000130F5070130F2020030C4
:10102A00031CF303F302720A031D1F28730A031D2C
:10103A001F2820280528080000307005F800003015
:10104A007105F90080307205FA007F307305FB00E4
:10105A007B087A0479047804031D342835283D284E
:10106A000030F3000030F2000030F1000030F000F0
:10107A0000307405F80000307505F90080307605F7
:10108A00FA007F307705FB007B087A04790478043C
:10109A00031D5028512859280030F7000030F60067
:1010AA000030F5000030F40077087306031D672846
:1010BA0076087206031D672875087106031D6728DE
:1010CA007408700603196A286B286D2803106E28A5
:1010DA0003140800770883120313A4008030A405C0
:1010EA007708F8007807AB00F61F7C287D287E2851
:1010FA002B142B0803198228832893282B0A031DF3
:10110A008728882890280030F7000030F600003041
:10111A00F5000030F400F617F7019B280030F700BD
:10112A000030F6000030F5000030F4007308803912
:10113A00A4067308F8007807AC00F21FA528A628B1
:10114A00A7282C142C080319AB28AC28BC282C0A75
:10115A00031DB028B128B9280030F3000030F2008E
:10116A000030F1000030F000F217F301C42800301B
:10117A00F3000030F2000030F1000030F000730894
:10118A00720471047004031DCB28CC28E3280030B4
:10119A00F7000030F6000030F5000030F40080302F
:1011AA00F6047F30F7042408F7047708F30076087A
:1011BA00F2007508F1007408F0003E2A2B08031D9E
:1011CA00E728E828F1280030F3000030F200003068
:1011DA00F1000030F0003E2A2B08F800F9017908E6
:1011EA00FB002C087802FA00031CFB037A087F3EF6
:1011FA00A5007B080318013E003EA6007708A3005D
:10120A007608A2007508A1007408A0000030F70053
:10121A000030F6000030F5000030F4000030AA007B
:10122A000030A9000030A8000030A700AC016B29EB
:10123A002C0803192129222942290130F800031018
:10124A00A00DA10DA20DA30DF80B24290130F80061
:10125A000310F40DF50DF60DF70DF80B2D29AA1F45
:10126A0037293829392974140130F8000310A70DD9
:10127A00A80DA90DAA0DF80B3B2973082302031D1B
:10128A00502972082202031D502971082102031DE8
:10129A00502970082002031C5329542969292A1746
:1012AA007008A0027108031C710F5C295D29A10254
:1012BA007208031C720F62296329A2027308031CB5
:1012CA00730F68296929A3020130AC071A302C026E
:1012DA00031C702971291D292308220421042004D2
:1012EA000319782979299829271498290130F800AF
:1012FA000310F40DF50DF60DF70DF80B7D29AA1F55
:10130A0087298829892974140130F8000310A70D48
:10131A00A80DA90DAA0DF80B8B29FF30A5070318F4
:10132A00A60AFF30A607F61F9B299C297B29AC0138
:10133A00AA1FA029A129BD29FF302705F800FF30DF
:10134A002805F900FF302905FA007F302A05FB003D
:10135A007B087A04790478040319B429B529B829D1
:10136A000130AC00BD29741CBB29BC29BD29B52993
:10137A002C080319C129C229F3290130F4070030C6
:10138A0003180130F507003003180130F607003062
:10139A0003180130F707771CD329D429F3297408D5
:1013AA00F8007508F9007608FA007708FB000130A2
:1013BA00FC007B0DFB0CFA0CF90CF80CFC0BDE297B
:1013CA007B08F7007A08F6007908F5007808F40037
:1013DA000130A5070318A60A0030A6072608803A96
:1013EA00FF0080307F02031DFC29FF302502031C09
:1013FA00FF29002A0E2AFF3083120313A5000030AA
:10140A00A6000030F7000030F6000030F50000308A
:10141A00F400831203132608803AFF0080307F020B
:10142A00031D192A0130250203181C2A1D2A2A2AFB
:10143A0083120313A501A6010030F7000030F6005D
:10144A000030F5000030F400A401831203132508CC
:10145A00AB002B1C312A322A342AF617362A7F305F
:10146A00F6052B08F8000310780CF7002408F70497
:10147A00DA280800413083160313DF00ED30DE005E
:10148A00DE0B452ADF0B452A4A2A83120313081C5E
:10149A004F2A502A412C2230F4008030F5000A16D7
:1014AA008A1505230A128A15413083120313B800DC
:1014BA000030B7000030B6000030B5004130A3005C
:1014CA002030A2000030A1000030A00083160317CC
:1014DA002F0883160313DE0001300310DE0DFF3ED2
:1014EA00031D722A03105E0DA73E840083170008AD
:1014FA0083120313A400840A0008A500840A0008C2
:10150A00A600840A0008A7000A168A11BE240A1235
:10151A008A15831203132308BC002208BB00210882
:10152A00BA002008B9000A168A1110200A128A1570
:10153A00831603172F0883160313DF0001300310E5
:10154A00DF0DFF3E031DA42A03105F0DA73E840092
:10155A0083120313350883178000840A3608800033
:10156A00840A37088000840A380880000830831605
:10157A000313E0009D30DF000530DE00DE0BC32AD6
:10158A00DF0BC32AE00BC32A412C881CCD2ACE2AA2
:10159A004B2B413083160313DF00ED30DE00DE0BE8
:1015AA00D42ADF0BD42AD92A83120313881CDE2AF1
:1015BA00DF2A412C1C30F4008030F5000A168A1507
:1015CA0005230A128A15403083120313B800A0308B
:1015DA00B7000030B6000030B5004130A30020301B
:1015EA00A2000030A1000030A000831603172F08C4
:1015FA0083160313DE0001300310DE0DFF3E031DC8
:10160A00012B03105E0DA73E840083170008831286
:10161A000313A400840A0008A500840A0008A6008F
:10162A00840A0008A7000A168A11BE240A128A151B
:10163A00831203132308BC002208BB002108BA0046
:10164A002008B9000A168A1110200A128A15831670
:10165A0003172F0883160313DF0001300310DF0D71
:10166A00FF3E031D332B03105F0DA73E8400831238
:10167A000313350883178000840A36088000840A19
:10168A0037088000840A38088000BB2A081D4E2BC0
:10169A004F2BCC2B413083160313DF00ED30DE00D5
:1016AA00DE0B552BDF0B552B5A2B83120313081D08
:1016BA005F2B602B412C1630F4008030F5000A169F
:1016CA008A1505230A128A15403083120313B800BB
:1016DA000030B7000030B6000030B5004130A3003A
:1016EA002030A2000030A1000030A00083160317AA
:1016FA002F0883160313DE0001300310DE0DFF3EB0
:10170A00031D822B03105E0DA73E84008317000879
:10171A0083120313A400840A0008A500840A00089F
:10172A00A600840A0008A7000A168A11BE240A1213
:10173A008A15831203132308BC002208BB00210860
:10174A00BA002008B9000A168A1110200A128A154E
:10175A00831603172F0883160313DF0001300310C3
:10176A00DF0DFF3E031DB42B03105F0DA73E84005F
:10177A0083120313350883178000840A3608800011
:10178A00840A37088000840A38088000BB2A881D2A
:10179A00CF2BD02B362C413083160313DF00ED30CC
:1017AA00DE00DE0BD62BDF0BD62BDB2B83120313CB
:1017BA00881DE02BE12B412C1230F4008030F5001B
:1017CA000A168A1505230A128A1541308312031351
:1017DA00A3002030A2000030A1000030A000831630
:1017EA0003172F0883160313DE0001300310DE0DE2
:1017FA00FF3E031DFB2B03105E0DA73E84008317DB
:10180A00000883120313A400840A0008A500840AAE
:10181A000008A600840A0008A7000A168A11BE2436
:10182A000A128A15831603172F0883160313DF007B
:10183A0001300310DF0DFF3E031D1E2C03105F0D48
:10184A00A73E840083120313200883178000840AAA
:10185A0021088000840A22088000840A2308800064
:10186A00BB2A073083160313DF007C30DE00DE0B51
:10187A003C2CDF0B3C2C0000831203138812081740
:10188A00081C482C492CD42C413083160313DF0042
:10189A00ED30DE00DE0B4F2CDF0B4F2C542C831265
:1018AA000313081C592C5A2C4C2F2430F400803076
:1018BA00F5000A168A1505230A128A154130831281
:1018CA000313B8001030B7000030B6000030B5007E
:1018DA004130A3002030A2000030A1000030A00057
:1018EA00831603172F0883160313DE000130031033
:1018FA00DE0DFF3E031D7C2C03105E0DA73E840007
:10190A008317000883120313A400840A0008A500A1
:10191A00840A0008A600840A0008A7000A168A1189
:10192A00BE240A128A15831203132308BC00220854
:10193A00BB002108BA002008B9000A168A11102033
:10194A000A128A15831603172F0883160313DF005A
:10195A0001300310DF0DFF3E031DAE2C03105F0D97
:10196A00A73E840083120313350883178000840A74
:10197A0036088000840A37088000840A3808800004
:10198A00083083160313E0009D30DF000530DE00C7
:10199A00DE0BCD2CDF0BCD2CE00BCD2C4C2F881C75
:1019AA00D72CD82C552D413083160313DF00ED3088
:1019BA00DE00DE0BDE2CDF0BDE2CE32C831203139E
:1019CA00881CE82CE92C4C2F1E30F4008030F500DE
:1019DA000A168A1505230A128A1540308312031340
:1019EA00B800C030B7000030B6000030B500413052
:1019FA00A3002030A2000030A1000030A00083160E
:101A0A0003172F0883160313DE0001300310DE0DBF
:101A1A00FF3E031D0B2D03105E0DA73E84008317A6
:101A2A00000883120313A400840A0008A500840A8C
:101A3A000008A600840A0008A7000A168A11BE2414
:101A4A000A128A15831203132308BC002208BB005A
:101A5A002108BA002008B9000A168A1110200A12B1
:101A6A008A15831603172F0883160313DF00013024
:101A7A000310DF0DFF3E031D3D2D03105F0DA73E32
:101A8A00840083120313350883178000840A3608FA
:101A9A008000840A37088000840A38088000C52C30
:101AAA00081D582D592DD62D413083160313DF00FA
:101ABA00ED30DE00DE0B5F2DDF0B5F2D642D831210
:101ACA000313081D692D6A2D4C2F1830F40080303D
:101ADA00F5000A168A1505230A128A154030831260
:101AEA000313B8004030B7000030B6000030B5002C
:101AFA004130A3002030A2000030A1000030A00035
:101B0A00831603172F0883160313DE000130031010
:101B1A00DE0DFF3E031D8C2D03105E0DA73E8400D3
:101B2A008317000883120313A400840A0008A5007F
:101B3A00840A0008A600840A0008A7000A168A1167
:101B4A00BE240A128A15831203132308BC00220832
:101B5A00BB002108BA002008B9000A168A11102011
:101B6A000A128A15831603172F0883160313DF0038
:101B7A0001300310DF0DFF3E031DBE2D03105F0D64
:101B8A00A73E840083120313350883178000840A52
:101B9A0036088000840A37088000840A38088000E2
:101BAA00C52C881DD92DDA2D412F413083160313F8
:101BBA00DF00ED30DE00DE0BE02DDF0BE02DE52D42
:101BCA0083120313881DEA2DEB2D4C2FE02E2A08D1
:101BDA0083120313B8008316031729088312031309
:101BEA00B70083160317280883120313B600831657
:101BFA000317270883120313B5000430A73E840095
:101C0A0083170008B900840A0008BA00840A000889
:101C1A00BB00840A0008BC000A168A1110200A12A6
:101C2A008A1583120313380883160317A300831235
:101C3A000313370883160317A20083120313360807
:101C4A0083160317A100831203133508831603179B
:101C5A00A000F02E0430A73E8400831700088312E8
:101C6A000313C900840A0008CA00840A0008CB00CA
:101C7A00840A0008CC00831603172A088312031368
:101C8A00D00083160317290883120313CF00831683
:101C9A000317280883120313CE0083160317270895
:101CAA0083120313CD000A168A1564220A128A15B2
:101CBA00831203134C0883160317A300831203131A
:101CCA004B0883160317A200831203134A088316CC
:101CDA000317A10083120313490883160317A000F0
:101CEA00F02E2A0883120313A30083160317290868
:101CFA0083120313A20083160317280883120313FF
:101D0A00A10083160317270883120313A0000430C7
:101D1A00A73E840083170008A400840A0008A500CF
:101D2A00840A0008A600840A0008A7000A168A1175
:101D3A00BE240A128A158312031323088316031773
:101D4A00A30083120313220883160317A200831227
:101D5A000313210883160317A10083120313200813
:101D6A0083160317A000F02E0430A73E84008317C1
:101D7A000008F000840A0008F100840A0008F20052
:101D8A00840A0008F3002A08F7002908F600280840
:101D9A00F5002708F4000A128A156F200A128A151C
:101DAA00730883160317A3007208A2007108A10022
:101DBA007008A000F02E8316031726082A3A031982
:101DCA00762E013A0319EC2D063A03192F2E023A00
:101DDA000319B92EF02E903083160313CC00093064
:101DEA00CD0083160317230883160313D100831625
:101DFA000317220883160313D0008316031721083A
:101E0A0083160313CF0083160317200883160313C0
:101E1A00CE000A168A15DA220A128A150230F3004F
:101E2A000030F4000A168A1500220A128A15903028
:101E3A00F4000130F5000A168A1505230A128A15DC
:101E4A000130F3000030F4000A168A1500220A1243
:101E5A008A15A730F0000030F100F2000830F300D4
:101E6A000030F4000A168A15CE210A128A15831642
:101E7A000317AF01A601C52C073083160313DF0031
:101E8A007C30DE00DE0B472FDF0B472F000083126A
:101E9A00031308138817081C532F542F832F41301C
:101EAA0083160313DF00ED30DE00DE0B5A2FDF0B43
:101EBA005A2F5F2F83120313081C642F652FF72FE5
:101ECA001030F4008030F5000A168A1505230A122C
:101EDA008A152F3083160317A6000130AF07083082
:101EEA0083160313E0009D30DF000530DE00DE0BB1
:101EFA007C2FDF0B7C2FE00B7C2FF72F881C862F83
:101F0A00872FA62F413083160313DF00ED30DE0042
:101F1A00DE0B8D2FDF0B8D2F922F83120313881C5C
:101F2A00972F982FF72F2630F4008030F5000A16E5
:101F3A008A1505230A128A152A3083160317A60062
:101F4A00722F081DA92FAA2FC92F413083160313F8
:101F5A00DF00ED30DE00DE0BB02FDF0BB02FB52F28
:101F6A0083120313081DBA2FBB2FF72F0E30F4006C
:101F7A008030F5000A168A1505230A128A152D30B3
:101F8A0083160317A600722F881DCC2FCD2FEC2F96
:101F9A00413083160313DF00ED30DE00DE0BD32F52
:101FAA00DF0BD32FD82F83120313881DDD2FDE2FCB
:101FBA00F72F0C30F4008030F5000A168A15052335
:101FCA000A128A152B3083160317A600722F0730C0
:101FDA0083160313DF007C30DE00DE0BF22FDF0BEB
:101FEA00F22F00008312031388130A168A11E52AB6
:061FFA000A128A11002802
:10200600F2008312031307108710720886000A165F
:102016008A15A4210A168A110800831203133808A8
:10202600C5008030C5053808BD003D07C700B71F8D
:102036001D281E281F28471447080319232824286B
:102046003428470A031D2828292831280030B800DB
:102056000030B7000030B6000030B500B717B80141
:102066003C280030B8000030B7000030B600003021
:10207600B5003C08C6008030C6054608450603196B
:1020860045284628472845173C08BD003D07C60099
:10209600BB1F4E284F2850284614460803195428BB
:1020A60055286528460A031D59285A2862280030F3
:1020B600BC000030BB000030BA000030B900BB17CE
:1020C600BC016D280030BC000030BB000030BA00F7
:1020D6000030B9004708460203187228732897286B
:1020E600451F7628772879288030C5064708C80016
:1020F6004608C7004808C6003508C8003908B500B4
:102106004808B9003608C8003A08B6004808BA00B8
:102116003708C8003B08B7004808BB003808C800A5
:102126003C08B8004808BC00C8014608BD00BE010E
:102136003E08C00047083D02BF00031CC00340081C
:10214600803AFF0080307F02031DAB281A303F0221
:10215600031CAE28AF28E42883120313380837047B
:1021660036043504031DB828BA280130BB280030D0
:10217600C8000030B8000030B7000030B6000030AC
:10218600B5004608C700EC28481CCA28CB28D22828
:102196004808BD0003103D0C0138C800D4280310C0
:1021A600C80C351CD728D828D928C8170130BD0037
:1021B600380DB80CB70CB60CB50CBD0BDB280130CE
:1021C600C7078312031346084702031CEB28EC28B3
:1021D600C728451BEF28F02837294708031DF42890
:1021E600F528FE280030B8000030B7000030B600F1
:1021F6000030B5005F2A3908B5073A0803110318FD
:10220600013E03190729B6073B0803110318013ECF
:1022160003190E29B7073C0803110318013E0319D9
:102226001529B807381C18291929EB29481C1C2917
:102236001D2924294808BD0003103D0C0138C8009B
:1022460026290310C80C351C29292A292B29C81729
:102256000130BD00380DB80CB70CB60CB50CBD0B73
:102266002D290130C707EB293808803AFF003C08C2
:10227600803A7F02031D49293B083702031D49297D
:102286003A083602031D49293908350203184C2934
:102296004D29A429FF30BD00FF30BE00FF30BF002E
:1022A600FF30C0003908C1003A08C2003B08C3002D
:1022B6003C08C4003508C1023608031C360F6429E1
:1022C6006529C2023708031C370F6A296B29C30226
:1022D6003808031C380F70297129C4024108BD074C
:1022E60042080318420F78297929BE0743080318C4
:1022F600430F7E297F29BF0744080318440AC007F5
:102306004008B8003F08B7003E08B6003D08B500D3
:102316008030C5064803FF3AC8004808031D9429C3
:102326009529B2290130B507003003180130B607E8
:10233600003003180130B707003003180130B80722
:10234600B2293908B5023A08031C3A0FB6023B080F
:10235600031C3B0FB7023C08031C3C0FB8023808AD
:10236600370436043504031DB929BA29E729480874
:10237600031DBE29BF29E7290030B8000030B70089
:102386000030B6000030B5005F2A0130BD000310F2
:10239600B50DB60DB70DB80DBD0BCA29C81FD4298A
:1023A600D529D6293514481CD929DA29DE2903145A
:1023B600480DC800E0290310C80D47080319E42991
:1023C600E529E7290130C702B71FEA29EB29C82901
:1023D600C601C81FEF29F029FE2948087F390319CD
:1023E600F529F629F9290130C600FE29351CFC29F4
:1023F600FD29FE29F62946080319022A032A352A49
:102406000130B507003003180130B6070030031855
:102416000130B707003003180130B807381C142AFA
:10242600152A352A3508BD003608BE003708BF0014
:102436003808C0000130C100400DC00CBF0CBE0CF6
:10244600BD0CC10B1F2A4008B8003F08B7003E0864
:10245600B6003D08B500470A0319322A332A352A41
:102466000130C707470A0319392A3A2A3F2A47087B
:10247600031D3E2A3F2A4D2A0030B8000030B7001F
:102486000030B6000030B5004708031D4B2A4C2A21
:102496004D2AC501471C502A512A532AB717552AD7
:1024A6007F30B7054708BD0003103D0CB800C51FB7
:1024B6005D2A5E2A5F2AB8170800831603130814DC
:1024C60088140815881508128812081388138312B1
:1024D6000313081288120813881383160313860140
:1024E60007110710871083160317A401A5010330EF
:1024F60083160313E0008A30DF005530DE00DE0B62
:10250600822ADF0B822AE00B822A30300A168A11D1
:1025160003200A168A11013083160317A40703182D
:10252600A50A0030A5072508803AFF0080307F0203
:10253600031D9F2A03302402031CA22AA32A7A2AF7
:10254600033083160313E0008A30DF005530DE00C7
:10255600DE0BAB2ADF0BAB2AE00BAB2A38300A16B0
:102566008A1103200A168A1108300A168A110320D6
:102576000A168A1101300A168A1103200A168A11D0
:1025860006300A168A1103200A168A110F300A1617
:102596008A1103200A168A110130F3000030F40074
:1025A6000A168A1500220A168A1183160317A6012F
:1025B600AF01A73084000830FF0083178001840A2A
:1025C600FF0BE02A831203130816081CEB2AEC2AD9
:1025D600772B413083160313DF00ED30DE00DE0B70
:1025E600F22ADF0BF22AF72A83120313081CFC2AAD
:1025F600FD2AB22C2030F4008030F5000A168A1528
:1026060005230A168A11403083120313B800E030FE
:10261600B7000030B6000030B5004130A3002030CE
:10262600A2000030A1000030A000831603172F0877
:1026360083160313DE0001300310DE0DFF3E031D7B
:102646001F2B03105E0DA73E84008317000883121C
:102656000313A400840A0008A500840A0008A60043
:10266600840A0008A7000A168A11BE240A168A11CF
:10267600831203132308BC002208BB002108BA00FA
:102686002008B9000A168A1110200A168A11831624
:1026960003172F0883160313DF0001300310DF0D25
:1026A600FF3E031D512B03105F0DA73E84008312CE
:1026B6000313350883178000840A36088000840ACD
:1026C60037088000840A3808800008308316031310
:1026D600E0009D30DF000530DE00DE0B702BDF0BE7
:1026E600702BE00B702BB22C881C7A2B7B2BF82BD3
:1026F600413083160313DF00ED30DE00DE0B812B45
:10270600DF0B812B862B83120313881C8B2B8C2BC0
:10271600B22C1A30F4008030F5000A168A1505230B
:102726000A168A11403083120313B8008030B700AE
:102736000030B6000030B5004130A3002030A200C2
:102746000030A1000030A000831603172F0883165F
:102756000313DE0001300310DE0DFF3E031DAE2B1A
:1027660003105E0DA73E840083170008831203132F
:10277600A400840A0008A500840A0008A600840AAA
:102786000008A7000A168A11BE240A168A118312A7
:1027960003132308BC002208BB002108BA00200846
:1027A600B9000A168A1110200A168A118316031711
:1027B6002F0883160313DF0001300310DF0DFF3EE1
:1027C600031DE02B03105F0DA73E84008312031345
:1027D600350883178000840A36088000840A370883
:1027E6008000840A38088000682B081DFB2BFC2B10
:1027F600792C413083160313DF00ED30DE00DE0B4B
:10280600022CDF0B022C072C83120313081D0C2C41
:102816000D2CB22C1430F4008030F5000A168A15FF
:1028260005230A168A113F3083120313B80080303D
:10283600B7000030B6000030B5004130A3002030AC
:10284600A2000030A1000030A000831603172F0855
:1028560083160313DE0001300310DE0DFF3E031D59
:102866002F2C03105E0DA73E8400831700088312E9
:102876000313A400840A0008A500840A0008A60021
:10288600840A0008A7000A168A11BE240A168A11AD
:10289600831203132308BC002208BB002108BA00D8
:1028A6002008B9000A168A1110200A168A11831602
:1028B60003172F0883160313DF0001300310DF0D03
:1028C600FF3E031D612C03105F0DA73E840083129B
:1028D6000313350883178000840A36088000840AAB
:1028E60037088000840A38088000682B881D7C2CF5
:1028F6007D2CA72C413083160313DF00ED30DE005C
:10290600DE0B832CDF0B832C882C83120313881D8C
:102916008D2C8E2CB22C01300A168A1103200A1631
:102926008A11A730F0000030F100F2000830F30001
:102936000030F4000A168A15CE210A168A1183166B
:102946000317AF01A601682B073083160313DF00B8
:102956007C30DE00DE0BAD2CDF0BAD2C00008312CD
:10296600031308128816081CBB2C0A128A153F2A64
:102976000A128A15CA2A831203132308A800803074
:10298600A8052308F9007907AE00A21FCB2CCC2C92
:10299600CD2C2E142E080319D12CD22CE12C2E0A64
:1029A600031DD62CD72CDF2C0030A3000030A2004C
:1029B6000030A1000030A000A217E92C0030A300CF
:1029C6000030A2000030A1000030A00027088039A6
:1029D600A8062708F9007907AD00A61FF32CF42CEA
:1029E600F52C2D142D080319F92CFA2C092D2D0A76
:1029F600031DFE2CFF2C072D0030A7000030A6007B
:102A06000030A5000030A400A617112D0030A70045
:102A16000030A6000030A5000030A4002D080319E0
:102A2600152D162D1B2D2E08031D1A2D1B2D242D9D
:102A36000030A3000030A2000030A1000030A0004A
:102A4600FF2F2008F00026080A168A1588220A1683
:102A56008A11710883120313B4007008B300330897
:102A6600F900FA01FB01FC017C08AC007B08AB0015
:102A76007A08AA007908A9003408F900FA01FB01CE
:102A8600FC017C08B2007B08B1007A08B000790826
:102A9600AF002108F00025080A168A1588220A16B2
:102AA6008A11710883120313B4007008B300330847
:102AB600F900FA01FB01FC017908A9077A0803115C
:102AC6000318013E0319682DAA077B080311031892
:102AD600013E03196F2DAB077C0803110318013E55
:102AE6000319762DAC073408F900FA01FB01FC0145
:102AF6007908AF077A0803110318013E0319842DDC
:102B0600B0077B0803110318013E03198B2DB1078B
:102B16007C0803110318013E0319922DB2072208FF
:102B2600F00024080A168A1588220A168A117108E6
:102B360083120313B4007008B3003308F900FA01D6
:102B4600FB01FC017908A9077A0803110318013E65
:102B56000319AE2DAA077B0803110318013E0319BA
:102B6600B52DAB077C0803110318013E0319BC2DD4
:102B7600AC073408F900FA01FB01FC017908AF073C
:102B86007A0803110318013E0319CA2DB0077B0802
:102B960003110318013E0319D12DB1077C08031157
:102BA6000318013E0319D82DB2070830F9000310A7
:102BB600A90DAA0DAB0DAC0DF90BDA2D2108F0000D
:102BC60024080A168A1588220A168A1171088312A1
:102BD6000313B4007008B3003308F9003408FA0090
:102BE600FB01FC017908A9077A0803110318013EC5
:102BF6000319FE2DAA077B0803110318013E0319CA
:102C0600052EAB077C0803110318013E03190C2E91
:102C1600AC072008F00025080A168A1588220A162D
:102C26008A11710883120313B4007008B3003308C5
:102C3600F9003408FA00FB01FC017908A9077A08B3
:102C460003110318013E0319292EAA077B08031155
:102C56000318013E0319302EAB077C080311031835
:102C6600013E0319372EAC070830F9000310A90DF1
:102C7600AA0DAB0DAC0DF90B392E2008F000240877
:102C86000A168A1588220A168A11710883120313F6
:102C9600B4007008B3003308F9003408FA00FB01E9
:102CA600FC017908A9077A0803110318013E0319E4
:102CB6005D2EAA077B0803110318013E0319642E33
:102CC600AB077C0803110318013E03196B2EAC07F2
:102CD6002108F00026080A168A1588220A168A1183
:102CE600710883120313B4007008B3003308F900A7
:102CF6003408FA00FB01FC017908AF077A080311D2
:102D06000318013E0319882EB0077B080311031828
:102D1600013E03198F2EB1077C0803110318013EEB
:102D26000319962EB2072208F00025080A168A15FE
:102D360088220A168A11710883120313B4007008D8
:102D4600B3003308F9003408FA00FB01FC017908E6
:102D5600AF077A0803110318013E0319B32EB00713
:102D66007B0803110318013E0319BA2EB1077C082C
:102D760003110318013E0319C12EB2072208F00001
:102D860026080A168A1588220A168A1171088312DD
:102D96000313B4007008B3003308F9003408FA00CE
:102DA600FB01FC0108300310F90DFA0DFB0DFC0DBB
:102DB600FF3E031DD62E7908AF077A0803110318C4
:102DC600013E0319E72EB0077B0803110318013EE5
:102DD6000319EE2EB1077C0803110318013E0319EF
:102DE600F52EB2072908F9002A08FA002B08FB007D
:102DF6002C08FC0018300310FC0CFB0CFA0CF90C28
:102E0600FF3E031DFE2E7908AF077A08031103184B
:102E1600013E03190F2FB0077B0803110318013E6B
:102E26000319162FB1077C0803110318013E031975
:102E36001D2FB2070830F9000310A90DAA0DAB0D1E
:102E4600AC0DF90B1F2F2E082D07F900FA01FA0D0C
:102E56007908823EB3007A080318013EFF3EB400AB
:102E6600512F0130F9000310AF0DB00DB10DB20DA9
:102E7600F90B362FAC1F402F412F422F2F14013054
:102E8600F9000310A90DAA0DAB0DAC0DF90B442FDB
:102E9600FF30B3070318B40AFF30B407B11F542F2D
:102EA600552F342FAD01AC1F592F5A2F762FFF30D7
:102EB6002905F900FF302A05FA00FF302B05FB0033
:102EC6007F302C05FC007C087B047A047904031906
:102ED6006D2F6E2F712F0130AD00762F2F1C742FA2
:102EE600752F762F6E2F2D0803197A2F7B2FAC2F77
:102EF6000130AF07003003180130B0070030031867
:102F06000130B107003003180130B207321C8C2F94
:102F16008D2FAC2F2F08F9003008FA003108FB007E
:102F26003208FC000130FD007C0DFC0CFB0CFA0C99
:102F3600F90CFD0B972F7C08B2007B08B1007A08CC
:102F4600B0007908AF000130B3070318B40A0030A7
:102F5600B4073408803AFF0080307F02031DB52F86
:102F6600FF303302031CB82FB92FC42F7F308312D2
:102F76000313B2008030B1000030B0000030AF0063
:102F8600F52F831203133408803AFF0080307F0246
:102F9600031DCF2F013033020318D22FD32FDF2F7B
:102FA600003083120313B2000030B1000030B000CD
:102FB6000030AF00A801F52F831203133308AE00CB
:102FC600FF30AF05FF30B0057F30B1050030B205E8
:102FD6002E1CEE2FEF2FF02FB1172E08F90003103D
:102FE600790CB2002808B2043208A3003108A20006
:102FF6003008A1002F08A0000800FF1B0A28831331
:103006007F1883170008840A0319FF0A080018307E
:103016008A000408840A8207003469346E346634F0
:1030260000346E3461346E34003425346634003432
:103036002B3400342D3400342F3400343034003433
:103046003134003432340034333400343434003410
:1030560035340034363400343734003438340034F0
:083066003934003478340034E1
:1033220064008001840A0406031900340406922909
:1033320073087204710470040319A029A129A32936
:103342008030F30608008312031307151030F000D3
:10335200F00BA92900008312031307114130F10079
:10336200EE30F000F00BB329F10BB3290000080096
:10337200F31BBC29BD29BE29CD297009F0007109B2
:10338200F1007209F2007309F300F00A0319F10A5D
:103392000319F20A0319F30A08007008F500D82984
:1033A200750884007108831780000130F507013029
:1033B200F3020030031CF403F402730A031DE5292F
:1033C200740A031DE529E629D12908007008F200D4
:1033D2000130F107FF30710784000A168A150A20AE
:1033E2000A168A15FF007208F20A84007F08831702
:1033F20080000008031DFE29FF29E92908000F2A81
:1034020080300A168A1103200A168A151C2AC03037
:103412000A168A1103200A168A151C2A7408003A11
:103422000319142A1C2A7308013A0319012A033AC0
:103432000319082A1C2A0800831203136A08EC00E5
:103442002F2A6808DC006908DD006C30DE006B089A
:10345200DF000A168A1517250A168A158312031326
:103462006C0884000A168A150A200A168A15003A80
:10347200031D3C2A3D2A222AE801E90108007008BE
:10348200F2007108F3004B2A0130F0070318F10A29
:103492000030F107710883120313FF0070088400E3
:1034A2000A168A1500200A168A15003A031D5A2A9E
:1034B2005B2A452A72087002F0007308031C730A23
:1034C2007102F1000800803083120313CC06500809
:1034D200B8004F08B7004E08B6004D08B5004C08BA
:1034E200BC004B08BB004A08BA004908B9000A16DA
:1034F2008A1110200A168A15831203133808CC0089
:103502003708CB003608CA003508C9000800F800A1
:10351200F401F5017008F200F3017208F600730875
:10352200F700781C952A962A9C2A7608F407031835
:10353200F50A7708F50701300310F60DF70DFF3E87
:10354200031D9D2A0310F80C7808031DA92AAA2A34
:10355200922A7508F1007408F00008008312031320
:10356200A601A701CC2A2508A300A4012308F00084
:103572002408F1002108F2002208F3000A168A1535
:103582007D240A168A15013083120313A607031835
:10359200A70A0030A70726082007A30023088400F3
:1035A20083170008A5002508031DD82AD92AB42AA2
:1035B2000800CE3083160313D2004C08D30001302A
:1035C200D400D501D601DC01DD01D330831203130F
:1035D200E8000030E900831603134D088312031339
:1035E200EA00D230EB000A168A151D220A168A1545
:1035F2008316031355084C0783120313ED006D085D
:1036020084008317800108008312031307148710B4
:103612007408F0007508F1000A168A1540220A168D
:103622008A157108F7007008F600F801F901332BCA
:1036320078087407840075080318750A8312031347
:10364200FF000A168A1500200A168A1586000A1635
:103652008A15A4210A168A150130F8070318F90AF7
:103662000030F90777087902031D392B76087802B2
:10367200031C3C2B3D2B192B080083120313AC1F98
:10368200432B442B462BAB01AC01AD01AE01602BA9
:103692002030F0000030F100831203132808F200FA
:1036A2002908F3000A168A157D240A168A150130A4
:1036B20083120313AD070318AE0A0030AE072E08BB
:1036C200803AFD002C08803A7D02031D6A2B2B08EC
:1036D2002D02031C6D2B6E2B492B831203132A0818
:1036E200A0002808A1002908A2000A168A15AF2204
:1036F2000A168A1508000310720D730DF900790875
:10370200031D842B852B8E2B0030F3000030F2003A
:103712000030F1000030F000EF2B7008F400710867
:10372200F5007208F6007308F7001F300310F70C5B
:10373200F60CF50CF40CFF3E031D972B7408F800F1
:10374200F217FF30F005FF30F105FF30F2050030CF
:10375200F3059630F902F91FAF2BB02BC82B79086D
:10376200803A973E0318B62BB72BB82B852B013026
:103772000310F30CF20CF10CF00CFF3E031DB92BFD
:103782000130F907031DC62BC72BB82BDF2B2030C6
:103792007902031CCD2BCE2BDA2B852B0130F400C2
:1037A2000310F00DF10DF20DF30DF40BD12B0130DE
:1037B200F9027908031DDE2BDF2BCF2B78080319C2
:1037C200E32BE42BEF2BF009F109F209F309F00ADC
:1037D2000319F10A0319F20A0319F30A08008316FE
:1037E2000313680883120313A500831603136708E3
:1037F20083120313A40083160313660883120313B0
:10380200A30083160313650883120313A20073082F
:10381200A5007208A4007108A3007008A200220883
:10382200F4002308F5002408F6002508F7001730F5
:103832000310F70CF60CF50CF40CFF3E031D192CCB
:10384200FF307405A00000307505A1002008210496
:10385200031D2C2C2D2C502C2208F4002308F500DB
:103862002408F6002508F70001300310F40DF50DC9
:10387200F60DF70DFF3E031D362C7708760475040E
:103882007404031D452C462C4B2C0230F0000030F2
:10389200F1007C2C0330F0000030F1007C2C200A77
:1038A2002104031D552C562C782C2208F4002308E1
:1038B200F5002408F6002508F70009300310F40D7E
:1038C200F50DF60DF70DFF3E031D5F2C770876040C
:1038D2007504740403196E2C702C0130712C0030A5
:1038E200F800F9017808F0007908F1007C2C043026
:1038F200F0000030F1000800720873040319822CF2
:10390200832C892C72087304031D882C892C902C1B
:1039120070080A128A1105200A168A15162D7208D5
:10392200093EF40073080318013E003EF5007408D6
:1039320084008317751C83130008F600840A0008AC
:10394200F700760877040319A72CA82CDA2C720842
:10395200093EF40073080318013E003EF5007408A6
:1039620084008317751C83130008F600840A00087C
:10397200F7007208023EF80073080318013E003E89
:10398200F900780884008317791C83130008FA0071
:10399200840A0008FB007B08803AFC007708803A22
:1039A2007C02031DD62C76087A020318D92CDA2C55
:1039B200162D720884008317731C83130008F40009
:1039C200840A0008F5007208023EF6007308031824
:1039D200013E003EF700760884008317771C8313AC
:1039E20000087407F9007508F8000318F80A801F28
:1039F200FB2CF8037808FA007908840083177A1CF4
:103A02008313700880007208023EF40073080318E2
:103A1200013E003EF500740884008317751C831371
:103A220001308007840A0318800A080083120313F6
:103A32005E0884008313000884000A168A150A208F
:103A42000A168A15253A031D272D282DCC2D5E082E
:103A520084000130800783160313E901EA01003074
:103A620083120313EE00FF3083160313EB00FF30C3
:103A7200EC00831203135E0884000008E700670865
:103A820084000A168A150A200A168A15E600512DA4
:103A92000130E7075C2D6C30E6005C2DE6015C2D01
:103AA20066084C3A0319492D2A3A03194C2D0A3A51
:103AB2000319492D4F2D670884000A168A150A201A
:103AC2000A168A15663A031D672D682DC42D912D9D
:103AD2005F0884000008FF00043080077F0884002C
:103AE2000008E200840A0008E300840A0008E400F7
:103AF200840A0008E500992D5F0884000008FF0091
:103B0200043080077F0884000008E200840A00086D
:103B1200E300840A0008E400840A0008E500992D05
:103B220066084C3A03197D2D203A0319692D992D07
:103B32005E0884006708013E8000B92D5C08D10050
:103B42005D08D2006508D6006408D5006308D40079
:103B52006208D300670884000A168A150A200A162A
:103B62008A15D7000A168A15E6250A168A15E52D42
:103B7200670884000A168A150A200A168A15663A08
:103B820003199F2DC42D831203135E088400013094
:103B920083138007E52D5E088400000884000A165E
:103BA2008A150A200A168A15E000E1016008F00071
:103BB2006108F1005C08F2005D08F3000A168A153C
:103BC2007D240A168A15C42D080083160313C10129
:103BD20083120313560883160313C70083120313B9
:103BE200550883160313C600831203135408831661
:103BF2000313C50083120313530883160313C4006F
:103C0200470883120313B80083160313460883126E
:103C12000313B70083160313450883120313B60078
:103C220083160313440883120313B5000030BC004B
:103C32000030BB000030BA000030B9000A128A110D
:103C420006200A168A150318272E282E432E013025
:103C520083160313C1004708F3004608F200450823
:103C6200F1004408F0000A168A1599210A168A15ED
:103C7200730883160313C7007208C6007108C500D3
:103C82007008C40083160313C201C3016A08B2009C
:103C92006908B100410803194F2E502E602E4108C9
:103CA200031D542E552E5A2E2B30A6000030A7008D
:103CB2005E2E2D30A6000030A7002608C10047085E
:103CC200F3004608F2004508F1004408F0000A1625
:103CD2008A15F0230A168A1570037104031D722EC9
:103CE200732EB82E8316031341080319792E7A2EE8
:103CF2008A2E4108831203179000FF3083160313A4
:103D0200B1070318B20AFF30B2070130C200003017
:103D1200C3004208103EF0000130F1000A168A1575
:103D2200E7210A168A15FD3083160313B10703181B
:103D3200B20AFF30B207831203135108A8005208D7
:103D4200A9001030AA00831603133208831203134A
:103D5200AC0083160313310883120313AB000A1657
:103D62008A153E230A168A150A128A11DE2F831635
:103D720003134708F3004608F2004508F10044081F
:103D8200F0000A168A15F0230A168A1570087104C3
:103D9200031DCC2ECF2E0A128A11AA2883160313D2
:103DA20041080319D52ED62EE62E41088312031799
:103DB2009000FF3083160313B1070318B20AFF30D5
:103DC200B2070130C2000030C3004208103EF000CA
:103DD2000530F1000A168A15E7210A168A15942E73
:103DE20083160313640883120313C000831603139C
:103DF200630883120313BF0083160313620883123E
:103E02000313BE0083160313610883120313BD005C
:103E12003008C0002F08BF002E08BE002D08BD00CC
:103E22003D08B1003E08B2003F08B3004008B400AC
:103E320017300310B40CB30CB20CB10CFF3E031DCF
:103E42001A2FFF303105B50000303205B6003508B3
:103E5200813EBB0036080318013EFF3EBC003C0811
:103E6200803AFF0080307F02031D392F17303B025A
:103E7200031C3C2F3D2F3E2FFF2F83120313BC1B2D
:103E8200432F442FB42F3B0AFF00FF30B100FF3015
:103E9200B2007F30B3000030B400542F340DB40CA4
:103EA200B30CB20CB10CFF0B4F2F3408BA0033081D
:103EB200B9003208B8003108B70037083D05B10033
:103EC20038083E05B20039083F05B3003A084005FC
:103ED200B4003408330432043104031D712F722FED
:103EE200732F3D2F3D08B1003E08B2003F08B300DA
:103EF2004008B4001F300310B40CB30CB20CB10C68
:103F0200FF3E031D7C2F34083304320431040319AD
:103F12008B2F8C2FA32F3708BD07380803110318E6
:103F2200013E0319952FBE07390803110318013EFC
:103F320003199C2FBF073A0803110318013E031906
:103F4200A32FC0073709B1003809B2003909B300FD
:103F52003A09B4003108BD053208BE053308BF0571
:103F62003408C005F72F3D08B1003E08B2003F08F3
:103F7200B3004008B4001F300310B40CB30CB20CF1
:103F8200B10CFF3E031DBD2F34083304320431044B
:103F9200031DCC2FCD2FD62F0030C0000030BF0024
:103FA2000030BE000030BD00F72F3D08B1003E08D2
:103FB200B2003F08B3004008B40001300310B10D55
:103FC200B20DB30DB40DFF3E031DDF2F34083304D1
:103FD200320431040319EE2FEF2FF72FBF30C00048
:103FE2008030BF000030BE000030BD004008B0008D
:0E3FF2003F08AF003E08AE003D08AD000800DD
:00000001FF
