:100000000A128A11E62FFF1B0D2883137F1883170E
:100010000008840A0319FF0A080000308A00040857
:10002000840A820700342B3400342D3400342F34FA
:10003000003430340034313400343234003433345A
:10004000003434340034353400343634003437343A
:0E00500000343834003439340034783400344D
:1006160064008001840A04060319003404060C2BC6
:10062600F2008312031307108710720886000A125D
:100636008A1158230A128A11080030342B340034E8
:100646000034003400340034003400340034003404
:1006560000340034003400340034003400347008B0
:10066600F2007108F10A840083130008FF00720883
:10067600F20A84007F0880000008031D432B442BE8
:10068600342B08007E088A007F0882000A128A112D
:1006960045230A128A118000840A04087D0603197C
:1006A6000034FF0A0319FE0A492B831203130715A8
:1006B6001030F000F00B5D2B0000831203130711BE
:1006C6004130F100EE30F000F00B672BF10B672B99
:1006D600000008007008F500772B75088400710883
:1006E600831380000130F5070130F3020030031C4C
:1006F600F403F402730A031D842B740A031D842B6E
:10070600852B702B0800952B80300A128A11132333
:100716000A128A11A22BC0300A128A1113230A1256
:100726008A11A22B7408003A03199A2BA22B73087C
:10073600013A0319872B033A03198E2BA22B0800C3
:100746007008F2007108F300AE2B0130F0070318B1
:10075600F10A0030F107710883120313FF007008D5
:1007660084000A128A1103200A128A11003A031D14
:10077600BD2BBE2BA82B72087002F0007308031C59
:10078600730A7102F100080083120313071487101D
:100796007408F0007508F1000A128A11A3230A12E0
:1007A6008A117108F7007008F600F801F901F52BB7
:1007B60078087407840075080318750A83120313F2
:1007C600FF000A128A1103200A128A1186000A12F1
:1007D6008A1158230A128A110130F8070318F90AF8
:1007E6000030F90777087902031DFB2B760878029B
:1007F600031CFE2BFF2BDB2B0800F401F501092C53
:100806000130F4070318F50A0030F507740870077D
:10081600F3007308840083130008031D132C142CA3
:10082600032C212C0130F4070318F50A0030F507D4
:100836000130F1070318F20A0030F207720883123A
:100846000313FF00710884000A128A1103200A129A
:100856008A11FF0074087007F300730884007F088C
:10086600831380000008031D392C3A2C152C080030
:10087600831603130814881408158815081288129D
:100886000813881383120313081288120813881397
:1008960083160313860107110710871083120313AB
:1008A600D201D3010330FC008A30FB005530FA0038
:1008B600FA0B5B2CFB0B5B2CFC0B5B2C622C30309D
:1008C6000A128A1113230A128A11013083120313A2
:1008D600D2070318D30A0030D3075308803AFF0023
:1008E60080307F02031D792C03305202031C7C2CBE
:1008F6007D2C552C0330FC008A30FB005530FA0065
:10090600FA0B832CFB0B832CFC0B832C8A2C3830A4
:100916000A128A1113230A128A1108300A128A113E
:1009260013230A128A1101300A128A1113230A129A
:100936008A1106300A128A1113230A128A110F30FD
:100946000A128A1113230A128A110130F3000030A9
:10095600F4000A128A1186230A128A114230840090
:100966001030FF0083138001840AFF0BB52C83121D
:1009760003130816081CC02CC12CF22C4130FB00B6
:10098600EE30FA00FA0BC52CFB0BC52C00008312C7
:100996000313081CCF2CD02C732D1530F400803097
:1009A600F5000A128A11C7230A128A114230F00092
:1009B6001530F1008030F2000A128A1100240A1262
:1009C6008A110830FC009D30FB000530FA00FA0B56
:1009D600EA2CFB0BEA2CFC0BEA2CF12C732D881C61
:1009E600F52CF62C1A2D4130FB00EE30FA00FA0BEE
:1009F600FA2CFB0BFA2C000083120313881C042D1F
:100A0600052D732D0F30F4008030F5000A128A117F
:100A1600C7230A128A114230F0000F30F1008030ED
:100A2600F2000A128A1100240A128A11E42C081D07
:100A36001D2D1E2D422D4130FB00EE30FA00FA0B23
:100A4600222DFB0B222D000083120313081D2C2DD3
:100A56002D2D732D0930F4008030F5000A128A110D
:100A6600C7230A128A114230F0000930F1008030A3
:100A7600F2000A128A1100240A128A11E42C881D37
:100A8600452D462D6A2D4130FB00EE30FA00FA0B5B
:100A96004A2DFB0B4A2D000083120313881D542D8B
:100AA600552D732D01300A128A1113230A128A1149
:100AB6004230F0000030F100F2001030F300003058
:100AC600F4000A128A116D230A128A11E42C4130AD
:100AD600FB00EE30FA00FA0B6E2DFB0B6E2D0000BC
:100AE6008312031308128816081C7A2D7B2DAC2D51
:100AF6004130FB00EE30FA00FA0B7F2DFB0B7F2D09
:100B0600000083120313081C892D8A2D2D2E173001
:100B1600F4008030F5000A128A11C7230A128A11DE
:100B26004230F0001730F1008030F2000A128A11CC
:100B360000240A128A110830FC009D30FB000530A3
:100B4600FA00FA0BA42DFB0BA42DFC0BA42DAB2D48
:100B56002D2E881CAF2DB02DD42D4130FB00EE304C
:100B6600FA00FA0BB42DFB0BB42D0000831203130D
:100B7600881CBE2DBF2D2D2E1130F4008030F500BF
:100B86000A128A11C7230A128A114230F000113064
:100B9600F1008030F2000A128A1100240A128A112A
:100BA6009E2D081DD72DD82DFC2D4130FB00EE3093
:100BB600FA00FA0BDC2DFB0BDC2D0000831203136D
:100BC600081DE62DE72D2D2E0B30F4008030F500A4
:100BD6000A128A11C7230A128A114230F0000B301A
:100BE600F1008030F2000A128A1100240A128A11DA
:100BF6009E2D881DFF2D002E242E4130FB00EE3049
:100C0600FA00FA0B042EFB0B042E000083120313CA
:100C1600881D0E2E0F2E2D2E0730F4008030F50085
:100C26000A128A11C7230A128A114230F0000730CD
:100C3600F1008030F2000A128A1100240A128A1189
:100C46009E2D4130FB00EE30FA00FA0B282EFB0BEE
:100C5600282E00008312031388120817081C342E4E
:100C6600352E662E4130FB00EE30FA00FA0B392E97
:100C7600FB0B392E000083120313081C432E442E4F
:100C8600252F1930F4008030F5000A128A11C72387
:100C96000A128A114230F0001930F1008030F20059
:100CA6000A128A1100240A128A110830FC009D30AB
:100CB600FB000530FA00FA0B5E2EFB0B5E2EFC0BDA
:100CC6005E2E652E252F881C692E6A2E8E2E4130AB
:100CD600FB00EE30FA00FA0B6E2EFB0B6E2E0000B8
:100CE60083120313881C782E792E252F1330F400D7
:100CF6008030F5000A128A11C7230A128A1142307F
:100D0600F0001330F1008030F2000A128A1100243C
:100D16000A128A11582E081D912E922EB62E413097
:100D2600FB00EE30FA00FA0B962EFB0B962E000017
:100D360083120313081DA02EA12E252F0D30F400BB
:100D46008030F5000A128A11C7230A128A1142302E
:100D5600F0000D30F1008030F2000A128A110024F2
:100D66000A128A11582E881DB92EBA2E1C2F413010
:100D7600FB00EE30FA00FA0BBE2EFB0BBE2E000077
:100D860083120313881DC82EC92E252F54308400C4
:100D96002030FA001230FB0083130008FC00040A1E
:100DA600FD007A0884007C088000040AFA007D08A9
:100DB6008400FB0BCF2E2030F0004230F1000030D3
:100DC600F2000A128A1100240A128A113230F00047
:100DD6002030F1000A128A1132230A128A110230D7
:100DE600F3000030F4000A128A1186230A128A11CF
:100DF6003230F4000030F5000A128A11C7230A12B5
:100E06008A110130F3000030F4000A128A11862399
:100E16000A128A114230F0000030F100F200103060
:100E2600F3000030F4000A128A116D230A128A11A7
:100E3600582E4130FB00EE30FA00FA0B202FFB0B48
:100E4600202F00008312031308138817081C2C2F69
:100E56002D2F5E2F4130FB00EE30FA00FA0B312FBA
:100E6600FB0B312F000083120313081C3B2F3C2F72
:100E7600DF2F0530F4008030F5000A128A11C723EF
:100E86000A128A114230F0000530F1008030F2007B
:100E96000A128A1100240A128A110830FC009D30B9
:100EA600FB000530FA00FA0B562FFB0B562FFC0BF6
:100EB600562F5D2FDF2F881C612F622F862F413022
:100EC600FB00EE30FA00FA0B662FFB0B662F0000D4
:100ED60083120313881C702F712FDF2F1B30F40031
:100EE6008030F5000A128A11C7230A128A1142308D
:100EF600F0001B30F1008030F2000A128A11002443
:100F06000A128A11502F081D892F8A2FAE2F4130C1
:100F1600FB00EE30FA00FA0B8E2FFB0B8E2F000033
:100F260083120313081D982F992FDF2F0330F40027
:100F36008030F5000A128A11C7230A128A1142303C
:100F4600F0000330F1008030F2000A128A1100240A
:100F56000A128A11502F881DB12FB22FD62F413079
:100F6600FB00EE30FA00FA0BB62FFB0BB62F000093
:100F760083120313881DC02FC12FDF2F0130F40009
:100F86008030F5000A128A11C7230A128A114230EC
:100F9600F0000130F1008030F2000A128A110024BC
:100FA6000A128A11502F4130FB00EE30FA00FA0B7C
:100FB600DA2FFB0BDA2F0000831203138813BA2CE7
:100FC6000A128A11002883136630FD000330FE00E2
:100FD6002030FF00543084000A128A1149230A1275
:100FE6008A11A0308400B0300A128A110B230A122B
:0A0FF6008A1183010A128A113B2CB4
:00000001FF
