:100000000A128A11FC2F00308A000408840A820731
:1000100000342B3400342D3400342F340034303489
:100020000034313400343234003433340034343466
:100030000034353400343634003437340034383446
:0A0040000034393400347834003401
:1009C200F2008312031307108710720886000A12BE
:1009D2008A11EE240A128A110800831203130715E2
:1009E2001030F000F00BF32C0000831203130711F8
:1009F2004130F100EE30F000F00BFD2CF10BFD2C3C
:100A0200000008007008F200082D0130F00770089D
:100A120084000A128A1103200A128A11003A031D65
:100A2200132D142D062D72087002F000F101F01B37
:100A3200F10308002A2D80300A128A11E1240A12D9
:100A42008A11372DC0300A128A11E1240A128A1142
:100A5200372D7408003A03192F2D372D7308013AE8
:100A620003191C2D033A0319232D372D0800831275
:100A72000313071487107308F0000A128A11032562
:100A82000A128A117108F5007008F400F601F701E4
:100A9200602D7608730784000A128A1103200A1255
:100AA2008A118312031386000A128A11EE240A1293
:100AB2008A110130F6070318F70A0030F7077508A4
:100AC2007702031D662D74087602031C692D6A2DB8
:100AD2004A2D080083160313081488140815881574
:100AE200081288120813881383120313081288123B
:100AF2000813881383160313860107110710871042
:100B0200FC01FD010330FA008A30F9005530F8008B
:100B1200F80B892DF90B892DFA0B892D902D303088
:100B22000A128A11E1240A128A110130FC07031801
:100B3200FD0A0030FD077D08803AFF0080307F0209
:100B4200031DA52D03307C02031CA82DA92D832D86
:100B52000330FA008A30F9005530F800F80BAF2D57
:100B6200F90BAF2DFA0BAF2DB62D38300A128A11C0
:100B7200E1240A128A1108300A128A11E1240A12A7
:100B82008A1101300A128A11E1240A128A110630EE
:100B92000A128A11E1240A128A110F300A128A11EA
:100BA200E1240A128A110130F3000030F4000A1223
:100BB2008A111B250A128A11FB01F32F83120313D8
:100BC2000816081CE52DE62D0A2E4130F900EE30FC
:100BD200F800F80BEA2DF90BEA2D0000831203133B
:100BE200081CF42DF52D622E1530F3000A128A111D
:100BF20038250A128A110830FA009D30F9000530B2
:100C0200F800F80B022EF90B022EFA0B022E092E17
:100C1200622E881C0D2E0E2E252E4130F900EE304C
:100C2200F800F80B122EF90B122E00008312031398
:100C3200881C1C2E1D2E622E0F30F3000A128A1100
:100C420038250A128A11FC2D081D282E292E402E25
:100C52004130F900EE30F800F80B2D2EF90B2D2E55
:100C6200000083120313081D372E382E622E09301E
:100C7200F3000A128A1138250A128A11FC2D881DE6
:100C8200432E442E5A2E4130F900EE30F800F80B74
:100C9200482EF90B482E000083120313881D522E92
:100CA200532E622E01300A128A11E1240A128A118D
:100CB200FC2D0730F9007D30F800F80B5E2EF90BA1
:100CC2005E2E8312031308128816081C692E6A2EE0
:100CD2008E2E4130F900EE30F800F80B6E2EF90B33
:100CE2006E2E000083120313081C782E792EE72E35
:100CF2001730F3000A128A1138250A128A110830B5
:100D0200FA009D30F9000530F800F80B862EF90B39
:100D1200862EFA0B862E8D2EE72E881C912E922E71
:100D2200A92E4130F900EE30F800F80B962EF90B9F
:100D3200962E000083120313881CA02EA12EE72EEC
:100D42001130F3000A128A1138250A128A11802EF4
:100D5200081DAC2EAD2EC42E4130F900EE30F80045
:100D6200F80BB12EF90BB12E000083120313081DEC
:100D7200BB2EBC2EE72E0B30F3000A128A11382547
:100D82000A128A11802E881DC72EC82EDF2E4130EE
:100D9200F900EE30F800F80BCC2EF90BCC2E000047
:100DA20083120313881DD62ED72EE72E0730F300A9
:100DB2000A128A1138250A128A11802E0730F90088
:100DC2007D30F800F80BE32EF90BE32E83120313A8
:100DD20088120817081CEE2EEF2E132F4130F9004F
:100DE200EE30F800F80BF32EF90BF32E000083120D
:100DF2000313081CFD2EFE2E6B2F1930F3000A126E
:100E02008A1138250A128A110830FA009D30F90039
:100E12000530F800F80B0B2FF90B0B2FFA0B0B2FE9
:100E2200122F6B2F881C162F172F2E2F4130F900EF
:100E3200EE30F800F80B1B2FF90B1B2F000083126A
:100E42000313881C252F262F6B2F1330F3000A1251
:100E52008A1138250A128A11052F081D312F322FC7
:100E6200492F4130F900EE30F800F80B362FF90B1C
:100E7200362F000083120313081D402F412F6B2FC2
:100E82000D30F3000A128A1138250A128A11052F31
:100E9200881D4C2F4D2F632F4130F900EE30F800A2
:100EA200F80B512FF90B512F000083120313881DE9
:100EB2005B2F5C2F6B2F01300A128A11E1240A1278
:100EC2008A11052F0730F9007D30F800F80B672FE3
:100ED200F90B672F8312031308138817081C722F4C
:100EE200732F972F4130F900EE30F800F80B772F6F
:100EF200F90B772F000083120313081C812F822F16
:100F0200F02F0530F3000A128A1138250A128A11CD
:100F12000830FA009D30F9000530F800F80B8F2FE9
:100F2200F90B8F2FFA0B8F2F962FF02F881C9A2FE9
:100F32009B2FB22F4130F900EE30F800F80B9F2FB3
:100F4200F90B9F2F000083120313881CA92FAA2FCD
:100F5200F02F1B30F3000A128A1138250A128A1167
:100F6200892F081DB52FB62FCD2F4130F900EE3055
:100F7200F800F80BBA2FF90BBA2F000083120313F3
:100F8200081DC42FC52FF02F0330F3000A128A1157
:100F920038250A128A11892F881DD02FD12FE82FC8
:100FA2004130F900EE30F800F80BD52FF90BD52FB0
:100FB200000083120313881DDF2FE02FF02F013072
:100FC200F3000A128A1138250A128A11892F073072
:100FD200F9007D30F800F80BEC2FF90BEC2F83129F
:100FE200031388137B080319F72FF82FDF2DD42D55
:0E0FF2000A128A11002883010A128A116B2D3F
:00000001FF
