:100000000A128A11F32FFF1B0D2883137F18831701
:100010000008840A0319FF0A080000308A00040857
:10002000840A820700344C3469346D346934743482
:100030002034723465346134633468346534643434
:100040002E34003430342B3400342D3400342F342B
:10005000003430340034313400343234003433343A
:10006000003434340034353400343634003437341A
:10007000003438340034393400343D3400344334EF
:0600800000347834003466
:1007D20064008001840A0406031900340406EA2B2B
:1007E200F2008312031307108710720886000A12A0
:1007F2008A11FE230A128A110800831203130715B5
:100802001030F000F00B032C0000831203130711C9
:100812004130F100EE30F000F00B0D2CF10B0D2CFD
:10082200000008007008F5001D2C7508840071088E
:10083200831380000130F5070130F3020030031CFE
:10084200F403F402730A031D2A2C740A031D2A2CD2
:100852002B2C162C08003B2C80300A128A11F12313
:100862000A128A11482CC0300A128A11F1230A1284
:100872008A11482C7408003A0319402C482C73083A
:10088200013A03192D2C033A0319342C482C080081
:100892007008F5007208F4007108F300F10A0319F8
:1008A200F20A740883120313FF00730884000A1209
:1008B2008A1103200A128A11FF007508F50A8400C2
:1008C2007F08831380000008031D682C692C4B2CC1
:1008D20008007008F2007108F300752C0130F0076F
:1008E2000318F10A0030F107710883120313FF00A5
:1008F200700884000A128A1103200A128A11003A2F
:10090200031D842C852C6F2C72087002F000730872
:10091200031C730A7102F10008007B08F400003026
:10092200031D8030F5000A128A11B5240A128A11B9
:100932007A08F0007B08F1000030031D8030F200DD
:100942000A128A11EE240A128A1108308312031342
:10095200A2009D30A1000530A000A00BAE2CA10B7F
:10096200AE2CA20BAE2C08008312031307148710BF
:100972007408F0007508F1000A128A116A240A123A
:100982008A117108F7007008F600F801F901E32CEA
:1009920078087407840075080318750A8312031314
:1009A200FF000A128A1103200A128A1186000A1213
:1009B2008A11FE230A128A110130F8070318F90A74
:1009C2000030F90777087902031DE92C76087802CE
:1009D200031CEC2CED2CC92C0800F401F501F72CBA
:1009E2000130F4070318F50A0030F50774087007A0
:1009F200F3007308840083130008031D012D022DE8
:100A0200F12C0F2D0130F4070318F50A0030F50719
:100A12000130F1070318F20A0030F207720883125C
:100A22000313FF00710884000A128A1103200A12BC
:100A32008A11FF0074087007F300730884007F08AE
:100A4200831380000008031D272D282D032D080085
:100A520083160313081488140815881508128812BF
:100A620008138813831203130812881208138813B9
:100A720083160313860107110710871083120313CD
:100A8200D601D701033083120313A5008A30A400D4
:100A92005530A300A30B4B2DA40B4B2DA50B4B2DB7
:100AA20030300A128A11F1230A128A11013083129C
:100AB2000313D6070318D70A0030D7075708803A1E
:100AC200FF0080307F02031D682D03305602031C95
:100AD2006B2D6C2D432D033083120313A5008A3036
:100AE200A4005530A300A30B742DA40B742DA50BE9
:100AF200742D38300A128A11F1230A128A11083031
:100B02000A128A11F1230A128A1101300A128A1179
:100B1200F1230A128A1106300A128A11F1230A12EB
:100B22008A110F300A128A11F1230A128A11013036
:100B3200F3000030F4000A128A112C240A128A11DE
:100B4200463084001030FF0083138001840AFF0BBB
:100B5200A52D0A128A115E260A128A118312031324
:100B6200D8004D2E3630F0001030F1008030F20007
:100B72000A128A1149240A128A113630F0004630CC
:100B8200F1000030F2000A128A11EE240A128A11D0
:100B92002630F0003630F1000030F2000A128A11DD
:100BA20049240A128A110230F3000030F4000A12BA
:100BB2008A112C240A128A112630F4000030F50022
:100BC2000A128A11B5240A128A110130F300003088
:100BD200F4000A128A112C240A128A114630F000FB
:100BE2000030F100F2001030F3000030F4000A127D
:100BF2008A1113240A128A11AA2D01300A128A11AB
:100C0200F1230A128A114630F0000030F100F2009E
:100C12001030F3000030F4000A128A1113240A1271
:100C22008A11AA2D4630F0000030F1000A128A1112
:100C32006A240A128A1100307102103003197002FC
:100C42000318242E252E312E4630FA008312031368
:100C52005808FB000A128A118E240A128A11AA2D40
:100C62000230F3000030F4000A128A112C240A1216
:100C72008A110130F4008030F5000A128A11B5247D
:100C82000A128A110130F3000030F4000A128A11AC
:100C92002C240A128A11AA2D580884000A128A11D9
:100CA2000D200A128A113D3A0319B32D7E3A031917
:100CB200FE2D132E0A128A1100280D30F200AF30D9
:100CC200F100B630F000F00B642EF10B642EF20B43
:100CD200642E0000831203130816081C712E722E54
:100CE200832E4130F100EE30F000F00B762EF10B46
:100CF200762E000083120313081C802E812ECB2E29
:100D02002530F22F881C862E872E982E4130F10036
:100D1200EE30F000F00B8B2EF10B8B2E00008312C5
:100D22000313881C952E962ECB2E1F30F22F081DF2
:100D32009B2E9C2EAD2E4130F100EE30F000F00BD8
:100D4200A02EF10BA02E000083120313081DAA2E61
:100D5200AB2ECB2E1930F22F881DB02EB12EC22E03
:100D62004130F100EE30F000F00BB52EF10BB52E54
:100D7200000083120313881DBF2EC02ECB2E2D30F0
:100D8200F22F4130F100EE30F000F00BC62EF10BE5
:100D9200C62E00008312031308128816081CD22ED6
:100DA200D32EE42E4130F100EE30F000F00BD72EBE
:100DB200F10BD72E000083120313081CE12EE22E42
:100DC2002C2F2730F22F881CE72EE82EF92E4130E7
:100DD200F100EE30F000F00BEC2EF10BEC2E0000E7
:100DE20083120313881CF62EF72E2C2F2130F22F9C
:100DF200081DFC2EFD2E0E2F4130F100EE30F000CA
:100E0200F00B012FF10B012F000083120313081DB9
:100E12000B2F0C2F2C2F1B30F22F881D112F122F6E
:100E2200232F4130F100EE30F000F00B162FF10BC2
:100E3200162F000083120313881D202F212F2C2F21
:100E42001730F22F4130F100EE30F000F00B272F77
:100E5200F10B272F00008312031388120817081CB6
:100E6200332F342F452F4130F100EE30F000F00BDC
:100E7200382FF10B382F000083120313081C422F66
:100E8200432F8D2F2930F22F881C482F492F5A2F9C
:100E92004130F100EE30F000F00B4D2FF10B4D2FF1
:100EA200000083120313881C572F582F8D2F2330D5
:100EB200F22F081D5D2F5E2F6F2F4130F100EE30B3
:100EC200F000F00B622FF10B622F0000831203136C
:100ED200081D6C2F6D2F8D2F1D30F22F881D722F44
:100EE200732F842F4130F100EE30F000F00B772F9A
:100EF200F10B772F000083120313881D812F822F9D
:100F02008D2F2B30F22F4130F100EE30F000F00B3C
:100F1200882FF10B882F0000831203130813881700
:100F2200081C942F952FA62F4130F100EE30F000CF
:100F3200F00B992FF10B992F000083120313081C59
:100F4200A32FA42FEE2F1530F22F881CA92FAA2F22
:100F5200BB2F4130F100EE30F000F00BAE2FF10B61
:100F6200AE2F000083120313881CB82FB92FEE2F67
:100F72002F30F22F081DBE2FBF2FD02F4130F1008E
:100F8200EE30F000F00BC32FF10BC32F00008312E1
:100F92000313081DCD2FCE2FEE2F1330F22F881DF5
:100FA200D32FD42FE52F4130F100EE30F000F00BBB
:100FB200D82FF10BD82F000083120313881DE22FC4
:100FC200E32FEE2F1130F22F4130F100EE30F0001E
:100FD200F00BE92FF10BE92F0000831203138813A2
:100FE2006B2E080083135930840069300A128A116B
:0E0FF200E9230A128A1183010A128A11292D9D
:00000001FF
