:060000000A128A11E62F2E
:10000C0008000030831203133505BD00003036059F
:10001C00BE0080303705BF007F303805C000400877
:10002C003F043E043D04031D1C281D2825280030D8
:10003C00B8000030B7000030B6000030B50000301A
:10004C003905BD0000303A05BE0080303B05BF00CD
:10005C007F303C05C00040083F043E043D04031DB6
:10006C003828392841280030BC000030BB00003053
:10007C00BA000030B900B81F442845286928003060
:10008C00BD000030BE000030BF008030C00035081D
:10009C00BD023608031C360F54285528BE023708FB
:1000AC00031C370F5A285B28BF023808031C380F73
:1000BC0060286128C0024008B8003F08B7003E081D
:1000CC00B6003D08B500BC1F6C286D289128003087
:1000DC00BD000030BE000030BF008030C0003908C9
:1000EC00BD023A08031C3A0F7C287D28BE023B084F
:1000FC00031C3B0F82288328BF023C08031C3C0FC7
:10010C0088288928C0024008BC003F08BB003E0874
:10011C00BA003D08B9008030B8068030BC063C08F7
:10012C003802031DA3283B083702031DA3283A08F5
:10013C003602031DA328390835020318A628A72860
:10014C00A9280310AA28031408003F3083160313B0
:10015C00CB008030CA000030C9000030C800AF01AD
:10016C00B0014708F3004608F2004508F1004408C6
:10017C00F0000030F7000030F6000030F5000030E1
:10018C00F4000A168A153C240A128A110318CF2887
:10019C00D028E12AE128831603133608CB00350852
:1001AC00CA003408C9003308C8000130AF0703186F
:1001BC00B00A0030B007413083120313A300203083
:1001CC00A2000030A1000030A000831603134B08DE
:1001DC0083120313A700831603134A088312031315
:1001EC00A60083160313490883120313A500831674
:1001FC000313480883120313A4000A128A15BE24A1
:10020C000A128A1183120313230883160313B600F0
:10021C0083120313220883160313B50083120313EE
:10022C00210883160313B4008312031320088316CA
:10023C000313B300440883120313D800831603136B
:10024C00450883120313D90083160313460883123F
:10025C000313DA0083160313470883120313DB001E
:10026C0083160313330883120313D8028316031364
:10027C003408031C340F4329462983120313D90273
:10028C00831603133508031C350F4D29502983128F
:10029C000313DA02831603133608031C360F57298F
:1002AC005A2983120313DB028316031383120313DD
:1002BC005B08F3005A08F2005908F1005808F000E6
:1002CC000A168A15CC220A128A11F31B7D2973088F
:1002DC00031D7E297208031D7E297108031D7E29CA
:1002EC0002307002031D7A29031C7D297E29D12836
:1002FC0083160313360883120313B80083160313F3
:10030C00350883120313B7008316031334088312C2
:10031C000313B60083160313330883120313B500BB
:10032C0083160313470883120313BC0083160313AD
:10033C00460883120313BB0083160313450883126C
:10034C000313BA0083160313440883120313B90072
:10035C000A128A1107200A128A11031CB629B7291E
:10036C00D12883160313440883120313D800831671
:10037C000313450883120313D9008316031346088D
:10038C0083120313DA008316031347088312031333
:10039C00DB0083160313480883120313D802831659
:1003AC0003134908031C490FDC29DF2983120313AB
:1003BC00D902831603134A08031C4A0FE629E929BC
:1003CC0083120313DA02831603134B08031C4B0F1F
:1003DC00F029F32983120313DB0283160313831210
:1003EC0003135B08F3005A08F2005908F10058088F
:1003FC00F0000A168A15CC220A128A11F31B172A4E
:10040C007308031D162A7208031D162A7108031D92
:10041C00162A02307002031D132A0318162A172AF3
:10042C00A82A831603134B08C7004A08C6004908BC
:10043C00C5004808C400E12A4130F3002030F20026
:10044C000030F1000030F000831603134B08F70066
:10045C004A08F6004908F5004808F4000A128A1503
:10046C009E200A128A11730883160313CB0072089C
:10047C00CA007108C9007008C800FF30AF07031824
:10048C00B00AFF30B007440883120313D800831658
:10049C000313450883120313D9008316031346086C
:1004AC0083120313DA008316031347088312031312
:1004BC00DB0083160313480883120313D802831638
:1004CC0003134908031C490F6C2A6F2A8312031368
:1004DC00D902831603134A08031C4A0F762A792A79
:1004EC0083120313DA02831603134B08031C4B0FFE
:1004FC00802A832A83120313DB02831603138312CD
:10050C0003135B08F3005A08F2005908F10058086D
:10051C00F0000A168A15CC220A128A11F31BA72A9C
:10052C007308031DA62A7208031DA62A7108031D51
:10053C00A62A02307002031DA32A0318A62AA72A92
:10054C00A82A172A83160313470883120313B8002B
:10055C0083160313460883120313B7008316031381
:10056C00450883120313B600831603134408831241
:10057C000313B500831603134B0883120313BC003B
:10058C00831603134A0883120313BB008316031349
:10059C00490883120313BA00831603134808831205
:1005AC000313B9000A128A1107200A128A11031CBC
:1005BC00E02AE12A222A8312031357088316031315
:1005CC00A9002908AA00ED1BEC2AED2AF22A6D08D5
:1005DC00A3006C08A200F62A0630A2000030A3008B
:1005EC002308AE002208AD000130AD070318AE0A97
:1005FC000030AE0766302A06031D052B062B202B78
:10060C00B01F092B0A2B142B3F30CB008030CA00B3
:10061C000030C9000030C800AF01B00167302906B6
:10062C000319192B1A2B202B2F08AD070318AE0A10
:10063C003008AE07B701B8014708BC004608BB003C
:10064C004508BA004408B9004B08B6004A08B50082
:10065C004908B4004808B3001B2C831603134B083D
:10066C00F3004A08F2004908F1004808F0003C0881
:10067C00F7003B08F6003A08F5003908F4000A12B6
:10068C008A159E200A128A11730883120313B00074
:10069C007208AF007108AE007008AD000A168A111E
:1006AC0013210A128A1183120313300883160313C1
:1006BC00C000831203132F0883160313BF00831289
:1006CC0003132E0883160313BE00831203132D0885
:1006DC0083160313BD004008F3003F08F2003E08E8
:1006EC00F1003D08F0000A168A15DD240A128A1161
:1006FC00710883160313AC007008AB004B0883120F
:10070C000313A700831603134A0883120313A600CE
:10071C0083160313490883120313A50083160313CE
:10072C00480883120313A400831603134008831292
:10073C000313A300831603133F0883120313A200B1
:10074C00831603133E0883120313A10083160313AD
:10075C003D0883120313A0000A128A15BE240A1244
:10076C008A11831203132308CC002208CB00210822
:10077C00CA002008C900831603133C088312031314
:10078C00D000831603133B0883120313CF00831688
:10079C0003133A0883120313CE008316031339088C
:1007AC0083120313CD000A168A1555230A128A11D7
:1007BC00831203134C0883160313BC008312031318
:1007CC004B0883160313BB00831203134A088316CA
:1007DC000313BA0083120313490883160313B900D9
:1007EC004130F3002030F2000030F1000030F00016
:1007FC004B08F7004A08F6004908F5004808F400D1
:10080C000A128A159E200A128A1173088316031382
:10081C00CB007208CA007108C9007008C80001300A
:10082C00B7070318B80A0030B8073808803A8312A3
:10083C000313D800831603132E08803A8312031374
:10084C005802031D2D2C831603132D083702031C8D
:10085C00302C312C332B403083120313A300A030E7
:10086C00A2000030A1000030A000831603134B0837
:10087C0083120313A700831603134A08831203136E
:10088C00A60083160313490883120313A5008316CD
:10089C000313480883120313A4000A128A15BE24FA
:1008AC000A128A1183120313230883160313C00040
:1008BC0083120313220883160313BF00831203133E
:1008CC00210883160313BE0083120313200883161A
:1008DC000313BD003C0883120313B80083160313E3
:1008EC003B0883120313B700831603133A088312D1
:1008FC000313B60083160313390883120313B500D0
:10090C0083160313400883120313BC0083160313CE
:10091C003F0883120313BB00831603133E08831294
:10092C000313BA00831603133D0883120313B90093
:10093C000A128A1107200A128A110318A62CA72C56
:10094C00B22C003083160313C0000030BF000030FF
:10095C00BE000030BD00DB2C831603133C08F300F3
:10096C003B08F2003A08F1003908F0004008F700A3
:10097C003F08F6003E08F5003D08F4000A168A15FB
:10098C003C240A128A11031CCC2CCD2CDB2C831694
:10099C0003132B18D22CD32CDB2C0030C0000030CE
:1009AC00BF000030BE000030BD00831603134008AA
:1009BC0083120313B800831603133F088312031327
:1009CC00B700831603133E0883120313B600831675
:1009DC0003133D0883120313B50083160313470852
:1009EC0083120313BC0083160313460883120313EC
:1009FC00BB0083160313450883120313BA00831636
:100A0C000313440883120313B9000A128A156E22C9
:100A1C000A128A1183120313380883160313BC00BD
:100A2C0083120313370883160313BB0083120313BB
:100A3C00360883160313BA00831203133508831682
:100A4C000313B9003C0883120313B8008316031375
:100A5C003B0883120313B700831603133A0883125F
:100A6C000313B60083160313390883120313B5005E
:100A7C004130A3002030A2000030A1000030A000C3
:100A8C0083160313360883120313A700831603136C
:100A9C00350883120313A60083160313340883123C
:100AAC000313A50083160313330883120313A40046
:100ABC000A128A15BE240A128A1183120313230800
:100ACC00BC002208BB002108BA002008B9000A1299
:100ADC008A1107200A128A11031C752D762DC92D37
:100AEC00013083160313AF070318B00A0030B007A8
:100AFC00413083120313A3002030A2000030A10068
:100B0C000030A00083160313360883120313A700CA
:100B1C0083160313350883120313A60083160313DD
:100B2C00340883120313A5008316031333088312AE
:100B3C000313A4000A128A15BE240A128A11831206
:100B4C000313230883160313B6008312031322081E
:100B5C0083160313B50083120313210883160313A2
:100B6C00B40083120313200883160313B3006630FA
:100B7C002A06031DC22DC32DC92D0130AD07031844
:100B8C00AE0A0030AE07831603133608CB003508C7
:100B9C00CA003408C9003308C8003008A1002F0867
:100BAC00A000A801A401A501B701B8013D2F83162F
:100BBC0003134B08F3004A08F2004908F1004808F7
:100BCC00F0003C08F7003B08F6003A08F50039083D
:100BDC00F4000A128A159E200A128A1173088312D5
:100BEC000313B0007208AF007108AE007008AD00BE
:100BFC000A168A1113210A128A1183120313300860
:100C0C0083160313C000831203132F0883160313D8
:100C1C00BF00831203132E0883160313BE00831226
:100C2C0003132D0883160313BD004008F3003F087F
:100C3C00F2003E08F1003D08F0000A168A15DD248A
:100C4C000A128A117108803AFF0080307F02031D5E
:100C5C00312E0A3070020318342E352E4B2E83168B
:100C6C0003134008F3003F08F2003E08F1003D0872
:100C7C00F0000A168A15DD240A128A1171088316EF
:100C8C000313AC007008AB00512E0930831603130C
:100C9C00AB000030AC002808031D552E562E872EB5
:100CAC00A11F592E5A2E872E4208103E84002E303A
:100CBC00831780000130C2070318C30A0030C30732
:100CCC00FF30B1070318B20AFF30B2070130A80099
:100CDC00872E4208103E840030308317800001308C
:100CEC00C2070318C30A0030C307FF30B10703184B
:100CFC00B20AFF30B207FF30A4070318A50AFF3071
:100D0C00A50724082504031D8C2E8D2E6F2E42085A
:100D1C00103E84002B08303E831780000130C20740
:100D2C000318C30A0030C307FF30B1070318B20A17
:100D3C00FF30B2074B0883120313A700831603136B
:100D4C004A0883120313A60083160313490883125F
:100D5C000313A50083160313480883120313A4007E
:100D6C0083160313400883120313A3008316031383
:100D7C003F0883120313A200831603133E08831249
:100D8C000313A100831603133D0883120313A00061
:100D9C000A128A15BE240A128A118312031323081D
:100DAC00CC002208CB002108CA002008C9008316F9
:100DBC0003133C0883120313D000831603133B0860
:100DCC0083120313CF00831603133A088312031301
:100DDC00CE0083160313390883120313CD000A16B1
:100DEC008A1555230A128A11831203134C08831691
:100DFC000313BC00831203134B0883160313BB00AD
:100E0C00831203134A0883160313BA0083120313C5
:100E1C00490883160313B9004130F3002030F20067
:100E2C000030F1000030F0004B08F7004A08F600E3
:100E3C004908F5004808F4000A128A159E200A1287
:100E4C008A11730883160313CB007208CA00710849
:100E5C00C9007008C800FF30A0070318A10AFF30B2
:100E6C00A1070130B7070318B80A0030B8073808D3
:100E7C00803A83120313D800831603132E08803A8A
:100E8C00831203135802031D4F2F831603132D08CF
:100E9C0037020318522F532F622F83160313430864
:100EAC00803AFF0080307F02031D5E2F4B304202E0
:100EBC00031C612F622FDD2D4F3083160313B700F7
:100ECC000030B8003708103E8400831780011030C2
:100EDC0083120313D80083160313420883120313DF
:100EEC00D802831603133708831203135807F00034
:100EFC001030F100831603134308F3004208F2008C
:100F0C000A168A1513230A128A1183160313420830
:100F1C003702C2004308031C430A3802C3004108CD
:100F2C00031D992F9B2F01309C2F0030831203132C
:100F3C00D800D901580883160313B7008312031382
:100F4C00590883160313B80041080319AE2FAF2FAD
:100F5C00BB2FFF30C2070318C30AFF30C307420878
:100F6C00103E84004108831780003708B10238080E
:100F7C00031CB203B202831203135108A8005208D7
:100F8C00A900831603134208103E83120313AA0010
:100F9C0083160313320883120313AC008316031356
:100FAC00310883120313AB000A168A158A240A121D
:100FBC008A11831203132908D2002808D1000800D3
:100FCC0083160313EC01ED01EE01831790308400BE
:100FDC00B6300A168A15B7220A128A11103084000C
:100FEC0060300A168A15B7220A128A1183010A1672
:040FFC008A11432EE5
:101008008030831603134E02003003194D02031C6F
:101018000E280F2816284B3083160317A40000301B
:10102800A5009D28D030D6004C08D9000130DA0040
:1010380000304E02023003194D02031C24282528D3
:1010480030284D08FF3EE2004E080318013EFF3EDF
:10105800E300DB01DC0138280130E2000030E30066
:101068000130DB000030DC00D93083120313E800C4
:101078000030E900831603134F0883120313EA00B4
:10108800D630EB000A168A15FD230A128A15831238
:101098000313690883160313D8008312031368081F
:1010A80083160313D7004D084E0403195C285D28E6
:1010B8009D28D81B602861289D284D08FF3E831273
:1010C8000313ED00831603134E080318013EFF3E79
:1010D80083120313EE00831603135808803A831211
:1010E8000313EF006E08803A6F02031D7F286D0816
:1010F800831603135702031C822883288E2883161D
:1011080003134D08FF3ED4004E080318013EFF3E6E
:10111800D5009428831603135808D5005708D4001F
:1011280054084C0783120313ED006D0884008317DD
:1011380080010800770883120313A4008030A405F7
:101148007708F8007807AB00F61FAB28AC28AD2865
:101158002B142B080319B128B228C2282B0A031D07
:10116800B628B728BF280030F7000030F600003056
:10117800F5000030F400F617F701CA280030F70030
:101188000030F6000030F5000030F40073088039B4
:10119800A4067308F8007807AC00F21FD428D528F5
:1011A800D6282C142C080319DA28DB28EB282C0A5B
:1011B800031DDF28E028E8280030F3000030F200A3
:1011C8000030F1000030F000F217F301F32800308E
:1011D800F3000030F2000030F1000030F000730836
:1011E800720471047004031DFA28FB2812290030C8
:1011F800F7000030F6000030F5000030F4008030D1
:10120800F6047F30F7042408F7047708F30076081B
:10121800F2007508F1007408F0006D2A2B08031D10
:101228001629172920290030F3000030F200003079
:10123800F1000030F0006D2A2B08F800F901790858
:10124800FB002C087802FA00031CFB037A087F3E97
:10125800A5007B080318013E003EA6007708A300FE
:101268007608A2007508A1007408A0000030F700F5
:101278000030F6000030F5000030F4000030AA001D
:101288000030A9000030A8000030A700AC019A295E
:101298002C0803195029512971290130F80003102D
:1012A800A00DA10DA20DA30DF80B53290130F800D4
:1012B8000310F40DF50DF60DF70DF80B5C29AA1FB8
:1012C80066296729682974140130F8000310A70DEE
:1012D800A80DA90DAA0DF80B6A2973082302031D8E
:1012E8007F2972082202031D7F2971082102031D2C
:1012F8007F2970082002031C8229832998292A172C
:101308007008A0027108031C710F8B298C29A10297
:101318007208031C720F91299229A2027308031CF8
:10132800730F97299829A3020130AC071A302C02B1
:10133800031C9F29A0294C292308220421042004E6
:101348000319A729A829C7292714C7290130F80094
:101358000310F40DF50DF60DF70DF80BAC29AA1FC7
:10136800B629B729B82974140130F8000310A70D5D
:10137800A80DA90DAA0DF80BBA29FF30A507031867
:10138800A60AFF30A607F61FCA29CB29AA29AC014D
:10139800AA1FCF29D029EC29FF302705F800FF30F4
:1013A8002805F900FF302905FA007F302A05FB00DF
:1013B8007B087A04790478040319E329E429E729E6
:1013C8000130AC00EC29741CEA29EB29EC29E4294A
:1013D8002C080319F029F129222A0130F4070030DA
:1013E80003180130F507003003180130F607003004
:1013F80003180130F707771C022A032A222A7408E7
:10140800F8007508F9007608FA007708FB00013043
:10141800FC007B0DFB0CFA0CF90CF80CFC0B0D2AEC
:101428007B08F7007A08F6007908F5007808F400D8
:101438000130A5070318A60A0030A6072608803A37
:10144800FF0080307F02031D2B2AFF302502031C7A
:101458002E2A2F2A3D2AFF3083120313A5000030BD
:10146800A6000030F7000030F6000030F50000302C
:10147800F400831203132608803AFF0080307F02AD
:10148800031D482A0130250203184B2A4C2A592AE1
:1014980083120313A501A6010030F7000030F600FF
:1014A8000030F5000030F400A4018312031325086E
:1014B800AB002B1C602A612A632AF617652A7F3045
:1014C800F6052B08F8000310780CF7002408F70439
:1014D80009290800831203133808C5008030C505A0
:1014E8003808BD003D07C700B71F7B2A7C2A7D2A24
:1014F800471447080319812A822A922A470A031D9A
:10150800862A872A8F2A0030B8000030B7000030BA
:10151800B6000030B500B717B8019A2A0030B800F5
:101528000030B7000030B6000030B5003C08C600F7
:101538008030C605460845060319A32AA42AA52A09
:1015480045173C08BD003D07C600BB1FAC2AAD2AA5
:10155800AE2A461446080319B22AB32AC32A460AF1
:10156800031DB72AB82AC02A0030BC000030BB00CF
:101578000030BA000030B900BB17BC01CB2A0030DC
:10158800BC000030BB000030BA000030B90047088A
:1015980046020318D02AD12AF52A451FD42AD52A6B
:1015A800D72A8030C5064708C8004608C70048083B
:1015B800C6003508C8003908B5004808B90036081B
:1015C800C8003A08B6004808BA003708C8003B08FF
:1015D800B7004808BB003808C8003C08B8004808ED
:1015E800BC00C8014608BD00BE013E08C00047084F
:1015F8003D02BF00031CC0034008803AFF00803052
:101608007F02031D092B1A303F02031C0C2B0D2BE4
:10161800422B831203133808370436043504031D9C
:10162800162B182B0130192B0030C8000030B800D9
:101638000030B7000030B6000030B5004608C700DB
:101648004A2B481C282B292B302B4808BD00031097
:101658003D0C0138C800322B0310C80C351C352B43
:10166800362B372BC8170130BD00380DB80CB70C16
:10167800B60CB50CBD0B392B0130C7078312031309
:1016880046084702031C492B4A2B252B451B4D2B8B
:101698004E2B952B4708031D522B532B5C2B0030E8
:1016A800B8000030B7000030B6000030B500BD2CDF
:1016B8003908B5073A0803110318013E0319652BC9
:1016C800B6073B0803110318013E03196C2BB70733
:1016D8003C0803110318013E0319732BB807381C83
:1016E800762B772B492C481C7A2B7B2B822B48088E
:1016F800BD0003103D0C0138C800842B0310C80C32
:10170800351C872B882B892BC8170130BD00380D55
:10171800B80CB70CB60CB50CBD0B8B2B0130C7073A
:10172800492C3808803AFF003C08803A7F02031DA4
:10173800A72B3B083702031DA72B3A083602031DC7
:10174800A72B390835020318AA2BAB2B022CFF3024
:10175800BD00FF30BE00FF30BF00FF30C0003908B9
:10176800C1003A08C2003B08C3003C08C400350861
:10177800C1023608031C360FC22BC32BC20237081E
:10178800031C370FC82BC92BC3023808031C380F9A
:10179800CE2BCF2BC4024108BD0742080318420FC5
:1017A800D62BD72BBE0743080318430FDC2BDD2BA2
:1017B800BF0744080318440AC0074008B8003F0898
:1017C800B7003E08B6003D08B5008030C50648039E
:1017D800FF3AC8004808031DF22BF32B102C0130E8
:1017E800B507003003180130B60700300318013080
:1017F800B707003003180130B807102C3908B502B4
:101808003A08031C3A0FB6023B08031C3B0FB70209
:101818003C08031C3C0FB80238083704360435046A
:10182800031D172C182C452C4808031D1C2C1D2C97
:10183800452C0030B8000030B7000030B60000304A
:10184800B500BD2C0130BD000310B50DB60DB70DA8
:10185800B80DBD0B282CC81F322C332C342C351452
:10186800481C372C382C3C2C0314480DC8003E2C3F
:101878000310C80D47080319422C432C452C01308E
:10188800C702B71F482C492C262CC601C81F4D2C4F
:101898004E2C5C2C48087F390319532C542C572C98
:1018A8000130C6005C2C351C5A2C5B2C5C2C542C4B
:1018B80046080319602C612C932C0130B5070030C1
:1018C80003180130B607003003180130B70700309D
:1018D80003180130B807381C722C732C932C350868
:1018E800BD003608BE003708BF003808C000013008
:1018F800C100400DC00CBF0CBE0CBD0CC10B7D2C33
:101908004008B8003F08B7003E08B6003D08B500DB
:10191800470A0319902C912C932C0130C707470ACA
:101928000319972C982C9D2C4708031D9C2C9D2C43
:10193800AB2C0030B8000030B7000030B6000030E3
:10194800B5004708031DA92CAA2CAB2CC501471CC0
:10195800AE2CAF2CB12CB717B32C7F30B705470886
:10196800BD0003103D0CB800C51FBB2CBC2CBD2C02
:10197800B8170800831203132308A8008030A805AD
:101988002308F9007907AE00A21FCB2CCC2CCD2C54
:101998002E142E080319D12CD22CE12C2E0A031D4B
:1019A800D62CD72CDF2C0030A3000030A20000304A
:1019B800A1000030A000A217E92C0030A3000030DD
:1019C800A2000030A1000030A00027088039A80636
:1019D8002708F9007907AD00A61FF32CF42CF52C85
:1019E8002D142D080319F92CFA2C092D2D0A031D85
:1019F800FE2CFF2C072D0030A7000030A600003079
:101A0800A5000030A400A617112D0030A700003053
:101A1800A6000030A5000030A4002D080319152DDC
:101A2800162D1B2D2E08031D1A2D1B2D242D0030BD
:101A3800A3000030A2000030A1000030A000FF2F5A
:101A48002008F00026080A168A159D230A128A150E
:101A5800710883120313B4007008B3003308F90047
:101A6800FA01FB01FC017C08AC007B08AB007A089A
:101A7800AA007908A9003408F900FA01FB01FC0161
:101A88007C08B2007B08B1007A08B0007908AF0082
:101A98002108F00025080A168A159D230A128A15BE
:101AA800710883120313B4007008B3003308F900F7
:101AB800FA01FB01FC017908A9077A080311031848
:101AC800013E0319682DAA077B0803110318013E7C
:101AD80003196F2DAB077C0803110318013E031986
:101AE800762DAC073408F900FA01FB01FC017908EE
:101AF800AF077A0803110318013E0319842DB007B4
:101B08007B0803110318013E03198B2DB1077C08CC
:101B180003110318013E0319922DB2072208F000A1
:101B280024080A168A159D230A128A157108831239
:101B38000313B4007008B3003308F900FA01FB017D
:101B4800FC017908A9077A0803110318013E031953
:101B5800AE2DAA077B0803110318013E0319B52D02
:101B6800AB077C0803110318013E0319BC2DAC0711
:101B78003408F900FA01FB01FC017908AF077A087B
:101B880003110318013E0319CA2DB0077B0803117E
:101B98000318013E0319D12DB1077C08031103185E
:101BA800013E0319D82DB2070830F9000310A90D1A
:101BB800AA0DAB0DAC0DF90BDA2D2108F0002408A5
:101BC8000A168A159D230A128A15710883120313AF
:101BD800B4007008B3003308F9003408FA00FB01B8
:101BE800FC017908A9077A0803110318013E0319B3
:101BF800FE2DAA077B0803110318013E0319052EC1
:101C0800AB077C0803110318013E03190C2EAC071F
:101C18002008F00025080A168A159D230A128A153D
:101C2800710883120313B4007008B3003308F90075
:101C38003408FA00FB01FC017908A9077A080311A6
:101C48000318013E0319292EAA077B08031103185C
:101C5800013E0319302EAB077C0803110318013E1F
:101C68000319372EAC070830F9000310A90DAA0D87
:101C7800AB0DAC0DF90B392E2008F00024080A161C
:101C88008A159D230A128A15710883120313B4005A
:101C98007008B3003308F9003408FA00FB01FC01AE
:101CA8007908A9077A0803110318013E03195D2E64
:101CB800AA077B0803110318013E0319642EAB071A
:101CC8007C0803110318013E03196B2EAC07210889
:101CD800F00026080A168A159D230A128A1571082B
:101CE80083120313B4007008B3003308F9003408F2
:101CF800FA00FB01FC017908AF077A080311031801
:101D0800013E0319882EB0077B0803110318013E12
:101D180003198F2EB1077C0803110318013E03191C
:101D2800962EB2072208F00025080A168A159D2368
:101D38000A128A15710883120313B4007008B300DD
:101D48003308F9003408FA00FB01FC017908AF07F1
:101D58007A0803110318013E0319B32EB0077B0854
:101D680003110318013E0319BA2EB1077C080311A9
:101D78000318013E0319C12EB2072208F0002608F5
:101D88000A168A159D230A128A15710883120313ED
:101D9800B4007008B3003308F9003408FA00FB01F6
:101DA800FC0108300310F90DFA0DFB0DFC0DFF3E88
:101DB800031DD62E7908AF077A0803110318013ED0
:101DC8000319E72EB0077B0803110318013E031916
:101DD800EE2EB1077C0803110318013E0319F52EF6
:101DE800B2072908F9002A08FA002B08FB002C087A
:101DF800FC0018300310FC0CFB0CFA0CF90CFF3E2D
:101E0800031DFE2E7908AF077A0803110318013E57
:101E180003190F2FB0077B0803110318013E03199C
:101E2800162FB1077C0803110318013E03191D2F53
:101E3800B2070830F9000310A90DAA0DAB0DAC0DBF
:101E4800F90B1F2F2E082D07F900FA01FA0D790852
:101E5800823EB3007A080318013EFF3EB400512FBA
:101E68000130F9000310AF0DB00DB10DB20DF90B33
:101E7800362FAC1F402F412F422F2F140130F9006D
:101E88000310A90DAA0DAB0DAC0DF90B442FFF30B3
:101E9800B3070318B40AFF30B407B11F542F552FE6
:101EA800342FAD01AC1F592F5A2F762FFF3029053B
:101EB800F900FF302A05FA00FF302B05FB007F30C0
:101EC8002C05FC007C087B047A04790403196D2F27
:101ED8006E2F712F0130AD00762F2F1C742F752FA8
:101EE800762F6E2F2D0803197A2F7B2FAC2F0130F8
:101EF800AF07003003180130B00700300318013075
:101F0800B107003003180130B207321C8C2F8D2F17
:101F1800AC2F2F08F9003008FA003108FB0032080E
:101F2800FC000130FD007C0DFC0CFB0CFA0CF90CDC
:101F3800FD0B972F7C08B2007B08B1007A08B0002F
:101F48007908AF000130B3070318B40A0030B407AA
:101F58003408803AFF0080307F02031DB52FFF3020
:101F68003302031CB82FB92FC42F7F3083120313F9
:101F7800B2008030B1000030B0000030AF00F52F63
:101F8800831203133408803AFF0080307F02031D58
:101F9800CF2F013033020318D22FD32FDF2F003079
:101FA80083120313B2000030B1000030B0000030DB
:101FB800AF00A801F52F831203133308AE00FF30DA
:101FC800AF05FF30B0057F30B1050030B2052E1CDB
:101FD800EE2FEF2FF02FB1172E08F9000310790C10
:101FE800B2002808B2043208A3003108A200300861
:081FF800A1002F08A000080061
:1020020073087204710470040319082809280B2844
:102012008030F306080083120313A601A7012928C2
:102022002508A300A4012308F0002408F1002108D8
:10203200F2002208F3000A168A15DE250A168A1112
:10204200013083120313A6070318A70A0030A7075B
:1020520026082007A3002308840083170008A50090
:102062002508031D3528362811280800831203137A
:102072005E0884008313000884000A168A150A2069
:102082000A168A11253A031D47284828EF285E08B8
:1020920084000130800783160317A201A3010030D8
:1020A20083160313EE00FF30EC00FF30ED008312C5
:1020B20003135E0884000008E700670884000A161C
:1020C2008A150A200A168A11E6006F280130E707EE
:1020D2007A286C30E6007A28E6017A2866084C3ABB
:1020E200031967282A3A03196A280A3A0319672842
:1020F2006D28670884000A168A150A200A168A11B2
:10210200663A031D85288628E828AF285F088400E0
:102112000008FF00043080077F0884000008E20006
:10212200840A0008E300840A0008E400840A000824
:10213200E500B7285F0884000008FF00043080072C
:102142007F0884000008E200840A0008E300840A91
:102152000008E400840A0008E500B72866084C3A43
:1021620003199B28203A03198728B7285E088400A0
:102172006708013E8000DD285C08D1005D08D200BE
:102182006508D6006408D5006308D4006208D3004D
:10219200670884000A168A150A200A168A11D700CF
:1021A2000A168A1122220A168A118312031352086E
:1021B200DD005108DC001229670884000A168A151E
:1021C2000A200A168A11663A0319BD28E8285E0811
:1021D200840001308007DC01DD0112295E088400E1
:1021E200000884000A168A150A200A168A11E000DD
:1021F200E1016008F0006108F1005C08F2005D088E
:10220200F3000A168A15DE250A168A1183120313B1
:102212005E0884000130831380070130DC00003047
:10222200DD000800831603171B0883120313C00086
:10223200831603171A0883120313BF0083160317AA
:10224200190883120313BE0083160317180883129A
:102252000313BD003008C0002F08BF002E08BE00C7
:102262002D08BD003D08B1003E08B2003F08B30092
:102272004008B40017300310B40CB30CB20CB10C0C
:10228200FF3E031D3C29FF303105B5000030320509
:10229200B6003508813EBB0036080318013EFF3EFA
:1022A200BC003C08803AFF0080307F02031D5B299E
:1022B20017303B02031C5E295F296029212A831201
:1022C2000313BC1B65296629D6293B0AFF00FF3090
:1022D200B100FF30B2007F30B3000030B400762985
:1022E200340DB40CB30CB20CB10CFF0B71293408D1
:1022F200BA003308B9003208B8003108B70037080D
:102302003D05B10038083E05B20039083F05B3006B
:102312003A084005B4003408330432043104031D82
:102322009329942995295F293D08B1003E08B200FE
:102332003F08B3004008B4001F300310B40CB30CC4
:10234200B20CB10CFF3E031D9E2934083304320443
:1023520031040319AD29AE29C5293708BD0738084C
:1023620003110318013E0319B729BE0739080311E7
:102372000318013E0319BE29BF073A0803110318C7
:10238200013E0319C529C0073709B1003809B20057
:102392003909B3003A09B4003108BD053208BE0557
:1023A2003308BF053408C005192A3D08B1003E08AC
:1023B200B2003F08B3004008B4001F300310B40C51
:1023C200B30CB20CB10CFF3E031DDF2934083304F9
:1023D20032043104031DEE29EF29F8290030C00030
:1023E2000030BF000030BE000030BD00192A3D0899
:1023F200B1003E08B2003F08B3004008B40001300B
:102402000310B10DB20DB30DB40DFF3E031D012A31
:1024120034083304320431040319102A112A192A08
:10242200BF30C0008030BF000030BE000030BD00B1
:102432004008B0003F08AF003E08AE003D08AD00C6
:10244200080083160313C10183120313560883166F
:102452000313C70083120313550883160313C60020
:1024620083120313540883160313C5008312031344
:10247200530883160313C400470883120313B800DA
:1024820083160313460883120313B700831603133C
:10249200450883120313B6008316031344088312FC
:1024A2000313B5000030BC000030BB000030BA009E
:1024B2000030B9000A128A1107200A168A1103187D
:1024C200632A642A7F2A013083160313C100470856
:1024D200F3004608F2004508F1004408F0000A162D
:1024E2008A1101200A168A11730883160313C70082
:1024F2007208C6007108C5007008C4008316031371
:10250200C201C30183160317230883160313B20003
:1025120083160317220883160313B1004108031917
:10252200932A942AA42A4108031D982A992A9E2AAA
:102532002B30A6000030A700A22A2D30A6000030C2
:10254200A7002608C1004708F3004608F200450824
:10255200F1004408F0000A168A1551250A168A115C
:1025620070037104031DB62AB72A042B83160313C2
:1025720041080319BD2ABE2ACE2A41088312031735
:102582009000FF3083160313B1070318B20AFF301D
:10259200B2070130C2000030C3004208103EF00012
:1025A2000130F1008030F2000A168A1534230A162F
:1025B2008A11FD3083160313B1070318B20AFF30E4
:1025C200B207831203135108A8005208A900103061
:1025D200AA0083160313320883120313AC00831676
:1025E2000313310883120313AB000A168A158A24D7
:1025F2000A168A11831203132908D2002808D1006F
:102602000A128A11E52F831603134708F3004608BE
:10261200F2004508F1004408F0000A168A15512517
:102622000A168A1170087104031D182B1B2B0A123B
:102632008A11AB288316031341080319212B222B7D
:10264200322B4108831203179000FF3083160313C5
:10265200B1070318B20AFF30B2070130C2000030DE
:10266200C3004208103EF0000530F1008030F20055
:102672000A168A1534230A168A11DA2A1C2C6608CD
:1026820084008317000883120313C900840A000818
:10269200CA00840A0008CB00840A0008CC00831612
:1026A200031364088400000883120313CD00840A14
:1026B2000008CE00840A0008CF00840A0008D00077
:1026C2000A168A1555230A168A11831603136408FB
:1026D200840083120313490883178000840A4A087E
:1026E2008000840A4B088000840A4C088000292C50
:1026F200660884008317000883120313A000840A6B
:102702000008A100840A0008A200840A0008A300AD
:102712008316031364088400000883120313A400C1
:10272200840A0008A500840A0008A600840A00089A
:10273200A7000A128A15BE240A168A1183160313E9
:102742006408840083120313200883178000840A1C
:1027520021088000840A22088000840A230880005D
:10276200292C6608840083170008F000840A0008F8
:10277200F100840A0008F200840A0008F3006408E9
:1027820084000008F400840A0008F500840A0008A6
:10279200F600840A0008F7000A128A159E200A161B
:1027A2008A1183160313640884007008831780005B
:1027B200840A71088000840A72088000840A7308FF
:1027C2008000292C660884008317000883120313F3
:1027D200B500840A0008B600840A0008B700840A1B
:1027E2000008B800831603136408840000088312EB
:1027F2000313B900840A0008BA00840A0008BB0067
:10280200840A0008BC000A128A156E220A168A116E
:102812008316031364088400831203133508831795
:102822008000840A36088000840A37088000840AFF
:1028320038088000292C8316031365082D3A0319E2
:10284200402B023A0319B22B573A0319792BE32B87
:10285200831603136608840000308000840A003067
:102862008000840A00308000840A00308000A63094
:10287200CC001030CD000030CE000930CF0064080B
:1028820084000008D000840A0008D100840A0008ED
:10289200D200840A0008D3000A128A1504200A16FC
:1028A2008A11A630F0000130F1000A168A15792348
:1028B2000A168A117008FF3E83160313E700710897
:1028C2000318013EFF3EE8006708A63E8400303050
:1028D20083170006031D6E2C6F2C742C6708A63E0E
:1028E20084008001822C6708A63E84002E300006F8
:1028F200031D7C2C7D2C892C6708A63E8400800158
:10290200892C0130E7020030031CE803E802652C41
:10291200A63008000D30F7000830F6009D30F500B3
:102922000530F400F40B932CF50B932CF60B932C3F
:102932009A2C831203130816081CA02CA12CB32C6A
:102942004130F500EE30F400F40BA52CF50BA52C6C
:10295200000083120313081CAF2CB02CFE2C203075
:10296200F700FE2C881CB62CB72CC92C4130F50080
:10297200EE30F400F40BBB2CF50BBB2C00008312E1
:102982000313881CC52CC62CFE2C1A30F700FE2C13
:10299200081DCC2CCD2CDF2C4130F500EE30F4009C
:1029A200F40BD12CF50BD12C000083120313081D5C
:1029B200DB2CDC2CFE2C1430F700FE2C881DE22CC4
:1029C200E32CF52C4130F500EE30F400F40BE72C4B
:1029D200F50BE72C000083120313881DF12CF22C57
:1029E200FE2C2830F700FE2C4130F500EE30F400CA
:1029F200F40BF92CF50BF92C0000831203130812C7
:102A02008816081C052D062D182D4130F500EE30D4
:102A1200F400F40B0A2DF50B0A2D000083120313A8
:102A2200081C142D152D632D2230F700632D881CF0
:102A32001B2D1C2D2E2D4130F500EE30F400F40B31
:102A4200202DF50B202D000083120313881C2A2D44
:102A52002B2D632D1C30F700632D081D312D322DD7
:102A6200442D4130F500EE30F400F40B362DF50B19
:102A7200362D000083120313081D402D412D632DB6
:102A82001630F700632D881D472D482D5A2D4130F1
:102A9200F500EE30F400F40B4C2DF50B4C2D00003C
:102AA20083120313881D562D572D632D1230F70004
:102AB200632D4130F500EE30F400F40B5E2DF50B82
:102AC2005E2D00008312031388120817081C6A2D5A
:102AD2006B2D7D2D4130F500EE30F400F40B6F2D9F
:102AE200F50B6F2D000083120313081C792D7A2D2C
:102AF200C82D2430F700C82D881C802D812D932DE0
:102B02004130F500EE30F400F40B852DF50B852DE8
:102B1200000083120313881C8F2D902DC82D1E30A8
:102B2200F700C82D081D962D972DA92D4130F500CF
:102B3200EE30F400F40B9B2DF50B9B2D000083125D
:102B42000313081DA52DA62DC82D1830F700C82D7A
:102B5200881DAC2DAD2DBF2D4130F500EE30F400B7
:102B6200F40BB12DF50BB12D000083120313881D58
:102B7200BB2DBC2DC82D2630F700C82D4130F500E5
:102B8200EE30F400F40BC32DF50BC32D00008312BD
:102B9200031308138817081CCF2DD02DE22D4130C6
:102BA200F500EE30F400F40BD42DF50BD42D00001B
:102BB20083120313081CDE2DDF2D2D2E1030F7009B
:102BC2002D2E881CE52DE62DF82D4130F500EE3036
:102BD200F400F40BEA2DF50BEA2D00008312031327
:102BE200881CF42DF52D2D2E2A30F7002D2E081DD0
:102BF200FB2DFC2D0E2E4130F500EE30F400F40BCF
:102C0200002EF50B002E000083120313081D0A2E5E
:102C12000B2E2D2E0E30F7002D2E881D112E122E6A
:102C2200242E4130F500EE30F400F40B162EF50B95
:102C3200162E000083120313881D202E212E2D2E06
:102C42000C30F7002D2E4130F500EE30F400F40B7D
:102C5200282EF50B282E0000831203138813770801
:102C6200F0000030031D8030F1000A168A15792326
:102C72000A168A11700871040319402E412E9A2CEB
:102C8200770808008316031308148814081588159A
:102C92000812881208138813831203130812881269
:102CA2000813881383160313860107110710871070
:102CB20083160317C601C701033083160313EB0003
:102CC2008A30EA005530E900E90B652EEA0B652EE1
:102CD200EB0B652E30300A168A15BF220A168A11AE
:102CE200013083160317C6070318C70A0030C70747
:102CF20000304702033003194602031C812E822E44
:102D02005D2E033083160313EB008A30EA00553040
:102D1200E900E90B8A2EEA0B8A2EEB0B8A2E383059
:102D22000A168A15BF220A168A1108300A168A154F
:102D3200BF220A168A1101300A168A15BF220A1604
:102D42008A1106300A168A15BF220A168A110F3016
:102D52000A168A15BF220A168A110130F3000030C2
:102D6200F4000A168A15F6220A168A112B308316E7
:102D72000317CA00CD3084000830FF00831780019A
:102D8200840AFF0BBF2ECB01CC010130C9000A1609
:102D92008A118B240A168A1183160317D500E62F8F
:102DA20049080319D52ED62EF32E00304C020230DC
:102DB20003194B020318DE2EDF2EF32EC9014A0837
:102DC2000319E42EE52EF32E831603175508F4009B
:102DD2000030031D8030F5000A168A15C4230A1636
:102DE2008A11C82E0130C900550884000A168A15B6
:102DF2000A200A168A11CA003A2F0130CB0703189B
:102E0200CC0A0030CC07E52ECD3083160313E40044
:102E1200831603174A0883160313E500D130E60030
:102E22000A168A113F230A168A1183160317C8004D
:102E3200B630F0004808F1000130F2000A168A1597
:102E420034230A168A1101300A168A15BF220A167D
:102E52008A11013083160317CB000030CC00B63044
:102E6200F4000130F5000A168A15C4230A168A11E5
:102E7200E52E4C08003A03193F2F242F4B08003A45
:102E82000319FE2E013A0319052F242FCD30831684
:102E92000313E400831603174A0883160313E5009D
:102EA200D130E6000A168A113F230A168A118316C8
:102EB2000317C800B630F0004808F1000130F200F4
:102EC2000A168A1534230A168A110230F3000030DA
:102ED200F4000A168A15F6220A168A11B630F40090
:102EE2000130F5000A168A15C4230A168A11013028
:102EF200F3000030F4000A168A15F6220A168A1127
:102F0200023083160317CB000030CC00C82E5508C0
:102F120084000A168A150A200A168A11433A0319EE
:102F2200932F942F9B2F02304B064C04031D9A2F94
:102F32009B2FB82FCB01CC0101300A168A15BF2274
:102F42000A168A1183160317CA010030D000003016
:102F5200CF000030CE000030CD000030D400003071
:102F6200D3000030D2000030D1000130C900550832
:102F720084000A168A150A200A168A11433A03198E
:102F8200C32FC42FC82E4B0883160313E900013048
:102F92000310E90DFF3E031DC92F0310690DCD3E3D
:102FA20083120313D10083160317550883120313E8
:102FB200D20083160317490883120313D3000A169B
:102FC2008A152C270A168A11C82E550884000A165B
:102FD2008A150A200A168A112B3A0319F32E063A89
:102FE2000319D12E023A0319F32E123A0319472F6D
:102FF200453A0319F32E882F0A128A110028FF1B63
:103002000A2883137F1883170008840A0319FF0A0A
:10301200080018308A000408840A820700346934E0
:103022006E34663400346E3461346E3400342534C8
:10303200663400342B3400342D3400342F34003401
:103042003034003431340034323400343334003418
:1030520034340034353400343634003437340034F8
:1030620038340034393400343D34003443340034CD
:04307200783400347A
:10356E0064008001840A0406031900340406B82A94
:10357E00F2008312031307108710720886000A16D2
:10358E008A15E1220A168A150800F31BCF2AD02AC3
:10359E00D12AE02A7009F0007109F1007209F200D7
:1035AE007309F300F00A0319F10A0319F20A031959
:1035BE00F30A08008312031307151030F000F00B06
:1035CE00E62A00008312031307114130F100EE309A
:1035DE00F000F00BF02AF10BF02A00000800052B8A
:1035EE0080300A168A15BF220A168A15122BC03091
:1035FE000A168A15BF220A168A15122B7408003A6B
:10360E0003190A2B122B7308013A0319F72A033AEE
:10361E000319FE2A122B08007108F6007008F50037
:10362E00252B7608840083170008F4000130F60776
:10363E0075088400740880000130F5070130F2022D
:10364E000030031CF303F302720A031D322B730ABC
:10365E00031D322B332B182B08007008F50072084F
:10366E00F4007108F300F10A0319F20A74088312C8
:10367E000313FF00730884000A168A1500200A1629
:10368E008A15FF007508F50A84007F0883178000ED
:10369E000008031D532B542B362B08008030831249
:1036AE000313CC065008B8004F08B7004E08B600FA
:1036BE004D08B5004C08BC004B08BB004A08BA00C8
:1036CE004908B9000A128A156E220A168A15831243
:1036DE0003133808CC003708CB003608CA0035086B
:1036EE00C90008007008F2007108F300842B013045
:1036FE00F0070318F10A0030F10771088312031363
:10370E00FF00700884000A168A1500200A168A1512
:10371E00003A031D932B942B7E2B72087002F0003F
:10372E007308031C730A7102F1000800F800F4011B
:10373E00F5017008F200F3017208F6007308F70045
:10374E00781CAA2BAB2BB12B7608F4070318F50ABD
:10375E007708F50701300310F60DF70DFF3E031D38
:10376E00B22B0310F80C7808031DBE2BBF2BA72B12
:10377E007508F1007408F000080083120313071493
:10378E0087107408F0007508F1000A168A1579235F
:10379E000A168A157108F7007008F600F801F9018B
:1037AE00F22B78087407840075080318750A8312C3
:1037BE000313FF000A168A1500200A168A158600C2
:1037CE000A168A15E1220A168A150130F80703181F
:1037DE00F90A0030F90777087902031DF82B7608ED
:1037EE007802031CFB2BFC2BD82B0800831203132F
:1037FE006A08EC0083160317A001A101212C6808AA
:10380E00DC006908DD006C30DE006B08DF000A1694
:10381E008A1137200A168A15831203135C08831641
:10382E000317A0070318A10A831203135D0883165A
:10383E000317A107831203136C0884000A168A1556
:10384E000A200A168A15003A031D2E2C2F2C062C40
:10385E0083160317210883120313E9008316031737
:10386E00200883120313E800080000307005F800EA
:10387E0000307105F90080307205FA007F30730553
:10388E00FB007B087A0479047804031D4F2C502C1E
:10389E00582C0030F3000030F2000030F100003000
:1038AE00F00000307405F80000307505F900803026
:1038BE007605FA007F307705FB007B087A047904E1
:1038CE007804031D6B2C6C2C742C0030F700003028
:1038DE00F6000030F5000030F40077087306031D83
:1038EE00822C76087206031D822C75087106031D44
:1038FE00822C740870060319852C862C882C0310D4
:10390E00892C0314080083120313AC1F8F2C902CE8
:10391E00922CAB01AC01AD01AE01AC2C2030F0000D
:10392E000030F100831203132808F2002908F30077
:10393E000A168A15DE250A168A150130831203131C
:10394E00AD070318AE0A0030AE072E08803AFD0010
:10395E002C08803A7D02031DB62C2B082D02031C69
:10396E00B92CBA2C952C831203132A08A000280810
:10397E00A1002908A2000A168A110C200A168A151F
:10398E00831203132A08F0000130F1000A168A157B
:10399E0079230A168A15831203132B087007A800C1
:1039AE002C0803182C0A7107A90008000310720DC9
:1039BE00730DF9007908031DE52CE62CEF2C003071
:1039CE00F3000030F2000030F1000030F000502D16
:1039DE007008F4007108F5007208F6007308F7001D
:1039EE001F300310F70CF60CF50CF40CFF3E031D04
:1039FE00F82C7408F800F217FF30F005FF30F105CF
:103A0E00FF30F2050030F3059630F902F91F102D44
:103A1E00112D292D7908803A973E0318172D182D50
:103A2E00192DE62C01300310F30CF20CF10CF00CF6
:103A3E00FF3E031D1A2D0130F907031D272D282DDA
:103A4E00192D402D20307902031C2E2D2F2D3B2DAC
:103A5E00E62C0130F4000310F00DF10DF20DF30D14
:103A6E00F40B322D0130F9027908031D3F2D402D44
:103A7E00302D78080319442D452D502DF009F109EC
:103A8E00F209F309F00A0319F10A0319F20A0319EC
:103A9E00F30A0800831603171F0883120313A500E9
:103AAE00831603171E0883120313A400831603172D
:103ABE001D0883120313A300831603171C08831219
:103ACE000313A2007308A5007208A4007108A300D6
:103ADE007008A2002208F4002308F5002408F6005E
:103AEE002508F70017300310F70CF60CF50CF40C44
:103AFE00FF3E031D7A2DFF307405A00000307505C2
:103B0E00A10020082104031D8D2D8E2DB12D22081C
:103B1E00F4002308F5002408F6002508F70001300C
:103B2E000310F40DF50DF60DF70DFF3E031D972D49
:103B3E007708760475047404031DA62DA72DAC2DED
:103B4E000230F0000030F100DD2D0330F0000030C7
:103B5E00F100DD2D200A2104031DB62DB72DD92D20
:103B6E002208F4002308F5002408F6002508F700C3
:103B7E0009300310F40DF50DF60DF70DFF3E031D84
:103B8E00C02D77087604750474040319CF2DD12D3A
:103B9E000130D22D0030F800F9017808F0007908D4
:103BAE00F100DD2D0430F0000030F1000800720845
:103BBE0073040319E32DE42DEA2D72087304031D1B
:103BCE00E92DEA2DF12D70080A128A1106200A1627
:103BDE008A15772E7208093EF40073080318013E09
:103BEE00003EF500740884008317751C83130008CB
:103BFE00F600840A0008F700760877040319082EE9
:103C0E00092E3B2E7208093EF40073080318013E7C
:103C1E00003EF500740884008317751C831300089A
:103C2E00F600840A0008F7007208023EF8007308D6
:103C3E000318013E003EF900780884008317791CB2
:103C4E0083130008FA00840A0008FB007B08803A00
:103C5E00FC007708803A7C02031D372E76087A0224
:103C6E0003183A2E3B2E772E720884008317731C8E
:103C7E0083130008F400840A0008F5007208023E5F
:103C8E00F60073080318013E003EF7007608840024
:103C9E008317771C831300087407F9007508F80062
:103CAE000318F80A801F5C2EF8037808FA007908CA
:103CBE00840083177A1C8313700880007208023EFA
:103CCE00F40073080318013E003EF50074088400EA
:103CDE008317751C831301308007840A0318800A2A
:103CEE000800F800780803197D2E7E2E922EF31F01
:103CFE00812E822E922E7009FA007109FB00720934
:103D0E00FC007309FD00FA0A0319FB0A0319FC0AE9
:103D1E000319FD0A9A2E7308FD007208FC00710843
:103D2E00FB007008FA007308720471047004031D1E
:103D3E00A12EA22EAB2E0030F3000030F200003088
:103D4E00F1000030F0002B2F9630F900B92E013023
:103D5E00F90701300310FD0CFC0CFB0CFA0CFF3EB6
:103D6E00031DB12EFE307D05031DBE2EBF2EAE2EC1
:103D7E00D92E0130F9070130FA070030031801304F
:103D8E00FB07003003180130FC0700300318013028
:103D9E00FD0701300310FD0CFC0CFB0CFA0CFF3E72
:103DAE00031DD12EFF307D05031DDE2EDF2EC02E0E
:103DBE00EB2E0130F9020130F4000310FA0DFB0D69
:103DCE00FC0DFD0DF40BE42EFC1BEE2EEF2EF52E4E
:103DDE00023079020318F42EF52EE02E7918F82E03
:103DEE00F92E012FFF30FA05FF30FB057F30FC0561
:103DFE00FF30FD050310F90C7908F400F501F6010A
:103E0E00F70118300310F40DF50DF60DF70DFF3E0A
:103E1E00031D092F7408FA047508FB047608FC04C8
:103E2E007708FD04780803191D2F1E2F232FF31F6B
:103E3E00212F222F232FFD177D08F3007C08F2007F
:103E4E007B08F1007A08F000080083120313530870
:103E5E000319322F332F8D2F520884000A168A151C
:103E6E000A200A168A15D03EF000FF3003180030E3
:103E7E00F100F201F30100300A168A1578260A16AF
:103E8E008A15730883120313B8007208B7007108FD
:103E9E00B6007008B5004130A3002030A2000030FB
:103EAE00A1000030A0005108840083170008A40070
:103EBE00840A0008A500840A0008A600840A0008E7
:103ECE00A7000A128A15BE240A168A158312031336
:103EDE002308BC002208BB002108BA002008B90044
:103EEE000A128A156E220A168A15831203135108B6
:103EFE008400350883178000840A36088000840AFF
:103F0E0037088000840A38088000E62F52088400A3
:103F1E000A168A150A200A168A15D03EF000FF30BE
:103F2E0003180030F100F201F30100300A168A1571
:103F3E0078260A168A15730883120313CC007208AA
:103F4E00CB007108CA007008C9004130A3002030B0
:103F5E00A2000030A1000030A00051088400831799
:103F6E000008A400840A0008A500840A0008A60020
:103F7E00840A0008A7000A128A15BE240A168A159A
:103F8E00831203132308D0002208CF002108CE008D
:103F9E002008CD000A168A1555230A168A15831293
:103FAE00031351088400490883178000840A4A08C5
:103FBE008000840A4B088000840A4C088000520856
:103FCE00F4000030031D8030F5000A168A15C42354
:103FDE000A168A15083083120313D6009D30D500B9
:103FEE000530D400D40BF92FD50BF92FD60BF92FA2
:023FFE000800B9
:00000001FF
